{
  "contracts/oracle/TestRequest.sol": {
    "TestRequest": {
      "abi": [
        {
          "inputs": [],
          "stateMutability": "nonpayable",
          "type": "constructor"
        },
        {
          "anonymous": false,
          "inputs": [
            {
              "indexed": true,
              "internalType": "bytes32",
              "name": "id",
              "type": "bytes32"
            }
          ],
          "name": "ChainlinkCancelled",
          "type": "event"
        },
        {
          "anonymous": false,
          "inputs": [
            {
              "indexed": true,
              "internalType": "bytes32",
              "name": "id",
              "type": "bytes32"
            }
          ],
          "name": "ChainlinkFulfilled",
          "type": "event"
        },
        {
          "anonymous": false,
          "inputs": [
            {
              "indexed": true,
              "internalType": "bytes32",
              "name": "id",
              "type": "bytes32"
            }
          ],
          "name": "ChainlinkRequested",
          "type": "event"
        },
        {
          "anonymous": false,
          "inputs": [
            {
              "indexed": true,
              "internalType": "address",
              "name": "from",
              "type": "address"
            },
            {
              "indexed": true,
              "internalType": "address",
              "name": "to",
              "type": "address"
            }
          ],
          "name": "OwnershipTransferRequested",
          "type": "event"
        },
        {
          "anonymous": false,
          "inputs": [
            {
              "indexed": true,
              "internalType": "address",
              "name": "from",
              "type": "address"
            },
            {
              "indexed": true,
              "internalType": "address",
              "name": "to",
              "type": "address"
            }
          ],
          "name": "OwnershipTransferred",
          "type": "event"
        },
        {
          "inputs": [],
          "name": "acceptOwnership",
          "outputs": [],
          "stateMutability": "nonpayable",
          "type": "function"
        },
        {
          "inputs": [
            {
              "internalType": "bytes32",
              "name": "_requestId",
              "type": "bytes32"
            },
            {
              "internalType": "uint256",
              "name": "_payment",
              "type": "uint256"
            },
            {
              "internalType": "bytes4",
              "name": "_callbackFunctionId",
              "type": "bytes4"
            },
            {
              "internalType": "uint256",
              "name": "_expiration",
              "type": "uint256"
            }
          ],
          "name": "cancelRequest",
          "outputs": [],
          "stateMutability": "nonpayable",
          "type": "function"
        },
        {
          "inputs": [
            {
              "internalType": "bytes32",
              "name": "_requestId",
              "type": "bytes32"
            },
            {
              "internalType": "bytes32",
              "name": "_market",
              "type": "bytes32"
            }
          ],
          "name": "fulfillTemplate",
          "outputs": [],
          "stateMutability": "nonpayable",
          "type": "function"
        },
        {
          "inputs": [],
          "name": "getChainlinkToken",
          "outputs": [
            {
              "internalType": "address",
              "name": "",
              "type": "address"
            }
          ],
          "stateMutability": "view",
          "type": "function"
        },
        {
          "inputs": [],
          "name": "owner",
          "outputs": [
            {
              "internalType": "address",
              "name": "",
              "type": "address"
            }
          ],
          "stateMutability": "view",
          "type": "function"
        },
        {
          "inputs": [
            {
              "internalType": "address",
              "name": "_oracle",
              "type": "address"
            },
            {
              "internalType": "string",
              "name": "_jobId",
              "type": "string"
            }
          ],
          "name": "testRequest",
          "outputs": [],
          "stateMutability": "nonpayable",
          "type": "function"
        },
        {
          "inputs": [
            {
              "internalType": "address",
              "name": "to",
              "type": "address"
            }
          ],
          "name": "transferOwnership",
          "outputs": [],
          "stateMutability": "nonpayable",
          "type": "function"
        },
        {
          "inputs": [],
          "name": "withdrawLink",
          "outputs": [],
          "stateMutability": "nonpayable",
          "type": "function"
        }
      ],
      "evm": {
        "bytecode": {
          "linkReferences": {},
          "object": "608060405260016004553480156200001657600080fd5b50338060008073ffffffffffffffffffffffffffffffffffffffff168273ffffffffffffffffffffffffffffffffffffffff1614156200008d576040517f08c379a00000000000000000000000000000000000000000000000000000000081526004016200008490620003e3565b60405180910390fd5b81600660006101000a81548173ffffffffffffffffffffffffffffffffffffffff021916908373ffffffffffffffffffffffffffffffffffffffff160217905550600073ffffffffffffffffffffffffffffffffffffffff168173ffffffffffffffffffffffffffffffffffffffff1614620001155762000114816200012e60201b60201c565b5b505050620001286200026060201b60201c565b620004dd565b3373ffffffffffffffffffffffffffffffffffffffff168173ffffffffffffffffffffffffffffffffffffffff161415620001a0576040517f08c379a0000000000000000000000000000000000000000000000000000000008152600401620001979062000405565b60405180910390fd5b80600760006101000a81548173ffffffffffffffffffffffffffffffffffffffff021916908373ffffffffffffffffffffffffffffffffffffffff1602179055508073ffffffffffffffffffffffffffffffffffffffff16600660009054906101000a900473ffffffffffffffffffffffffffffffffffffffff1673ffffffffffffffffffffffffffffffffffffffff167fed8889f560326eb138920d842192f0eb3dd22b4f139c87a2c57538e05bae127860405160405180910390a350565b6200030673c89bd4e1632d3a43cb03aaad5262cbe4038bc57173ffffffffffffffffffffffffffffffffffffffff166338cc48316040518163ffffffff1660e01b815260040160206040518083038186803b158015620002bf57600080fd5b505afa158015620002d4573d6000803e3d6000fd5b505050506040513d601f19601f82011682018060405250810190620002fa919062000363565b6200030860201b60201c565b565b80600260006101000a81548173ffffffffffffffffffffffffffffffffffffffff021916908373ffffffffffffffffffffffffffffffffffffffff16021790555050565b6000815190506200035d81620004c3565b92915050565b6000602082840312156200037c576200037b6200046c565b5b60006200038c848285016200034c565b91505092915050565b6000620003a460188362000427565b9150620003b18262000471565b602082019050919050565b6000620003cb60178362000427565b9150620003d8826200049a565b602082019050919050565b60006020820190508181036000830152620003fe8162000395565b9050919050565b600060208201905081810360008301526200042081620003bc565b9050919050565b600082825260208201905092915050565b600062000445826200044c565b9050919050565b600073ffffffffffffffffffffffffffffffffffffffff82169050919050565b600080fd5b7f43616e6e6f7420736574206f776e657220746f207a65726f0000000000000000600082015250565b7f43616e6e6f74207472616e7366657220746f2073656c66000000000000000000600082015250565b620004ce8162000438565b8114620004da57600080fd5b50565b61224980620004ed6000396000f3fe608060405234801561001057600080fd5b50600436106100885760003560e01c80638dc654a21161005b5780638dc654a2146100ef578063d0e18258146100f9578063ec65d0f814610115578063f2fde38b1461013157610088565b8063165d35e11461008d57806363382c3c146100ab57806379ba5097146100c75780638da5cb5b146100d1575b600080fd5b61009561014d565b6040516100a29190611845565b60405180910390f35b6100c560048036038101906100c091906115d0565b61015c565b005b6100cf610266565b005b6100d96103fd565b6040516100e69190611845565b60405180910390f35b6100f7610427565b005b610113600480360381019061010e9190611547565b610592565b005b61012f600480360381019061012a9190611610565b610677565b005b61014b6004803603810190610146919061151a565b610691565b005b60006101576106a5565b905090565b816005600082815260200190815260200160002060009054906101000a900473ffffffffffffffffffffffffffffffffffffffff1673ffffffffffffffffffffffffffffffffffffffff163373ffffffffffffffffffffffffffffffffffffffff16146101fe576040517f08c379a00000000000000000000000000000000000000000000000000000000081526004016101f590611a31565b60405180910390fd5b6005600082815260200190815260200160002060006101000a81549073ffffffffffffffffffffffffffffffffffffffff0219169055807f7cc135e0cebb02c3480ae5d74d377283180a2601f8f644edf7987b009316c63a60405160405180910390a2505050565b600760009054906101000a900473ffffffffffffffffffffffffffffffffffffffff1673ffffffffffffffffffffffffffffffffffffffff163373ffffffffffffffffffffffffffffffffffffffff16146102f6576040517f08c379a00000000000000000000000000000000000000000000000000000000081526004016102ed90611991565b60405180910390fd5b6000600660009054906101000a900473ffffffffffffffffffffffffffffffffffffffff16905033600660006101000a81548173ffffffffffffffffffffffffffffffffffffffff021916908373ffffffffffffffffffffffffffffffffffffffff1602179055506000600760006101000a81548173ffffffffffffffffffffffffffffffffffffffff021916908373ffffffffffffffffffffffffffffffffffffffff1602179055503373ffffffffffffffffffffffffffffffffffffffff168173ffffffffffffffffffffffffffffffffffffffff167f8be0079c531659141344cd1fd0a4f28419497f9722a3daafe3b4186f6b6457e060405160405180910390a350565b6000600660009054906101000a900473ffffffffffffffffffffffffffffffffffffffff16905090565b61042f6106cf565b60006104396106a5565b90508073ffffffffffffffffffffffffffffffffffffffff1663a9059cbb338373ffffffffffffffffffffffffffffffffffffffff166370a08231306040518263ffffffff1660e01b81526004016104919190611845565b60206040518083038186803b1580156104a957600080fd5b505afa1580156104bd573d6000803e3d6000fd5b505050506040513d601f19601f820116820180604052508101906104e19190611677565b6040518363ffffffff1660e01b81526004016104fe929190611860565b602060405180830381600087803b15801561051857600080fd5b505af115801561052c573d6000803e3d6000fd5b505050506040513d601f19601f8201168201806040525081019061055091906115a3565b61058f576040517f08c379a0000000000000000000000000000000000000000000000000000000008152600401610586906119f1565b60405180910390fd5b50565b61059a6106cf565b60006105b66105a883610761565b306363382c3c60e01b61078b565b905061061a6040518060400160405280600481526020017f75736572000000000000000000000000000000000000000000000000000000008152506040518060600160405280602a81526020016121ea602a9139836107bc9092919063ffffffff16565b6106656040518060400160405280600881526020017f6f726465724e756d0000000000000000000000000000000000000000000000008152506064836107ef9092919063ffffffff16565b61067183826001610822565b50505050565b61067f6106cf565b61068b848484846108ee565b50505050565b6106996106cf565b6106a281610a01565b50565b6000600260009054906101000a900473ffffffffffffffffffffffffffffffffffffffff16905090565b600660009054906101000a900473ffffffffffffffffffffffffffffffffffffffff1673ffffffffffffffffffffffffffffffffffffffff163373ffffffffffffffffffffffffffffffffffffffff161461075f576040517f08c379a0000000000000000000000000000000000000000000000000000000008152600401610756906119d1565b60405180910390fd5b565b60008082905060008151141561077d576000801b915050610786565b60208301519150505b919050565b6107936113a5565b61079b6113a5565b6107b285858584610b30909392919063ffffffff16565b9150509392505050565b6107d3828460800151610be090919063ffffffff16565b6107ea818460800151610be090919063ffffffff16565b505050565b610806828460800151610be090919063ffffffff16565b61081d818460800151610c0590919063ffffffff16565b505050565b60008060045490506001816108379190611aef565b6004819055506000634042994660e01b60008087600001513089604001518760018c6080015160000151604051602401610878989796959493929190611889565b604051602081830303815290604052907bffffffffffffffffffffffffffffffffffffffffffffffffffffffff19166020820180517bffffffffffffffffffffffffffffffffffffffffffffffffffffffff838183161783525050505090506108e386838684610cb2565b925050509392505050565b60006005600086815260200190815260200160002060009054906101000a900473ffffffffffffffffffffffffffffffffffffffff1690506005600086815260200190815260200160002060006101000a81549073ffffffffffffffffffffffffffffffffffffffff0219169055847fe1fe3afa0f7f761ff0a8b89086790efd5140d2907ebd5b7ff6bfcb5e075fd4c560405160405180910390a28073ffffffffffffffffffffffffffffffffffffffff16636ee4d553868686866040518563ffffffff1660e01b81526004016109c8949392919061194c565b600060405180830381600087803b1580156109e257600080fd5b505af11580156109f6573d6000803e3d6000fd5b505050505050505050565b3373ffffffffffffffffffffffffffffffffffffffff168173ffffffffffffffffffffffffffffffffffffffff161415610a70576040517f08c379a0000000000000000000000000000000000000000000000000000000008152600401610a6790611a11565b60405180910390fd5b80600760006101000a81548173ffffffffffffffffffffffffffffffffffffffff021916908373ffffffffffffffffffffffffffffffffffffffff1602179055508073ffffffffffffffffffffffffffffffffffffffff16600660009054906101000a900473ffffffffffffffffffffffffffffffffffffffff1673ffffffffffffffffffffffffffffffffffffffff167fed8889f560326eb138920d842192f0eb3dd22b4f139c87a2c57538e05bae127860405160405180910390a350565b610b386113a5565b610b488560800151610100610e56565b508385600001818152505082856020019073ffffffffffffffffffffffffffffffffffffffff16908173ffffffffffffffffffffffffffffffffffffffff16815250508185604001907bffffffffffffffffffffffffffffffffffffffffffffffffffffffff191690817bffffffffffffffffffffffffffffffffffffffffffffffffffffffff191681525050849050949350505050565b610bed8260038351610ec0565b610c00818361104590919063ffffffff16565b505050565b7fffffffffffffffffffffffffffffffffffffffffffffffff0000000000000000811215610c3c57610c378282611067565b610cae565b67ffffffffffffffff811315610c5b57610c5682826110de565b610cad565b60008112610c7457610c6f82600083610ec0565b610cac565b610cab826001837fffffffffffffffffffffffffffffffffffffffffffffffffffffffffffffffff610ca69190611d10565b610ec0565b5b5b5b5050565b60003084604051602001610cc7929190611819565b604051602081830303815290604052805190602001209050846005600083815260200190815260200160002060006101000a81548173ffffffffffffffffffffffffffffffffffffffff021916908373ffffffffffffffffffffffffffffffffffffffff160217905550807fb5e6e01e79f91267dc17b4e6314d5d4d03593d2ceee0fbb452b750bd70ea5af960405160405180910390a2600260009054906101000a900473ffffffffffffffffffffffffffffffffffffffff1673ffffffffffffffffffffffffffffffffffffffff16634000aea08685856040518463ffffffff1660e01b8152600401610dbd9392919061190e565b602060405180830381600087803b158015610dd757600080fd5b505af1158015610deb573d6000803e3d6000fd5b505050506040513d601f19601f82011682018060405250810190610e0f91906115a3565b610e4e576040517f08c379a0000000000000000000000000000000000000000000000000000000008152600401610e45906119b1565b60405180910390fd5b949350505050565b610e5e611412565b6000602083610e6d9190611f37565b14610e9957602082610e7f9190611f37565b6020610e8b9190611da4565b82610e969190611aef565b91505b81836020018181525050604051808452600081528281016020016040525082905092915050565b60178167ffffffffffffffff1611610ef757610ef18160058460ff16901b60ff16178461112a90919063ffffffff16565b50611040565b60ff8167ffffffffffffffff1611610f4d57610f26601860058460ff16901b178461112a90919063ffffffff16565b50610f478167ffffffffffffffff1660018561114a9092919063ffffffff16565b5061103f565b61ffff8167ffffffffffffffff1611610fa457610f7d601960058460ff16901b178461112a90919063ffffffff16565b50610f9e8167ffffffffffffffff1660028561114a9092919063ffffffff16565b5061103e565b63ffffffff8167ffffffffffffffff1611610ffd57610fd6601a60058460ff16901b178461112a90919063ffffffff16565b50610ff78167ffffffffffffffff1660048561114a9092919063ffffffff16565b5061103d565b61101a601b60058460ff16901b178461112a90919063ffffffff16565b5061103b8167ffffffffffffffff1660088561114a9092919063ffffffff16565b505b5b5b5b505050565b61104d611412565b61105f8384600001515184855161116c565b905092915050565b61108560036005600660ff16901b178361112a90919063ffffffff16565b506110da82827fffffffffffffffffffffffffffffffffffffffffffffffffffffffffffffffff6110b69190611d10565b6040516020016110c69190611a51565b60405160208183030381529060405261125b565b5050565b6110fc60026005600660ff16901b178361112a90919063ffffffff16565b5061112682826040516020016111129190611a51565b60405160208183030381529060405261125b565b5050565b611132611412565b6111428384600001515184611280565b905092915050565b611152611412565b6111638485600001515185856112d7565b90509392505050565b611174611412565b825182111561118257600080fd5b846020015182856111939190611aef565b11156111c8576111c78560026111b8886020015188876111b39190611aef565b611365565b6111c29190611cb6565b611381565b5b6000808651805187602083010193508088870111156111e75787860182525b60208701925050505b6020841061122e57805182526020826112099190611aef565b91506020816112189190611aef565b90506020846112279190611da4565b93506111f0565b60006001856020036101000a03905080198251168184511681811785525050508692505050949350505050565b6112688260028351610ec0565b61127b818361104590919063ffffffff16565b505050565b611288611412565b836020015183106112ae576112ad84600286602001516112a89190611cb6565b611381565b5b83518051602085830101848153818614156112ca576001820183525b5050508390509392505050565b6112df611412565b846020015184836112f09190611aef565b11156113185761131785600286856113089190611aef565b6113129190611cb6565b611381565b5b600060018361010061132a9190611b98565b6113349190611da4565b905085518386820101858319825116178152815185880111156113575784870182525b505085915050949350505050565b6000818311156113775782905061137b565b8190505b92915050565b6000826000015190506113948383610e56565b5061139f8382611045565b50505050565b6040518060a0016040528060008019168152602001600073ffffffffffffffffffffffffffffffffffffffff16815260200160007bffffffffffffffffffffffffffffffffffffffffffffffffffffffff191681526020016000815260200161140c611412565b81525090565b604051806040016040528060608152602001600081525090565b600061143f61143a84611a91565b611a6c565b90508281526020810184848401111561145b5761145a611ffa565b5b611466848285611e96565b509392505050565b60008135905061147d81612176565b92915050565b6000815190506114928161218d565b92915050565b6000813590506114a7816121a4565b92915050565b6000813590506114bc816121bb565b92915050565b600082601f8301126114d7576114d6611ff5565b5b81356114e784826020860161142c565b91505092915050565b6000813590506114ff816121d2565b92915050565b600081519050611514816121d2565b92915050565b6000602082840312156115305761152f612004565b5b600061153e8482850161146e565b91505092915050565b6000806040838503121561155e5761155d612004565b5b600061156c8582860161146e565b925050602083013567ffffffffffffffff81111561158d5761158c611fff565b5b611599858286016114c2565b9150509250929050565b6000602082840312156115b9576115b8612004565b5b60006115c784828501611483565b91505092915050565b600080604083850312156115e7576115e6612004565b5b60006115f585828601611498565b925050602061160685828601611498565b9150509250929050565b6000806000806080858703121561162a57611629612004565b5b600061163887828801611498565b9450506020611649878288016114f0565b935050604061165a878288016114ad565b925050606061166b878288016114f0565b91505092959194509250565b60006020828403121561168d5761168c612004565b5b600061169b84828501611505565b91505092915050565b6116ad81611dd8565b82525050565b6116bc81611df6565b82525050565b6116cb81611e00565b82525050565b60006116dc82611ac2565b6116e68185611acd565b93506116f6818560208601611ea5565b6116ff81612009565b840191505092915050565b61171b61171682611e60565b611f09565b82525050565b600061172e601683611ade565b915061173982612034565b602082019050919050565b6000611751602383611ade565b915061175c8261205d565b604082019050919050565b6000611774601683611ade565b915061177f826120ac565b602082019050919050565b6000611797601283611ade565b91506117a2826120d5565b602082019050919050565b60006117ba601783611ade565b91506117c5826120fe565b602082019050919050565b60006117dd602883611ade565b91506117e882612127565b604082019050919050565b6117fc81611e56565b82525050565b61181361180e82611e56565b611f2d565b82525050565b6000611825828561170a565b6014820191506118358284611802565b6020820191508190509392505050565b600060208201905061185a60008301846116a4565b92915050565b600060408201905061187560008301856116a4565b61188260208301846117f3565b9392505050565b60006101008201905061189f600083018b6116a4565b6118ac602083018a6117f3565b6118b960408301896116b3565b6118c660608301886116a4565b6118d360808301876116c2565b6118e060a08301866117f3565b6118ed60c08301856117f3565b81810360e08301526118ff81846116d1565b90509998505050505050505050565b600060608201905061192360008301866116a4565b61193060208301856117f3565b818103604083015261194281846116d1565b9050949350505050565b600060808201905061196160008301876116b3565b61196e60208301866117f3565b61197b60408301856116c2565b61198860608301846117f3565b95945050505050565b600060208201905081810360008301526119aa81611721565b9050919050565b600060208201905081810360008301526119ca81611744565b9050919050565b600060208201905081810360008301526119ea81611767565b9050919050565b60006020820190508181036000830152611a0a8161178a565b9050919050565b60006020820190508181036000830152611a2a816117ad565b9050919050565b60006020820190508181036000830152611a4a816117d0565b9050919050565b6000602082019050611a6660008301846117f3565b92915050565b6000611a76611a87565b9050611a828282611ed8565b919050565b6000604051905090565b600067ffffffffffffffff821115611aac57611aab611fc6565b5b611ab582612009565b9050602081019050919050565b600081519050919050565b600082825260208201905092915050565b600082825260208201905092915050565b6000611afa82611e56565b9150611b0583611e56565b9250827fffffffffffffffffffffffffffffffffffffffffffffffffffffffffffffffff03821115611b3a57611b39611f68565b5b828201905092915050565b6000808291508390505b6001851115611b8f57808604811115611b6b57611b6a611f68565b5b6001851615611b7a5780820291505b8081029050611b8885612027565b9450611b4f565b94509492505050565b6000611ba382611e56565b9150611bae83611e56565b9250611bdb7fffffffffffffffffffffffffffffffffffffffffffffffffffffffffffffffff8484611be3565b905092915050565b600082611bf35760019050611caf565b81611c015760009050611caf565b8160018114611c175760028114611c2157611c50565b6001915050611caf565b60ff841115611c3357611c32611f68565b5b8360020a915084821115611c4a57611c49611f68565b5b50611caf565b5060208310610133831016604e8410600b8410161715611c855782820a905083811115611c8057611c7f611f68565b5b611caf565b611c928484846001611b45565b92509050818404811115611ca957611ca8611f68565b5b81810290505b9392505050565b6000611cc182611e56565b9150611ccc83611e56565b9250817fffffffffffffffffffffffffffffffffffffffffffffffffffffffffffffffff0483118215151615611d0557611d04611f68565b5b828202905092915050565b6000611d1b82611e2c565b9150611d2683611e2c565b9250827f800000000000000000000000000000000000000000000000000000000000000001821260008412151615611d6157611d60611f68565b5b827f7fffffffffffffffffffffffffffffffffffffffffffffffffffffffffffffff018213600084121615611d9957611d98611f68565b5b828203905092915050565b6000611daf82611e56565b9150611dba83611e56565b925082821015611dcd57611dcc611f68565b5b828203905092915050565b6000611de382611e36565b9050919050565b60008115159050919050565b6000819050919050565b60007fffffffff0000000000000000000000000000000000000000000000000000000082169050919050565b6000819050919050565b600073ffffffffffffffffffffffffffffffffffffffff82169050919050565b6000819050919050565b6000611e6b82611e72565b9050919050565b6000611e7d82611e84565b9050919050565b6000611e8f82611e36565b9050919050565b82818337600083830152505050565b60005b83811015611ec3578082015181840152602081019050611ea8565b83811115611ed2576000848401525b50505050565b611ee182612009565b810181811067ffffffffffffffff82111715611f0057611eff611fc6565b5b80604052505050565b6000611f1482611f1b565b9050919050565b6000611f268261201a565b9050919050565b6000819050919050565b6000611f4282611e56565b9150611f4d83611e56565b925082611f5d57611f5c611f97565b5b828206905092915050565b7f4e487b7100000000000000000000000000000000000000000000000000000000600052601160045260246000fd5b7f4e487b7100000000000000000000000000000000000000000000000000000000600052601260045260246000fd5b7f4e487b7100000000000000000000000000000000000000000000000000000000600052604160045260246000fd5b600080fd5b600080fd5b600080fd5b600080fd5b6000601f19601f8301169050919050565b60008160601b9050919050565b60008160011c9050919050565b7f4d7573742062652070726f706f736564206f776e657200000000000000000000600082015250565b7f756e61626c6520746f207472616e73666572416e6443616c6c20746f206f726160008201527f636c650000000000000000000000000000000000000000000000000000000000602082015250565b7f4f6e6c792063616c6c61626c65206279206f776e657200000000000000000000600082015250565b7f556e61626c6520746f207472616e736665720000000000000000000000000000600082015250565b7f43616e6e6f74207472616e7366657220746f2073656c66000000000000000000600082015250565b7f536f75726365206d75737420626520746865206f7261636c65206f662074686560008201527f2072657175657374000000000000000000000000000000000000000000000000602082015250565b61217f81611dd8565b811461218a57600080fd5b50565b61219681611dea565b81146121a157600080fd5b50565b6121ad81611df6565b81146121b857600080fd5b50565b6121c481611e00565b81146121cf57600080fd5b50565b6121db81611e56565b81146121e657600080fd5b5056fe307830303030303030303030303030303030303030303030303030303030303030303030303030303030a2646970667358221220533ca66cb564da9553460b01e9264ec18c11f83f9e4bcfcf80a9665ccc14537864736f6c63430008070033",
          "opcodes": "PUSH1 0x80 PUSH1 0x40 MSTORE PUSH1 0x1 PUSH1 0x4 SSTORE CALLVALUE DUP1 ISZERO PUSH3 0x16 JUMPI PUSH1 0x0 DUP1 REVERT JUMPDEST POP CALLER DUP1 PUSH1 0x0 DUP1 PUSH20 0xFFFFFFFFFFFFFFFFFFFFFFFFFFFFFFFFFFFFFFFF AND DUP3 PUSH20 0xFFFFFFFFFFFFFFFFFFFFFFFFFFFFFFFFFFFFFFFF AND EQ ISZERO PUSH3 0x8D JUMPI PUSH1 0x40 MLOAD PUSH32 0x8C379A000000000000000000000000000000000000000000000000000000000 DUP2 MSTORE PUSH1 0x4 ADD PUSH3 0x84 SWAP1 PUSH3 0x3E3 JUMP JUMPDEST PUSH1 0x40 MLOAD DUP1 SWAP2 SUB SWAP1 REVERT JUMPDEST DUP2 PUSH1 0x6 PUSH1 0x0 PUSH2 0x100 EXP DUP2 SLOAD DUP2 PUSH20 0xFFFFFFFFFFFFFFFFFFFFFFFFFFFFFFFFFFFFFFFF MUL NOT AND SWAP1 DUP4 PUSH20 0xFFFFFFFFFFFFFFFFFFFFFFFFFFFFFFFFFFFFFFFF AND MUL OR SWAP1 SSTORE POP PUSH1 0x0 PUSH20 0xFFFFFFFFFFFFFFFFFFFFFFFFFFFFFFFFFFFFFFFF AND DUP2 PUSH20 0xFFFFFFFFFFFFFFFFFFFFFFFFFFFFFFFFFFFFFFFF AND EQ PUSH3 0x115 JUMPI PUSH3 0x114 DUP2 PUSH3 0x12E PUSH1 0x20 SHL PUSH1 0x20 SHR JUMP JUMPDEST JUMPDEST POP POP POP PUSH3 0x128 PUSH3 0x260 PUSH1 0x20 SHL PUSH1 0x20 SHR JUMP JUMPDEST PUSH3 0x4DD JUMP JUMPDEST CALLER PUSH20 0xFFFFFFFFFFFFFFFFFFFFFFFFFFFFFFFFFFFFFFFF AND DUP2 PUSH20 0xFFFFFFFFFFFFFFFFFFFFFFFFFFFFFFFFFFFFFFFF AND EQ ISZERO PUSH3 0x1A0 JUMPI PUSH1 0x40 MLOAD PUSH32 0x8C379A000000000000000000000000000000000000000000000000000000000 DUP2 MSTORE PUSH1 0x4 ADD PUSH3 0x197 SWAP1 PUSH3 0x405 JUMP JUMPDEST PUSH1 0x40 MLOAD DUP1 SWAP2 SUB SWAP1 REVERT JUMPDEST DUP1 PUSH1 0x7 PUSH1 0x0 PUSH2 0x100 EXP DUP2 SLOAD DUP2 PUSH20 0xFFFFFFFFFFFFFFFFFFFFFFFFFFFFFFFFFFFFFFFF MUL NOT AND SWAP1 DUP4 PUSH20 0xFFFFFFFFFFFFFFFFFFFFFFFFFFFFFFFFFFFFFFFF AND MUL OR SWAP1 SSTORE POP DUP1 PUSH20 0xFFFFFFFFFFFFFFFFFFFFFFFFFFFFFFFFFFFFFFFF AND PUSH1 0x6 PUSH1 0x0 SWAP1 SLOAD SWAP1 PUSH2 0x100 EXP SWAP1 DIV PUSH20 0xFFFFFFFFFFFFFFFFFFFFFFFFFFFFFFFFFFFFFFFF AND PUSH20 0xFFFFFFFFFFFFFFFFFFFFFFFFFFFFFFFFFFFFFFFF AND PUSH32 0xED8889F560326EB138920D842192F0EB3DD22B4F139C87A2C57538E05BAE1278 PUSH1 0x40 MLOAD PUSH1 0x40 MLOAD DUP1 SWAP2 SUB SWAP1 LOG3 POP JUMP JUMPDEST PUSH3 0x306 PUSH20 0xC89BD4E1632D3A43CB03AAAD5262CBE4038BC571 PUSH20 0xFFFFFFFFFFFFFFFFFFFFFFFFFFFFFFFFFFFFFFFF AND PUSH4 0x38CC4831 PUSH1 0x40 MLOAD DUP2 PUSH4 0xFFFFFFFF AND PUSH1 0xE0 SHL DUP2 MSTORE PUSH1 0x4 ADD PUSH1 0x20 PUSH1 0x40 MLOAD DUP1 DUP4 SUB DUP2 DUP7 DUP1 EXTCODESIZE ISZERO DUP1 ISZERO PUSH3 0x2BF JUMPI PUSH1 0x0 DUP1 REVERT JUMPDEST POP GAS STATICCALL ISZERO DUP1 ISZERO PUSH3 0x2D4 JUMPI RETURNDATASIZE PUSH1 0x0 DUP1 RETURNDATACOPY RETURNDATASIZE PUSH1 0x0 REVERT JUMPDEST POP POP POP POP PUSH1 0x40 MLOAD RETURNDATASIZE PUSH1 0x1F NOT PUSH1 0x1F DUP3 ADD AND DUP3 ADD DUP1 PUSH1 0x40 MSTORE POP DUP2 ADD SWAP1 PUSH3 0x2FA SWAP2 SWAP1 PUSH3 0x363 JUMP JUMPDEST PUSH3 0x308 PUSH1 0x20 SHL PUSH1 0x20 SHR JUMP JUMPDEST JUMP JUMPDEST DUP1 PUSH1 0x2 PUSH1 0x0 PUSH2 0x100 EXP DUP2 SLOAD DUP2 PUSH20 0xFFFFFFFFFFFFFFFFFFFFFFFFFFFFFFFFFFFFFFFF MUL NOT AND SWAP1 DUP4 PUSH20 0xFFFFFFFFFFFFFFFFFFFFFFFFFFFFFFFFFFFFFFFF AND MUL OR SWAP1 SSTORE POP POP JUMP JUMPDEST PUSH1 0x0 DUP2 MLOAD SWAP1 POP PUSH3 0x35D DUP2 PUSH3 0x4C3 JUMP JUMPDEST SWAP3 SWAP2 POP POP JUMP JUMPDEST PUSH1 0x0 PUSH1 0x20 DUP3 DUP5 SUB SLT ISZERO PUSH3 0x37C JUMPI PUSH3 0x37B PUSH3 0x46C JUMP JUMPDEST JUMPDEST PUSH1 0x0 PUSH3 0x38C DUP5 DUP3 DUP6 ADD PUSH3 0x34C JUMP JUMPDEST SWAP2 POP POP SWAP3 SWAP2 POP POP JUMP JUMPDEST PUSH1 0x0 PUSH3 0x3A4 PUSH1 0x18 DUP4 PUSH3 0x427 JUMP JUMPDEST SWAP2 POP PUSH3 0x3B1 DUP3 PUSH3 0x471 JUMP JUMPDEST PUSH1 0x20 DUP3 ADD SWAP1 POP SWAP2 SWAP1 POP JUMP JUMPDEST PUSH1 0x0 PUSH3 0x3CB PUSH1 0x17 DUP4 PUSH3 0x427 JUMP JUMPDEST SWAP2 POP PUSH3 0x3D8 DUP3 PUSH3 0x49A JUMP JUMPDEST PUSH1 0x20 DUP3 ADD SWAP1 POP SWAP2 SWAP1 POP JUMP JUMPDEST PUSH1 0x0 PUSH1 0x20 DUP3 ADD SWAP1 POP DUP2 DUP2 SUB PUSH1 0x0 DUP4 ADD MSTORE PUSH3 0x3FE DUP2 PUSH3 0x395 JUMP JUMPDEST SWAP1 POP SWAP2 SWAP1 POP JUMP JUMPDEST PUSH1 0x0 PUSH1 0x20 DUP3 ADD SWAP1 POP DUP2 DUP2 SUB PUSH1 0x0 DUP4 ADD MSTORE PUSH3 0x420 DUP2 PUSH3 0x3BC JUMP JUMPDEST SWAP1 POP SWAP2 SWAP1 POP JUMP JUMPDEST PUSH1 0x0 DUP3 DUP3 MSTORE PUSH1 0x20 DUP3 ADD SWAP1 POP SWAP3 SWAP2 POP POP JUMP JUMPDEST PUSH1 0x0 PUSH3 0x445 DUP3 PUSH3 0x44C JUMP JUMPDEST SWAP1 POP SWAP2 SWAP1 POP JUMP JUMPDEST PUSH1 0x0 PUSH20 0xFFFFFFFFFFFFFFFFFFFFFFFFFFFFFFFFFFFFFFFF DUP3 AND SWAP1 POP SWAP2 SWAP1 POP JUMP JUMPDEST PUSH1 0x0 DUP1 REVERT JUMPDEST PUSH32 0x43616E6E6F7420736574206F776E657220746F207A65726F0000000000000000 PUSH1 0x0 DUP3 ADD MSTORE POP JUMP JUMPDEST PUSH32 0x43616E6E6F74207472616E7366657220746F2073656C66000000000000000000 PUSH1 0x0 DUP3 ADD MSTORE POP JUMP JUMPDEST PUSH3 0x4CE DUP2 PUSH3 0x438 JUMP JUMPDEST DUP2 EQ PUSH3 0x4DA JUMPI PUSH1 0x0 DUP1 REVERT JUMPDEST POP JUMP JUMPDEST PUSH2 0x2249 DUP1 PUSH3 0x4ED PUSH1 0x0 CODECOPY PUSH1 0x0 RETURN INVALID PUSH1 0x80 PUSH1 0x40 MSTORE CALLVALUE DUP1 ISZERO PUSH2 0x10 JUMPI PUSH1 0x0 DUP1 REVERT JUMPDEST POP PUSH1 0x4 CALLDATASIZE LT PUSH2 0x88 JUMPI PUSH1 0x0 CALLDATALOAD PUSH1 0xE0 SHR DUP1 PUSH4 0x8DC654A2 GT PUSH2 0x5B JUMPI DUP1 PUSH4 0x8DC654A2 EQ PUSH2 0xEF JUMPI DUP1 PUSH4 0xD0E18258 EQ PUSH2 0xF9 JUMPI DUP1 PUSH4 0xEC65D0F8 EQ PUSH2 0x115 JUMPI DUP1 PUSH4 0xF2FDE38B EQ PUSH2 0x131 JUMPI PUSH2 0x88 JUMP JUMPDEST DUP1 PUSH4 0x165D35E1 EQ PUSH2 0x8D JUMPI DUP1 PUSH4 0x63382C3C EQ PUSH2 0xAB JUMPI DUP1 PUSH4 0x79BA5097 EQ PUSH2 0xC7 JUMPI DUP1 PUSH4 0x8DA5CB5B EQ PUSH2 0xD1 JUMPI JUMPDEST PUSH1 0x0 DUP1 REVERT JUMPDEST PUSH2 0x95 PUSH2 0x14D JUMP JUMPDEST PUSH1 0x40 MLOAD PUSH2 0xA2 SWAP2 SWAP1 PUSH2 0x1845 JUMP JUMPDEST PUSH1 0x40 MLOAD DUP1 SWAP2 SUB SWAP1 RETURN JUMPDEST PUSH2 0xC5 PUSH1 0x4 DUP1 CALLDATASIZE SUB DUP2 ADD SWAP1 PUSH2 0xC0 SWAP2 SWAP1 PUSH2 0x15D0 JUMP JUMPDEST PUSH2 0x15C JUMP JUMPDEST STOP JUMPDEST PUSH2 0xCF PUSH2 0x266 JUMP JUMPDEST STOP JUMPDEST PUSH2 0xD9 PUSH2 0x3FD JUMP JUMPDEST PUSH1 0x40 MLOAD PUSH2 0xE6 SWAP2 SWAP1 PUSH2 0x1845 JUMP JUMPDEST PUSH1 0x40 MLOAD DUP1 SWAP2 SUB SWAP1 RETURN JUMPDEST PUSH2 0xF7 PUSH2 0x427 JUMP JUMPDEST STOP JUMPDEST PUSH2 0x113 PUSH1 0x4 DUP1 CALLDATASIZE SUB DUP2 ADD SWAP1 PUSH2 0x10E SWAP2 SWAP1 PUSH2 0x1547 JUMP JUMPDEST PUSH2 0x592 JUMP JUMPDEST STOP JUMPDEST PUSH2 0x12F PUSH1 0x4 DUP1 CALLDATASIZE SUB DUP2 ADD SWAP1 PUSH2 0x12A SWAP2 SWAP1 PUSH2 0x1610 JUMP JUMPDEST PUSH2 0x677 JUMP JUMPDEST STOP JUMPDEST PUSH2 0x14B PUSH1 0x4 DUP1 CALLDATASIZE SUB DUP2 ADD SWAP1 PUSH2 0x146 SWAP2 SWAP1 PUSH2 0x151A JUMP JUMPDEST PUSH2 0x691 JUMP JUMPDEST STOP JUMPDEST PUSH1 0x0 PUSH2 0x157 PUSH2 0x6A5 JUMP JUMPDEST SWAP1 POP SWAP1 JUMP JUMPDEST DUP2 PUSH1 0x5 PUSH1 0x0 DUP3 DUP2 MSTORE PUSH1 0x20 ADD SWAP1 DUP2 MSTORE PUSH1 0x20 ADD PUSH1 0x0 KECCAK256 PUSH1 0x0 SWAP1 SLOAD SWAP1 PUSH2 0x100 EXP SWAP1 DIV PUSH20 0xFFFFFFFFFFFFFFFFFFFFFFFFFFFFFFFFFFFFFFFF AND PUSH20 0xFFFFFFFFFFFFFFFFFFFFFFFFFFFFFFFFFFFFFFFF AND CALLER PUSH20 0xFFFFFFFFFFFFFFFFFFFFFFFFFFFFFFFFFFFFFFFF AND EQ PUSH2 0x1FE JUMPI PUSH1 0x40 MLOAD PUSH32 0x8C379A000000000000000000000000000000000000000000000000000000000 DUP2 MSTORE PUSH1 0x4 ADD PUSH2 0x1F5 SWAP1 PUSH2 0x1A31 JUMP JUMPDEST PUSH1 0x40 MLOAD DUP1 SWAP2 SUB SWAP1 REVERT JUMPDEST PUSH1 0x5 PUSH1 0x0 DUP3 DUP2 MSTORE PUSH1 0x20 ADD SWAP1 DUP2 MSTORE PUSH1 0x20 ADD PUSH1 0x0 KECCAK256 PUSH1 0x0 PUSH2 0x100 EXP DUP2 SLOAD SWAP1 PUSH20 0xFFFFFFFFFFFFFFFFFFFFFFFFFFFFFFFFFFFFFFFF MUL NOT AND SWAP1 SSTORE DUP1 PUSH32 0x7CC135E0CEBB02C3480AE5D74D377283180A2601F8F644EDF7987B009316C63A PUSH1 0x40 MLOAD PUSH1 0x40 MLOAD DUP1 SWAP2 SUB SWAP1 LOG2 POP POP POP JUMP JUMPDEST PUSH1 0x7 PUSH1 0x0 SWAP1 SLOAD SWAP1 PUSH2 0x100 EXP SWAP1 DIV PUSH20 0xFFFFFFFFFFFFFFFFFFFFFFFFFFFFFFFFFFFFFFFF AND PUSH20 0xFFFFFFFFFFFFFFFFFFFFFFFFFFFFFFFFFFFFFFFF AND CALLER PUSH20 0xFFFFFFFFFFFFFFFFFFFFFFFFFFFFFFFFFFFFFFFF AND EQ PUSH2 0x2F6 JUMPI PUSH1 0x40 MLOAD PUSH32 0x8C379A000000000000000000000000000000000000000000000000000000000 DUP2 MSTORE PUSH1 0x4 ADD PUSH2 0x2ED SWAP1 PUSH2 0x1991 JUMP JUMPDEST PUSH1 0x40 MLOAD DUP1 SWAP2 SUB SWAP1 REVERT JUMPDEST PUSH1 0x0 PUSH1 0x6 PUSH1 0x0 SWAP1 SLOAD SWAP1 PUSH2 0x100 EXP SWAP1 DIV PUSH20 0xFFFFFFFFFFFFFFFFFFFFFFFFFFFFFFFFFFFFFFFF AND SWAP1 POP CALLER PUSH1 0x6 PUSH1 0x0 PUSH2 0x100 EXP DUP2 SLOAD DUP2 PUSH20 0xFFFFFFFFFFFFFFFFFFFFFFFFFFFFFFFFFFFFFFFF MUL NOT AND SWAP1 DUP4 PUSH20 0xFFFFFFFFFFFFFFFFFFFFFFFFFFFFFFFFFFFFFFFF AND MUL OR SWAP1 SSTORE POP PUSH1 0x0 PUSH1 0x7 PUSH1 0x0 PUSH2 0x100 EXP DUP2 SLOAD DUP2 PUSH20 0xFFFFFFFFFFFFFFFFFFFFFFFFFFFFFFFFFFFFFFFF MUL NOT AND SWAP1 DUP4 PUSH20 0xFFFFFFFFFFFFFFFFFFFFFFFFFFFFFFFFFFFFFFFF AND MUL OR SWAP1 SSTORE POP CALLER PUSH20 0xFFFFFFFFFFFFFFFFFFFFFFFFFFFFFFFFFFFFFFFF AND DUP2 PUSH20 0xFFFFFFFFFFFFFFFFFFFFFFFFFFFFFFFFFFFFFFFF AND PUSH32 0x8BE0079C531659141344CD1FD0A4F28419497F9722A3DAAFE3B4186F6B6457E0 PUSH1 0x40 MLOAD PUSH1 0x40 MLOAD DUP1 SWAP2 SUB SWAP1 LOG3 POP JUMP JUMPDEST PUSH1 0x0 PUSH1 0x6 PUSH1 0x0 SWAP1 SLOAD SWAP1 PUSH2 0x100 EXP SWAP1 DIV PUSH20 0xFFFFFFFFFFFFFFFFFFFFFFFFFFFFFFFFFFFFFFFF AND SWAP1 POP SWAP1 JUMP JUMPDEST PUSH2 0x42F PUSH2 0x6CF JUMP JUMPDEST PUSH1 0x0 PUSH2 0x439 PUSH2 0x6A5 JUMP JUMPDEST SWAP1 POP DUP1 PUSH20 0xFFFFFFFFFFFFFFFFFFFFFFFFFFFFFFFFFFFFFFFF AND PUSH4 0xA9059CBB CALLER DUP4 PUSH20 0xFFFFFFFFFFFFFFFFFFFFFFFFFFFFFFFFFFFFFFFF AND PUSH4 0x70A08231 ADDRESS PUSH1 0x40 MLOAD DUP3 PUSH4 0xFFFFFFFF AND PUSH1 0xE0 SHL DUP2 MSTORE PUSH1 0x4 ADD PUSH2 0x491 SWAP2 SWAP1 PUSH2 0x1845 JUMP JUMPDEST PUSH1 0x20 PUSH1 0x40 MLOAD DUP1 DUP4 SUB DUP2 DUP7 DUP1 EXTCODESIZE ISZERO DUP1 ISZERO PUSH2 0x4A9 JUMPI PUSH1 0x0 DUP1 REVERT JUMPDEST POP GAS STATICCALL ISZERO DUP1 ISZERO PUSH2 0x4BD JUMPI RETURNDATASIZE PUSH1 0x0 DUP1 RETURNDATACOPY RETURNDATASIZE PUSH1 0x0 REVERT JUMPDEST POP POP POP POP PUSH1 0x40 MLOAD RETURNDATASIZE PUSH1 0x1F NOT PUSH1 0x1F DUP3 ADD AND DUP3 ADD DUP1 PUSH1 0x40 MSTORE POP DUP2 ADD SWAP1 PUSH2 0x4E1 SWAP2 SWAP1 PUSH2 0x1677 JUMP JUMPDEST PUSH1 0x40 MLOAD DUP4 PUSH4 0xFFFFFFFF AND PUSH1 0xE0 SHL DUP2 MSTORE PUSH1 0x4 ADD PUSH2 0x4FE SWAP3 SWAP2 SWAP1 PUSH2 0x1860 JUMP JUMPDEST PUSH1 0x20 PUSH1 0x40 MLOAD DUP1 DUP4 SUB DUP2 PUSH1 0x0 DUP8 DUP1 EXTCODESIZE ISZERO DUP1 ISZERO PUSH2 0x518 JUMPI PUSH1 0x0 DUP1 REVERT JUMPDEST POP GAS CALL ISZERO DUP1 ISZERO PUSH2 0x52C JUMPI RETURNDATASIZE PUSH1 0x0 DUP1 RETURNDATACOPY RETURNDATASIZE PUSH1 0x0 REVERT JUMPDEST POP POP POP POP PUSH1 0x40 MLOAD RETURNDATASIZE PUSH1 0x1F NOT PUSH1 0x1F DUP3 ADD AND DUP3 ADD DUP1 PUSH1 0x40 MSTORE POP DUP2 ADD SWAP1 PUSH2 0x550 SWAP2 SWAP1 PUSH2 0x15A3 JUMP JUMPDEST PUSH2 0x58F JUMPI PUSH1 0x40 MLOAD PUSH32 0x8C379A000000000000000000000000000000000000000000000000000000000 DUP2 MSTORE PUSH1 0x4 ADD PUSH2 0x586 SWAP1 PUSH2 0x19F1 JUMP JUMPDEST PUSH1 0x40 MLOAD DUP1 SWAP2 SUB SWAP1 REVERT JUMPDEST POP JUMP JUMPDEST PUSH2 0x59A PUSH2 0x6CF JUMP JUMPDEST PUSH1 0x0 PUSH2 0x5B6 PUSH2 0x5A8 DUP4 PUSH2 0x761 JUMP JUMPDEST ADDRESS PUSH4 0x63382C3C PUSH1 0xE0 SHL PUSH2 0x78B JUMP JUMPDEST SWAP1 POP PUSH2 0x61A PUSH1 0x40 MLOAD DUP1 PUSH1 0x40 ADD PUSH1 0x40 MSTORE DUP1 PUSH1 0x4 DUP2 MSTORE PUSH1 0x20 ADD PUSH32 0x7573657200000000000000000000000000000000000000000000000000000000 DUP2 MSTORE POP PUSH1 0x40 MLOAD DUP1 PUSH1 0x60 ADD PUSH1 0x40 MSTORE DUP1 PUSH1 0x2A DUP2 MSTORE PUSH1 0x20 ADD PUSH2 0x21EA PUSH1 0x2A SWAP2 CODECOPY DUP4 PUSH2 0x7BC SWAP1 SWAP3 SWAP2 SWAP1 PUSH4 0xFFFFFFFF AND JUMP JUMPDEST PUSH2 0x665 PUSH1 0x40 MLOAD DUP1 PUSH1 0x40 ADD PUSH1 0x40 MSTORE DUP1 PUSH1 0x8 DUP2 MSTORE PUSH1 0x20 ADD PUSH32 0x6F726465724E756D000000000000000000000000000000000000000000000000 DUP2 MSTORE POP PUSH1 0x64 DUP4 PUSH2 0x7EF SWAP1 SWAP3 SWAP2 SWAP1 PUSH4 0xFFFFFFFF AND JUMP JUMPDEST PUSH2 0x671 DUP4 DUP3 PUSH1 0x1 PUSH2 0x822 JUMP JUMPDEST POP POP POP POP JUMP JUMPDEST PUSH2 0x67F PUSH2 0x6CF JUMP JUMPDEST PUSH2 0x68B DUP5 DUP5 DUP5 DUP5 PUSH2 0x8EE JUMP JUMPDEST POP POP POP POP JUMP JUMPDEST PUSH2 0x699 PUSH2 0x6CF JUMP JUMPDEST PUSH2 0x6A2 DUP2 PUSH2 0xA01 JUMP JUMPDEST POP JUMP JUMPDEST PUSH1 0x0 PUSH1 0x2 PUSH1 0x0 SWAP1 SLOAD SWAP1 PUSH2 0x100 EXP SWAP1 DIV PUSH20 0xFFFFFFFFFFFFFFFFFFFFFFFFFFFFFFFFFFFFFFFF AND SWAP1 POP SWAP1 JUMP JUMPDEST PUSH1 0x6 PUSH1 0x0 SWAP1 SLOAD SWAP1 PUSH2 0x100 EXP SWAP1 DIV PUSH20 0xFFFFFFFFFFFFFFFFFFFFFFFFFFFFFFFFFFFFFFFF AND PUSH20 0xFFFFFFFFFFFFFFFFFFFFFFFFFFFFFFFFFFFFFFFF AND CALLER PUSH20 0xFFFFFFFFFFFFFFFFFFFFFFFFFFFFFFFFFFFFFFFF AND EQ PUSH2 0x75F JUMPI PUSH1 0x40 MLOAD PUSH32 0x8C379A000000000000000000000000000000000000000000000000000000000 DUP2 MSTORE PUSH1 0x4 ADD PUSH2 0x756 SWAP1 PUSH2 0x19D1 JUMP JUMPDEST PUSH1 0x40 MLOAD DUP1 SWAP2 SUB SWAP1 REVERT JUMPDEST JUMP JUMPDEST PUSH1 0x0 DUP1 DUP3 SWAP1 POP PUSH1 0x0 DUP2 MLOAD EQ ISZERO PUSH2 0x77D JUMPI PUSH1 0x0 DUP1 SHL SWAP2 POP POP PUSH2 0x786 JUMP JUMPDEST PUSH1 0x20 DUP4 ADD MLOAD SWAP2 POP POP JUMPDEST SWAP2 SWAP1 POP JUMP JUMPDEST PUSH2 0x793 PUSH2 0x13A5 JUMP JUMPDEST PUSH2 0x79B PUSH2 0x13A5 JUMP JUMPDEST PUSH2 0x7B2 DUP6 DUP6 DUP6 DUP5 PUSH2 0xB30 SWAP1 SWAP4 SWAP3 SWAP2 SWAP1 PUSH4 0xFFFFFFFF AND JUMP JUMPDEST SWAP2 POP POP SWAP4 SWAP3 POP POP POP JUMP JUMPDEST PUSH2 0x7D3 DUP3 DUP5 PUSH1 0x80 ADD MLOAD PUSH2 0xBE0 SWAP1 SWAP2 SWAP1 PUSH4 0xFFFFFFFF AND JUMP JUMPDEST PUSH2 0x7EA DUP2 DUP5 PUSH1 0x80 ADD MLOAD PUSH2 0xBE0 SWAP1 SWAP2 SWAP1 PUSH4 0xFFFFFFFF AND JUMP JUMPDEST POP POP POP JUMP JUMPDEST PUSH2 0x806 DUP3 DUP5 PUSH1 0x80 ADD MLOAD PUSH2 0xBE0 SWAP1 SWAP2 SWAP1 PUSH4 0xFFFFFFFF AND JUMP JUMPDEST PUSH2 0x81D DUP2 DUP5 PUSH1 0x80 ADD MLOAD PUSH2 0xC05 SWAP1 SWAP2 SWAP1 PUSH4 0xFFFFFFFF AND JUMP JUMPDEST POP POP POP JUMP JUMPDEST PUSH1 0x0 DUP1 PUSH1 0x4 SLOAD SWAP1 POP PUSH1 0x1 DUP2 PUSH2 0x837 SWAP2 SWAP1 PUSH2 0x1AEF JUMP JUMPDEST PUSH1 0x4 DUP2 SWAP1 SSTORE POP PUSH1 0x0 PUSH4 0x40429946 PUSH1 0xE0 SHL PUSH1 0x0 DUP1 DUP8 PUSH1 0x0 ADD MLOAD ADDRESS DUP10 PUSH1 0x40 ADD MLOAD DUP8 PUSH1 0x1 DUP13 PUSH1 0x80 ADD MLOAD PUSH1 0x0 ADD MLOAD PUSH1 0x40 MLOAD PUSH1 0x24 ADD PUSH2 0x878 SWAP9 SWAP8 SWAP7 SWAP6 SWAP5 SWAP4 SWAP3 SWAP2 SWAP1 PUSH2 0x1889 JUMP JUMPDEST PUSH1 0x40 MLOAD PUSH1 0x20 DUP2 DUP4 SUB SUB DUP2 MSTORE SWAP1 PUSH1 0x40 MSTORE SWAP1 PUSH28 0xFFFFFFFFFFFFFFFFFFFFFFFFFFFFFFFFFFFFFFFFFFFFFFFFFFFFFFFF NOT AND PUSH1 0x20 DUP3 ADD DUP1 MLOAD PUSH28 0xFFFFFFFFFFFFFFFFFFFFFFFFFFFFFFFFFFFFFFFFFFFFFFFFFFFFFFFF DUP4 DUP2 DUP4 AND OR DUP4 MSTORE POP POP POP POP SWAP1 POP PUSH2 0x8E3 DUP7 DUP4 DUP7 DUP5 PUSH2 0xCB2 JUMP JUMPDEST SWAP3 POP POP POP SWAP4 SWAP3 POP POP POP JUMP JUMPDEST PUSH1 0x0 PUSH1 0x5 PUSH1 0x0 DUP7 DUP2 MSTORE PUSH1 0x20 ADD SWAP1 DUP2 MSTORE PUSH1 0x20 ADD PUSH1 0x0 KECCAK256 PUSH1 0x0 SWAP1 SLOAD SWAP1 PUSH2 0x100 EXP SWAP1 DIV PUSH20 0xFFFFFFFFFFFFFFFFFFFFFFFFFFFFFFFFFFFFFFFF AND SWAP1 POP PUSH1 0x5 PUSH1 0x0 DUP7 DUP2 MSTORE PUSH1 0x20 ADD SWAP1 DUP2 MSTORE PUSH1 0x20 ADD PUSH1 0x0 KECCAK256 PUSH1 0x0 PUSH2 0x100 EXP DUP2 SLOAD SWAP1 PUSH20 0xFFFFFFFFFFFFFFFFFFFFFFFFFFFFFFFFFFFFFFFF MUL NOT AND SWAP1 SSTORE DUP5 PUSH32 0xE1FE3AFA0F7F761FF0A8B89086790EFD5140D2907EBD5B7FF6BFCB5E075FD4C5 PUSH1 0x40 MLOAD PUSH1 0x40 MLOAD DUP1 SWAP2 SUB SWAP1 LOG2 DUP1 PUSH20 0xFFFFFFFFFFFFFFFFFFFFFFFFFFFFFFFFFFFFFFFF AND PUSH4 0x6EE4D553 DUP7 DUP7 DUP7 DUP7 PUSH1 0x40 MLOAD DUP6 PUSH4 0xFFFFFFFF AND PUSH1 0xE0 SHL DUP2 MSTORE PUSH1 0x4 ADD PUSH2 0x9C8 SWAP5 SWAP4 SWAP3 SWAP2 SWAP1 PUSH2 0x194C JUMP JUMPDEST PUSH1 0x0 PUSH1 0x40 MLOAD DUP1 DUP4 SUB DUP2 PUSH1 0x0 DUP8 DUP1 EXTCODESIZE ISZERO DUP1 ISZERO PUSH2 0x9E2 JUMPI PUSH1 0x0 DUP1 REVERT JUMPDEST POP GAS CALL ISZERO DUP1 ISZERO PUSH2 0x9F6 JUMPI RETURNDATASIZE PUSH1 0x0 DUP1 RETURNDATACOPY RETURNDATASIZE PUSH1 0x0 REVERT JUMPDEST POP POP POP POP POP POP POP POP POP JUMP JUMPDEST CALLER PUSH20 0xFFFFFFFFFFFFFFFFFFFFFFFFFFFFFFFFFFFFFFFF AND DUP2 PUSH20 0xFFFFFFFFFFFFFFFFFFFFFFFFFFFFFFFFFFFFFFFF AND EQ ISZERO PUSH2 0xA70 JUMPI PUSH1 0x40 MLOAD PUSH32 0x8C379A000000000000000000000000000000000000000000000000000000000 DUP2 MSTORE PUSH1 0x4 ADD PUSH2 0xA67 SWAP1 PUSH2 0x1A11 JUMP JUMPDEST PUSH1 0x40 MLOAD DUP1 SWAP2 SUB SWAP1 REVERT JUMPDEST DUP1 PUSH1 0x7 PUSH1 0x0 PUSH2 0x100 EXP DUP2 SLOAD DUP2 PUSH20 0xFFFFFFFFFFFFFFFFFFFFFFFFFFFFFFFFFFFFFFFF MUL NOT AND SWAP1 DUP4 PUSH20 0xFFFFFFFFFFFFFFFFFFFFFFFFFFFFFFFFFFFFFFFF AND MUL OR SWAP1 SSTORE POP DUP1 PUSH20 0xFFFFFFFFFFFFFFFFFFFFFFFFFFFFFFFFFFFFFFFF AND PUSH1 0x6 PUSH1 0x0 SWAP1 SLOAD SWAP1 PUSH2 0x100 EXP SWAP1 DIV PUSH20 0xFFFFFFFFFFFFFFFFFFFFFFFFFFFFFFFFFFFFFFFF AND PUSH20 0xFFFFFFFFFFFFFFFFFFFFFFFFFFFFFFFFFFFFFFFF AND PUSH32 0xED8889F560326EB138920D842192F0EB3DD22B4F139C87A2C57538E05BAE1278 PUSH1 0x40 MLOAD PUSH1 0x40 MLOAD DUP1 SWAP2 SUB SWAP1 LOG3 POP JUMP JUMPDEST PUSH2 0xB38 PUSH2 0x13A5 JUMP JUMPDEST PUSH2 0xB48 DUP6 PUSH1 0x80 ADD MLOAD PUSH2 0x100 PUSH2 0xE56 JUMP JUMPDEST POP DUP4 DUP6 PUSH1 0x0 ADD DUP2 DUP2 MSTORE POP POP DUP3 DUP6 PUSH1 0x20 ADD SWAP1 PUSH20 0xFFFFFFFFFFFFFFFFFFFFFFFFFFFFFFFFFFFFFFFF AND SWAP1 DUP2 PUSH20 0xFFFFFFFFFFFFFFFFFFFFFFFFFFFFFFFFFFFFFFFF AND DUP2 MSTORE POP POP DUP2 DUP6 PUSH1 0x40 ADD SWAP1 PUSH28 0xFFFFFFFFFFFFFFFFFFFFFFFFFFFFFFFFFFFFFFFFFFFFFFFFFFFFFFFF NOT AND SWAP1 DUP2 PUSH28 0xFFFFFFFFFFFFFFFFFFFFFFFFFFFFFFFFFFFFFFFFFFFFFFFFFFFFFFFF NOT AND DUP2 MSTORE POP POP DUP5 SWAP1 POP SWAP5 SWAP4 POP POP POP POP JUMP JUMPDEST PUSH2 0xBED DUP3 PUSH1 0x3 DUP4 MLOAD PUSH2 0xEC0 JUMP JUMPDEST PUSH2 0xC00 DUP2 DUP4 PUSH2 0x1045 SWAP1 SWAP2 SWAP1 PUSH4 0xFFFFFFFF AND JUMP JUMPDEST POP POP POP JUMP JUMPDEST PUSH32 0xFFFFFFFFFFFFFFFFFFFFFFFFFFFFFFFFFFFFFFFFFFFFFFFF0000000000000000 DUP2 SLT ISZERO PUSH2 0xC3C JUMPI PUSH2 0xC37 DUP3 DUP3 PUSH2 0x1067 JUMP JUMPDEST PUSH2 0xCAE JUMP JUMPDEST PUSH8 0xFFFFFFFFFFFFFFFF DUP2 SGT ISZERO PUSH2 0xC5B JUMPI PUSH2 0xC56 DUP3 DUP3 PUSH2 0x10DE JUMP JUMPDEST PUSH2 0xCAD JUMP JUMPDEST PUSH1 0x0 DUP2 SLT PUSH2 0xC74 JUMPI PUSH2 0xC6F DUP3 PUSH1 0x0 DUP4 PUSH2 0xEC0 JUMP JUMPDEST PUSH2 0xCAC JUMP JUMPDEST PUSH2 0xCAB DUP3 PUSH1 0x1 DUP4 PUSH32 0xFFFFFFFFFFFFFFFFFFFFFFFFFFFFFFFFFFFFFFFFFFFFFFFFFFFFFFFFFFFFFFFF PUSH2 0xCA6 SWAP2 SWAP1 PUSH2 0x1D10 JUMP JUMPDEST PUSH2 0xEC0 JUMP JUMPDEST JUMPDEST JUMPDEST JUMPDEST POP POP JUMP JUMPDEST PUSH1 0x0 ADDRESS DUP5 PUSH1 0x40 MLOAD PUSH1 0x20 ADD PUSH2 0xCC7 SWAP3 SWAP2 SWAP1 PUSH2 0x1819 JUMP JUMPDEST PUSH1 0x40 MLOAD PUSH1 0x20 DUP2 DUP4 SUB SUB DUP2 MSTORE SWAP1 PUSH1 0x40 MSTORE DUP1 MLOAD SWAP1 PUSH1 0x20 ADD KECCAK256 SWAP1 POP DUP5 PUSH1 0x5 PUSH1 0x0 DUP4 DUP2 MSTORE PUSH1 0x20 ADD SWAP1 DUP2 MSTORE PUSH1 0x20 ADD PUSH1 0x0 KECCAK256 PUSH1 0x0 PUSH2 0x100 EXP DUP2 SLOAD DUP2 PUSH20 0xFFFFFFFFFFFFFFFFFFFFFFFFFFFFFFFFFFFFFFFF MUL NOT AND SWAP1 DUP4 PUSH20 0xFFFFFFFFFFFFFFFFFFFFFFFFFFFFFFFFFFFFFFFF AND MUL OR SWAP1 SSTORE POP DUP1 PUSH32 0xB5E6E01E79F91267DC17B4E6314D5D4D03593D2CEEE0FBB452B750BD70EA5AF9 PUSH1 0x40 MLOAD PUSH1 0x40 MLOAD DUP1 SWAP2 SUB SWAP1 LOG2 PUSH1 0x2 PUSH1 0x0 SWAP1 SLOAD SWAP1 PUSH2 0x100 EXP SWAP1 DIV PUSH20 0xFFFFFFFFFFFFFFFFFFFFFFFFFFFFFFFFFFFFFFFF AND PUSH20 0xFFFFFFFFFFFFFFFFFFFFFFFFFFFFFFFFFFFFFFFF AND PUSH4 0x4000AEA0 DUP7 DUP6 DUP6 PUSH1 0x40 MLOAD DUP5 PUSH4 0xFFFFFFFF AND PUSH1 0xE0 SHL DUP2 MSTORE PUSH1 0x4 ADD PUSH2 0xDBD SWAP4 SWAP3 SWAP2 SWAP1 PUSH2 0x190E JUMP JUMPDEST PUSH1 0x20 PUSH1 0x40 MLOAD DUP1 DUP4 SUB DUP2 PUSH1 0x0 DUP8 DUP1 EXTCODESIZE ISZERO DUP1 ISZERO PUSH2 0xDD7 JUMPI PUSH1 0x0 DUP1 REVERT JUMPDEST POP GAS CALL ISZERO DUP1 ISZERO PUSH2 0xDEB JUMPI RETURNDATASIZE PUSH1 0x0 DUP1 RETURNDATACOPY RETURNDATASIZE PUSH1 0x0 REVERT JUMPDEST POP POP POP POP PUSH1 0x40 MLOAD RETURNDATASIZE PUSH1 0x1F NOT PUSH1 0x1F DUP3 ADD AND DUP3 ADD DUP1 PUSH1 0x40 MSTORE POP DUP2 ADD SWAP1 PUSH2 0xE0F SWAP2 SWAP1 PUSH2 0x15A3 JUMP JUMPDEST PUSH2 0xE4E JUMPI PUSH1 0x40 MLOAD PUSH32 0x8C379A000000000000000000000000000000000000000000000000000000000 DUP2 MSTORE PUSH1 0x4 ADD PUSH2 0xE45 SWAP1 PUSH2 0x19B1 JUMP JUMPDEST PUSH1 0x40 MLOAD DUP1 SWAP2 SUB SWAP1 REVERT JUMPDEST SWAP5 SWAP4 POP POP POP POP JUMP JUMPDEST PUSH2 0xE5E PUSH2 0x1412 JUMP JUMPDEST PUSH1 0x0 PUSH1 0x20 DUP4 PUSH2 0xE6D SWAP2 SWAP1 PUSH2 0x1F37 JUMP JUMPDEST EQ PUSH2 0xE99 JUMPI PUSH1 0x20 DUP3 PUSH2 0xE7F SWAP2 SWAP1 PUSH2 0x1F37 JUMP JUMPDEST PUSH1 0x20 PUSH2 0xE8B SWAP2 SWAP1 PUSH2 0x1DA4 JUMP JUMPDEST DUP3 PUSH2 0xE96 SWAP2 SWAP1 PUSH2 0x1AEF JUMP JUMPDEST SWAP2 POP JUMPDEST DUP2 DUP4 PUSH1 0x20 ADD DUP2 DUP2 MSTORE POP POP PUSH1 0x40 MLOAD DUP1 DUP5 MSTORE PUSH1 0x0 DUP2 MSTORE DUP3 DUP2 ADD PUSH1 0x20 ADD PUSH1 0x40 MSTORE POP DUP3 SWAP1 POP SWAP3 SWAP2 POP POP JUMP JUMPDEST PUSH1 0x17 DUP2 PUSH8 0xFFFFFFFFFFFFFFFF AND GT PUSH2 0xEF7 JUMPI PUSH2 0xEF1 DUP2 PUSH1 0x5 DUP5 PUSH1 0xFF AND SWAP1 SHL PUSH1 0xFF AND OR DUP5 PUSH2 0x112A SWAP1 SWAP2 SWAP1 PUSH4 0xFFFFFFFF AND JUMP JUMPDEST POP PUSH2 0x1040 JUMP JUMPDEST PUSH1 0xFF DUP2 PUSH8 0xFFFFFFFFFFFFFFFF AND GT PUSH2 0xF4D JUMPI PUSH2 0xF26 PUSH1 0x18 PUSH1 0x5 DUP5 PUSH1 0xFF AND SWAP1 SHL OR DUP5 PUSH2 0x112A SWAP1 SWAP2 SWAP1 PUSH4 0xFFFFFFFF AND JUMP JUMPDEST POP PUSH2 0xF47 DUP2 PUSH8 0xFFFFFFFFFFFFFFFF AND PUSH1 0x1 DUP6 PUSH2 0x114A SWAP1 SWAP3 SWAP2 SWAP1 PUSH4 0xFFFFFFFF AND JUMP JUMPDEST POP PUSH2 0x103F JUMP JUMPDEST PUSH2 0xFFFF DUP2 PUSH8 0xFFFFFFFFFFFFFFFF AND GT PUSH2 0xFA4 JUMPI PUSH2 0xF7D PUSH1 0x19 PUSH1 0x5 DUP5 PUSH1 0xFF AND SWAP1 SHL OR DUP5 PUSH2 0x112A SWAP1 SWAP2 SWAP1 PUSH4 0xFFFFFFFF AND JUMP JUMPDEST POP PUSH2 0xF9E DUP2 PUSH8 0xFFFFFFFFFFFFFFFF AND PUSH1 0x2 DUP6 PUSH2 0x114A SWAP1 SWAP3 SWAP2 SWAP1 PUSH4 0xFFFFFFFF AND JUMP JUMPDEST POP PUSH2 0x103E JUMP JUMPDEST PUSH4 0xFFFFFFFF DUP2 PUSH8 0xFFFFFFFFFFFFFFFF AND GT PUSH2 0xFFD JUMPI PUSH2 0xFD6 PUSH1 0x1A PUSH1 0x5 DUP5 PUSH1 0xFF AND SWAP1 SHL OR DUP5 PUSH2 0x112A SWAP1 SWAP2 SWAP1 PUSH4 0xFFFFFFFF AND JUMP JUMPDEST POP PUSH2 0xFF7 DUP2 PUSH8 0xFFFFFFFFFFFFFFFF AND PUSH1 0x4 DUP6 PUSH2 0x114A SWAP1 SWAP3 SWAP2 SWAP1 PUSH4 0xFFFFFFFF AND JUMP JUMPDEST POP PUSH2 0x103D JUMP JUMPDEST PUSH2 0x101A PUSH1 0x1B PUSH1 0x5 DUP5 PUSH1 0xFF AND SWAP1 SHL OR DUP5 PUSH2 0x112A SWAP1 SWAP2 SWAP1 PUSH4 0xFFFFFFFF AND JUMP JUMPDEST POP PUSH2 0x103B DUP2 PUSH8 0xFFFFFFFFFFFFFFFF AND PUSH1 0x8 DUP6 PUSH2 0x114A SWAP1 SWAP3 SWAP2 SWAP1 PUSH4 0xFFFFFFFF AND JUMP JUMPDEST POP JUMPDEST JUMPDEST JUMPDEST JUMPDEST POP POP POP JUMP JUMPDEST PUSH2 0x104D PUSH2 0x1412 JUMP JUMPDEST PUSH2 0x105F DUP4 DUP5 PUSH1 0x0 ADD MLOAD MLOAD DUP5 DUP6 MLOAD PUSH2 0x116C JUMP JUMPDEST SWAP1 POP SWAP3 SWAP2 POP POP JUMP JUMPDEST PUSH2 0x1085 PUSH1 0x3 PUSH1 0x5 PUSH1 0x6 PUSH1 0xFF AND SWAP1 SHL OR DUP4 PUSH2 0x112A SWAP1 SWAP2 SWAP1 PUSH4 0xFFFFFFFF AND JUMP JUMPDEST POP PUSH2 0x10DA DUP3 DUP3 PUSH32 0xFFFFFFFFFFFFFFFFFFFFFFFFFFFFFFFFFFFFFFFFFFFFFFFFFFFFFFFFFFFFFFFF PUSH2 0x10B6 SWAP2 SWAP1 PUSH2 0x1D10 JUMP JUMPDEST PUSH1 0x40 MLOAD PUSH1 0x20 ADD PUSH2 0x10C6 SWAP2 SWAP1 PUSH2 0x1A51 JUMP JUMPDEST PUSH1 0x40 MLOAD PUSH1 0x20 DUP2 DUP4 SUB SUB DUP2 MSTORE SWAP1 PUSH1 0x40 MSTORE PUSH2 0x125B JUMP JUMPDEST POP POP JUMP JUMPDEST PUSH2 0x10FC PUSH1 0x2 PUSH1 0x5 PUSH1 0x6 PUSH1 0xFF AND SWAP1 SHL OR DUP4 PUSH2 0x112A SWAP1 SWAP2 SWAP1 PUSH4 0xFFFFFFFF AND JUMP JUMPDEST POP PUSH2 0x1126 DUP3 DUP3 PUSH1 0x40 MLOAD PUSH1 0x20 ADD PUSH2 0x1112 SWAP2 SWAP1 PUSH2 0x1A51 JUMP JUMPDEST PUSH1 0x40 MLOAD PUSH1 0x20 DUP2 DUP4 SUB SUB DUP2 MSTORE SWAP1 PUSH1 0x40 MSTORE PUSH2 0x125B JUMP JUMPDEST POP POP JUMP JUMPDEST PUSH2 0x1132 PUSH2 0x1412 JUMP JUMPDEST PUSH2 0x1142 DUP4 DUP5 PUSH1 0x0 ADD MLOAD MLOAD DUP5 PUSH2 0x1280 JUMP JUMPDEST SWAP1 POP SWAP3 SWAP2 POP POP JUMP JUMPDEST PUSH2 0x1152 PUSH2 0x1412 JUMP JUMPDEST PUSH2 0x1163 DUP5 DUP6 PUSH1 0x0 ADD MLOAD MLOAD DUP6 DUP6 PUSH2 0x12D7 JUMP JUMPDEST SWAP1 POP SWAP4 SWAP3 POP POP POP JUMP JUMPDEST PUSH2 0x1174 PUSH2 0x1412 JUMP JUMPDEST DUP3 MLOAD DUP3 GT ISZERO PUSH2 0x1182 JUMPI PUSH1 0x0 DUP1 REVERT JUMPDEST DUP5 PUSH1 0x20 ADD MLOAD DUP3 DUP6 PUSH2 0x1193 SWAP2 SWAP1 PUSH2 0x1AEF JUMP JUMPDEST GT ISZERO PUSH2 0x11C8 JUMPI PUSH2 0x11C7 DUP6 PUSH1 0x2 PUSH2 0x11B8 DUP9 PUSH1 0x20 ADD MLOAD DUP9 DUP8 PUSH2 0x11B3 SWAP2 SWAP1 PUSH2 0x1AEF JUMP JUMPDEST PUSH2 0x1365 JUMP JUMPDEST PUSH2 0x11C2 SWAP2 SWAP1 PUSH2 0x1CB6 JUMP JUMPDEST PUSH2 0x1381 JUMP JUMPDEST JUMPDEST PUSH1 0x0 DUP1 DUP7 MLOAD DUP1 MLOAD DUP8 PUSH1 0x20 DUP4 ADD ADD SWAP4 POP DUP1 DUP9 DUP8 ADD GT ISZERO PUSH2 0x11E7 JUMPI DUP8 DUP7 ADD DUP3 MSTORE JUMPDEST PUSH1 0x20 DUP8 ADD SWAP3 POP POP POP JUMPDEST PUSH1 0x20 DUP5 LT PUSH2 0x122E JUMPI DUP1 MLOAD DUP3 MSTORE PUSH1 0x20 DUP3 PUSH2 0x1209 SWAP2 SWAP1 PUSH2 0x1AEF JUMP JUMPDEST SWAP2 POP PUSH1 0x20 DUP2 PUSH2 0x1218 SWAP2 SWAP1 PUSH2 0x1AEF JUMP JUMPDEST SWAP1 POP PUSH1 0x20 DUP5 PUSH2 0x1227 SWAP2 SWAP1 PUSH2 0x1DA4 JUMP JUMPDEST SWAP4 POP PUSH2 0x11F0 JUMP JUMPDEST PUSH1 0x0 PUSH1 0x1 DUP6 PUSH1 0x20 SUB PUSH2 0x100 EXP SUB SWAP1 POP DUP1 NOT DUP3 MLOAD AND DUP2 DUP5 MLOAD AND DUP2 DUP2 OR DUP6 MSTORE POP POP POP DUP7 SWAP3 POP POP POP SWAP5 SWAP4 POP POP POP POP JUMP JUMPDEST PUSH2 0x1268 DUP3 PUSH1 0x2 DUP4 MLOAD PUSH2 0xEC0 JUMP JUMPDEST PUSH2 0x127B DUP2 DUP4 PUSH2 0x1045 SWAP1 SWAP2 SWAP1 PUSH4 0xFFFFFFFF AND JUMP JUMPDEST POP POP POP JUMP JUMPDEST PUSH2 0x1288 PUSH2 0x1412 JUMP JUMPDEST DUP4 PUSH1 0x20 ADD MLOAD DUP4 LT PUSH2 0x12AE JUMPI PUSH2 0x12AD DUP5 PUSH1 0x2 DUP7 PUSH1 0x20 ADD MLOAD PUSH2 0x12A8 SWAP2 SWAP1 PUSH2 0x1CB6 JUMP JUMPDEST PUSH2 0x1381 JUMP JUMPDEST JUMPDEST DUP4 MLOAD DUP1 MLOAD PUSH1 0x20 DUP6 DUP4 ADD ADD DUP5 DUP2 MSTORE8 DUP2 DUP7 EQ ISZERO PUSH2 0x12CA JUMPI PUSH1 0x1 DUP3 ADD DUP4 MSTORE JUMPDEST POP POP POP DUP4 SWAP1 POP SWAP4 SWAP3 POP POP POP JUMP JUMPDEST PUSH2 0x12DF PUSH2 0x1412 JUMP JUMPDEST DUP5 PUSH1 0x20 ADD MLOAD DUP5 DUP4 PUSH2 0x12F0 SWAP2 SWAP1 PUSH2 0x1AEF JUMP JUMPDEST GT ISZERO PUSH2 0x1318 JUMPI PUSH2 0x1317 DUP6 PUSH1 0x2 DUP7 DUP6 PUSH2 0x1308 SWAP2 SWAP1 PUSH2 0x1AEF JUMP JUMPDEST PUSH2 0x1312 SWAP2 SWAP1 PUSH2 0x1CB6 JUMP JUMPDEST PUSH2 0x1381 JUMP JUMPDEST JUMPDEST PUSH1 0x0 PUSH1 0x1 DUP4 PUSH2 0x100 PUSH2 0x132A SWAP2 SWAP1 PUSH2 0x1B98 JUMP JUMPDEST PUSH2 0x1334 SWAP2 SWAP1 PUSH2 0x1DA4 JUMP JUMPDEST SWAP1 POP DUP6 MLOAD DUP4 DUP7 DUP3 ADD ADD DUP6 DUP4 NOT DUP3 MLOAD AND OR DUP2 MSTORE DUP2 MLOAD DUP6 DUP9 ADD GT ISZERO PUSH2 0x1357 JUMPI DUP5 DUP8 ADD DUP3 MSTORE JUMPDEST POP POP DUP6 SWAP2 POP POP SWAP5 SWAP4 POP POP POP POP JUMP JUMPDEST PUSH1 0x0 DUP2 DUP4 GT ISZERO PUSH2 0x1377 JUMPI DUP3 SWAP1 POP PUSH2 0x137B JUMP JUMPDEST DUP2 SWAP1 POP JUMPDEST SWAP3 SWAP2 POP POP JUMP JUMPDEST PUSH1 0x0 DUP3 PUSH1 0x0 ADD MLOAD SWAP1 POP PUSH2 0x1394 DUP4 DUP4 PUSH2 0xE56 JUMP JUMPDEST POP PUSH2 0x139F DUP4 DUP3 PUSH2 0x1045 JUMP JUMPDEST POP POP POP POP JUMP JUMPDEST PUSH1 0x40 MLOAD DUP1 PUSH1 0xA0 ADD PUSH1 0x40 MSTORE DUP1 PUSH1 0x0 DUP1 NOT AND DUP2 MSTORE PUSH1 0x20 ADD PUSH1 0x0 PUSH20 0xFFFFFFFFFFFFFFFFFFFFFFFFFFFFFFFFFFFFFFFF AND DUP2 MSTORE PUSH1 0x20 ADD PUSH1 0x0 PUSH28 0xFFFFFFFFFFFFFFFFFFFFFFFFFFFFFFFFFFFFFFFFFFFFFFFFFFFFFFFF NOT AND DUP2 MSTORE PUSH1 0x20 ADD PUSH1 0x0 DUP2 MSTORE PUSH1 0x20 ADD PUSH2 0x140C PUSH2 0x1412 JUMP JUMPDEST DUP2 MSTORE POP SWAP1 JUMP JUMPDEST PUSH1 0x40 MLOAD DUP1 PUSH1 0x40 ADD PUSH1 0x40 MSTORE DUP1 PUSH1 0x60 DUP2 MSTORE PUSH1 0x20 ADD PUSH1 0x0 DUP2 MSTORE POP SWAP1 JUMP JUMPDEST PUSH1 0x0 PUSH2 0x143F PUSH2 0x143A DUP5 PUSH2 0x1A91 JUMP JUMPDEST PUSH2 0x1A6C JUMP JUMPDEST SWAP1 POP DUP3 DUP2 MSTORE PUSH1 0x20 DUP2 ADD DUP5 DUP5 DUP5 ADD GT ISZERO PUSH2 0x145B JUMPI PUSH2 0x145A PUSH2 0x1FFA JUMP JUMPDEST JUMPDEST PUSH2 0x1466 DUP5 DUP3 DUP6 PUSH2 0x1E96 JUMP JUMPDEST POP SWAP4 SWAP3 POP POP POP JUMP JUMPDEST PUSH1 0x0 DUP2 CALLDATALOAD SWAP1 POP PUSH2 0x147D DUP2 PUSH2 0x2176 JUMP JUMPDEST SWAP3 SWAP2 POP POP JUMP JUMPDEST PUSH1 0x0 DUP2 MLOAD SWAP1 POP PUSH2 0x1492 DUP2 PUSH2 0x218D JUMP JUMPDEST SWAP3 SWAP2 POP POP JUMP JUMPDEST PUSH1 0x0 DUP2 CALLDATALOAD SWAP1 POP PUSH2 0x14A7 DUP2 PUSH2 0x21A4 JUMP JUMPDEST SWAP3 SWAP2 POP POP JUMP JUMPDEST PUSH1 0x0 DUP2 CALLDATALOAD SWAP1 POP PUSH2 0x14BC DUP2 PUSH2 0x21BB JUMP JUMPDEST SWAP3 SWAP2 POP POP JUMP JUMPDEST PUSH1 0x0 DUP3 PUSH1 0x1F DUP4 ADD SLT PUSH2 0x14D7 JUMPI PUSH2 0x14D6 PUSH2 0x1FF5 JUMP JUMPDEST JUMPDEST DUP2 CALLDATALOAD PUSH2 0x14E7 DUP5 DUP3 PUSH1 0x20 DUP7 ADD PUSH2 0x142C JUMP JUMPDEST SWAP2 POP POP SWAP3 SWAP2 POP POP JUMP JUMPDEST PUSH1 0x0 DUP2 CALLDATALOAD SWAP1 POP PUSH2 0x14FF DUP2 PUSH2 0x21D2 JUMP JUMPDEST SWAP3 SWAP2 POP POP JUMP JUMPDEST PUSH1 0x0 DUP2 MLOAD SWAP1 POP PUSH2 0x1514 DUP2 PUSH2 0x21D2 JUMP JUMPDEST SWAP3 SWAP2 POP POP JUMP JUMPDEST PUSH1 0x0 PUSH1 0x20 DUP3 DUP5 SUB SLT ISZERO PUSH2 0x1530 JUMPI PUSH2 0x152F PUSH2 0x2004 JUMP JUMPDEST JUMPDEST PUSH1 0x0 PUSH2 0x153E DUP5 DUP3 DUP6 ADD PUSH2 0x146E JUMP JUMPDEST SWAP2 POP POP SWAP3 SWAP2 POP POP JUMP JUMPDEST PUSH1 0x0 DUP1 PUSH1 0x40 DUP4 DUP6 SUB SLT ISZERO PUSH2 0x155E JUMPI PUSH2 0x155D PUSH2 0x2004 JUMP JUMPDEST JUMPDEST PUSH1 0x0 PUSH2 0x156C DUP6 DUP3 DUP7 ADD PUSH2 0x146E JUMP JUMPDEST SWAP3 POP POP PUSH1 0x20 DUP4 ADD CALLDATALOAD PUSH8 0xFFFFFFFFFFFFFFFF DUP2 GT ISZERO PUSH2 0x158D JUMPI PUSH2 0x158C PUSH2 0x1FFF JUMP JUMPDEST JUMPDEST PUSH2 0x1599 DUP6 DUP3 DUP7 ADD PUSH2 0x14C2 JUMP JUMPDEST SWAP2 POP POP SWAP3 POP SWAP3 SWAP1 POP JUMP JUMPDEST PUSH1 0x0 PUSH1 0x20 DUP3 DUP5 SUB SLT ISZERO PUSH2 0x15B9 JUMPI PUSH2 0x15B8 PUSH2 0x2004 JUMP JUMPDEST JUMPDEST PUSH1 0x0 PUSH2 0x15C7 DUP5 DUP3 DUP6 ADD PUSH2 0x1483 JUMP JUMPDEST SWAP2 POP POP SWAP3 SWAP2 POP POP JUMP JUMPDEST PUSH1 0x0 DUP1 PUSH1 0x40 DUP4 DUP6 SUB SLT ISZERO PUSH2 0x15E7 JUMPI PUSH2 0x15E6 PUSH2 0x2004 JUMP JUMPDEST JUMPDEST PUSH1 0x0 PUSH2 0x15F5 DUP6 DUP3 DUP7 ADD PUSH2 0x1498 JUMP JUMPDEST SWAP3 POP POP PUSH1 0x20 PUSH2 0x1606 DUP6 DUP3 DUP7 ADD PUSH2 0x1498 JUMP JUMPDEST SWAP2 POP POP SWAP3 POP SWAP3 SWAP1 POP JUMP JUMPDEST PUSH1 0x0 DUP1 PUSH1 0x0 DUP1 PUSH1 0x80 DUP6 DUP8 SUB SLT ISZERO PUSH2 0x162A JUMPI PUSH2 0x1629 PUSH2 0x2004 JUMP JUMPDEST JUMPDEST PUSH1 0x0 PUSH2 0x1638 DUP8 DUP3 DUP9 ADD PUSH2 0x1498 JUMP JUMPDEST SWAP5 POP POP PUSH1 0x20 PUSH2 0x1649 DUP8 DUP3 DUP9 ADD PUSH2 0x14F0 JUMP JUMPDEST SWAP4 POP POP PUSH1 0x40 PUSH2 0x165A DUP8 DUP3 DUP9 ADD PUSH2 0x14AD JUMP JUMPDEST SWAP3 POP POP PUSH1 0x60 PUSH2 0x166B DUP8 DUP3 DUP9 ADD PUSH2 0x14F0 JUMP JUMPDEST SWAP2 POP POP SWAP3 SWAP6 SWAP2 SWAP5 POP SWAP3 POP JUMP JUMPDEST PUSH1 0x0 PUSH1 0x20 DUP3 DUP5 SUB SLT ISZERO PUSH2 0x168D JUMPI PUSH2 0x168C PUSH2 0x2004 JUMP JUMPDEST JUMPDEST PUSH1 0x0 PUSH2 0x169B DUP5 DUP3 DUP6 ADD PUSH2 0x1505 JUMP JUMPDEST SWAP2 POP POP SWAP3 SWAP2 POP POP JUMP JUMPDEST PUSH2 0x16AD DUP2 PUSH2 0x1DD8 JUMP JUMPDEST DUP3 MSTORE POP POP JUMP JUMPDEST PUSH2 0x16BC DUP2 PUSH2 0x1DF6 JUMP JUMPDEST DUP3 MSTORE POP POP JUMP JUMPDEST PUSH2 0x16CB DUP2 PUSH2 0x1E00 JUMP JUMPDEST DUP3 MSTORE POP POP JUMP JUMPDEST PUSH1 0x0 PUSH2 0x16DC DUP3 PUSH2 0x1AC2 JUMP JUMPDEST PUSH2 0x16E6 DUP2 DUP6 PUSH2 0x1ACD JUMP JUMPDEST SWAP4 POP PUSH2 0x16F6 DUP2 DUP6 PUSH1 0x20 DUP7 ADD PUSH2 0x1EA5 JUMP JUMPDEST PUSH2 0x16FF DUP2 PUSH2 0x2009 JUMP JUMPDEST DUP5 ADD SWAP2 POP POP SWAP3 SWAP2 POP POP JUMP JUMPDEST PUSH2 0x171B PUSH2 0x1716 DUP3 PUSH2 0x1E60 JUMP JUMPDEST PUSH2 0x1F09 JUMP JUMPDEST DUP3 MSTORE POP POP JUMP JUMPDEST PUSH1 0x0 PUSH2 0x172E PUSH1 0x16 DUP4 PUSH2 0x1ADE JUMP JUMPDEST SWAP2 POP PUSH2 0x1739 DUP3 PUSH2 0x2034 JUMP JUMPDEST PUSH1 0x20 DUP3 ADD SWAP1 POP SWAP2 SWAP1 POP JUMP JUMPDEST PUSH1 0x0 PUSH2 0x1751 PUSH1 0x23 DUP4 PUSH2 0x1ADE JUMP JUMPDEST SWAP2 POP PUSH2 0x175C DUP3 PUSH2 0x205D JUMP JUMPDEST PUSH1 0x40 DUP3 ADD SWAP1 POP SWAP2 SWAP1 POP JUMP JUMPDEST PUSH1 0x0 PUSH2 0x1774 PUSH1 0x16 DUP4 PUSH2 0x1ADE JUMP JUMPDEST SWAP2 POP PUSH2 0x177F DUP3 PUSH2 0x20AC JUMP JUMPDEST PUSH1 0x20 DUP3 ADD SWAP1 POP SWAP2 SWAP1 POP JUMP JUMPDEST PUSH1 0x0 PUSH2 0x1797 PUSH1 0x12 DUP4 PUSH2 0x1ADE JUMP JUMPDEST SWAP2 POP PUSH2 0x17A2 DUP3 PUSH2 0x20D5 JUMP JUMPDEST PUSH1 0x20 DUP3 ADD SWAP1 POP SWAP2 SWAP1 POP JUMP JUMPDEST PUSH1 0x0 PUSH2 0x17BA PUSH1 0x17 DUP4 PUSH2 0x1ADE JUMP JUMPDEST SWAP2 POP PUSH2 0x17C5 DUP3 PUSH2 0x20FE JUMP JUMPDEST PUSH1 0x20 DUP3 ADD SWAP1 POP SWAP2 SWAP1 POP JUMP JUMPDEST PUSH1 0x0 PUSH2 0x17DD PUSH1 0x28 DUP4 PUSH2 0x1ADE JUMP JUMPDEST SWAP2 POP PUSH2 0x17E8 DUP3 PUSH2 0x2127 JUMP JUMPDEST PUSH1 0x40 DUP3 ADD SWAP1 POP SWAP2 SWAP1 POP JUMP JUMPDEST PUSH2 0x17FC DUP2 PUSH2 0x1E56 JUMP JUMPDEST DUP3 MSTORE POP POP JUMP JUMPDEST PUSH2 0x1813 PUSH2 0x180E DUP3 PUSH2 0x1E56 JUMP JUMPDEST PUSH2 0x1F2D JUMP JUMPDEST DUP3 MSTORE POP POP JUMP JUMPDEST PUSH1 0x0 PUSH2 0x1825 DUP3 DUP6 PUSH2 0x170A JUMP JUMPDEST PUSH1 0x14 DUP3 ADD SWAP2 POP PUSH2 0x1835 DUP3 DUP5 PUSH2 0x1802 JUMP JUMPDEST PUSH1 0x20 DUP3 ADD SWAP2 POP DUP2 SWAP1 POP SWAP4 SWAP3 POP POP POP JUMP JUMPDEST PUSH1 0x0 PUSH1 0x20 DUP3 ADD SWAP1 POP PUSH2 0x185A PUSH1 0x0 DUP4 ADD DUP5 PUSH2 0x16A4 JUMP JUMPDEST SWAP3 SWAP2 POP POP JUMP JUMPDEST PUSH1 0x0 PUSH1 0x40 DUP3 ADD SWAP1 POP PUSH2 0x1875 PUSH1 0x0 DUP4 ADD DUP6 PUSH2 0x16A4 JUMP JUMPDEST PUSH2 0x1882 PUSH1 0x20 DUP4 ADD DUP5 PUSH2 0x17F3 JUMP JUMPDEST SWAP4 SWAP3 POP POP POP JUMP JUMPDEST PUSH1 0x0 PUSH2 0x100 DUP3 ADD SWAP1 POP PUSH2 0x189F PUSH1 0x0 DUP4 ADD DUP12 PUSH2 0x16A4 JUMP JUMPDEST PUSH2 0x18AC PUSH1 0x20 DUP4 ADD DUP11 PUSH2 0x17F3 JUMP JUMPDEST PUSH2 0x18B9 PUSH1 0x40 DUP4 ADD DUP10 PUSH2 0x16B3 JUMP JUMPDEST PUSH2 0x18C6 PUSH1 0x60 DUP4 ADD DUP9 PUSH2 0x16A4 JUMP JUMPDEST PUSH2 0x18D3 PUSH1 0x80 DUP4 ADD DUP8 PUSH2 0x16C2 JUMP JUMPDEST PUSH2 0x18E0 PUSH1 0xA0 DUP4 ADD DUP7 PUSH2 0x17F3 JUMP JUMPDEST PUSH2 0x18ED PUSH1 0xC0 DUP4 ADD DUP6 PUSH2 0x17F3 JUMP JUMPDEST DUP2 DUP2 SUB PUSH1 0xE0 DUP4 ADD MSTORE PUSH2 0x18FF DUP2 DUP5 PUSH2 0x16D1 JUMP JUMPDEST SWAP1 POP SWAP10 SWAP9 POP POP POP POP POP POP POP POP POP JUMP JUMPDEST PUSH1 0x0 PUSH1 0x60 DUP3 ADD SWAP1 POP PUSH2 0x1923 PUSH1 0x0 DUP4 ADD DUP7 PUSH2 0x16A4 JUMP JUMPDEST PUSH2 0x1930 PUSH1 0x20 DUP4 ADD DUP6 PUSH2 0x17F3 JUMP JUMPDEST DUP2 DUP2 SUB PUSH1 0x40 DUP4 ADD MSTORE PUSH2 0x1942 DUP2 DUP5 PUSH2 0x16D1 JUMP JUMPDEST SWAP1 POP SWAP5 SWAP4 POP POP POP POP JUMP JUMPDEST PUSH1 0x0 PUSH1 0x80 DUP3 ADD SWAP1 POP PUSH2 0x1961 PUSH1 0x0 DUP4 ADD DUP8 PUSH2 0x16B3 JUMP JUMPDEST PUSH2 0x196E PUSH1 0x20 DUP4 ADD DUP7 PUSH2 0x17F3 JUMP JUMPDEST PUSH2 0x197B PUSH1 0x40 DUP4 ADD DUP6 PUSH2 0x16C2 JUMP JUMPDEST PUSH2 0x1988 PUSH1 0x60 DUP4 ADD DUP5 PUSH2 0x17F3 JUMP JUMPDEST SWAP6 SWAP5 POP POP POP POP POP JUMP JUMPDEST PUSH1 0x0 PUSH1 0x20 DUP3 ADD SWAP1 POP DUP2 DUP2 SUB PUSH1 0x0 DUP4 ADD MSTORE PUSH2 0x19AA DUP2 PUSH2 0x1721 JUMP JUMPDEST SWAP1 POP SWAP2 SWAP1 POP JUMP JUMPDEST PUSH1 0x0 PUSH1 0x20 DUP3 ADD SWAP1 POP DUP2 DUP2 SUB PUSH1 0x0 DUP4 ADD MSTORE PUSH2 0x19CA DUP2 PUSH2 0x1744 JUMP JUMPDEST SWAP1 POP SWAP2 SWAP1 POP JUMP JUMPDEST PUSH1 0x0 PUSH1 0x20 DUP3 ADD SWAP1 POP DUP2 DUP2 SUB PUSH1 0x0 DUP4 ADD MSTORE PUSH2 0x19EA DUP2 PUSH2 0x1767 JUMP JUMPDEST SWAP1 POP SWAP2 SWAP1 POP JUMP JUMPDEST PUSH1 0x0 PUSH1 0x20 DUP3 ADD SWAP1 POP DUP2 DUP2 SUB PUSH1 0x0 DUP4 ADD MSTORE PUSH2 0x1A0A DUP2 PUSH2 0x178A JUMP JUMPDEST SWAP1 POP SWAP2 SWAP1 POP JUMP JUMPDEST PUSH1 0x0 PUSH1 0x20 DUP3 ADD SWAP1 POP DUP2 DUP2 SUB PUSH1 0x0 DUP4 ADD MSTORE PUSH2 0x1A2A DUP2 PUSH2 0x17AD JUMP JUMPDEST SWAP1 POP SWAP2 SWAP1 POP JUMP JUMPDEST PUSH1 0x0 PUSH1 0x20 DUP3 ADD SWAP1 POP DUP2 DUP2 SUB PUSH1 0x0 DUP4 ADD MSTORE PUSH2 0x1A4A DUP2 PUSH2 0x17D0 JUMP JUMPDEST SWAP1 POP SWAP2 SWAP1 POP JUMP JUMPDEST PUSH1 0x0 PUSH1 0x20 DUP3 ADD SWAP1 POP PUSH2 0x1A66 PUSH1 0x0 DUP4 ADD DUP5 PUSH2 0x17F3 JUMP JUMPDEST SWAP3 SWAP2 POP POP JUMP JUMPDEST PUSH1 0x0 PUSH2 0x1A76 PUSH2 0x1A87 JUMP JUMPDEST SWAP1 POP PUSH2 0x1A82 DUP3 DUP3 PUSH2 0x1ED8 JUMP JUMPDEST SWAP2 SWAP1 POP JUMP JUMPDEST PUSH1 0x0 PUSH1 0x40 MLOAD SWAP1 POP SWAP1 JUMP JUMPDEST PUSH1 0x0 PUSH8 0xFFFFFFFFFFFFFFFF DUP3 GT ISZERO PUSH2 0x1AAC JUMPI PUSH2 0x1AAB PUSH2 0x1FC6 JUMP JUMPDEST JUMPDEST PUSH2 0x1AB5 DUP3 PUSH2 0x2009 JUMP JUMPDEST SWAP1 POP PUSH1 0x20 DUP2 ADD SWAP1 POP SWAP2 SWAP1 POP JUMP JUMPDEST PUSH1 0x0 DUP2 MLOAD SWAP1 POP SWAP2 SWAP1 POP JUMP JUMPDEST PUSH1 0x0 DUP3 DUP3 MSTORE PUSH1 0x20 DUP3 ADD SWAP1 POP SWAP3 SWAP2 POP POP JUMP JUMPDEST PUSH1 0x0 DUP3 DUP3 MSTORE PUSH1 0x20 DUP3 ADD SWAP1 POP SWAP3 SWAP2 POP POP JUMP JUMPDEST PUSH1 0x0 PUSH2 0x1AFA DUP3 PUSH2 0x1E56 JUMP JUMPDEST SWAP2 POP PUSH2 0x1B05 DUP4 PUSH2 0x1E56 JUMP JUMPDEST SWAP3 POP DUP3 PUSH32 0xFFFFFFFFFFFFFFFFFFFFFFFFFFFFFFFFFFFFFFFFFFFFFFFFFFFFFFFFFFFFFFFF SUB DUP3 GT ISZERO PUSH2 0x1B3A JUMPI PUSH2 0x1B39 PUSH2 0x1F68 JUMP JUMPDEST JUMPDEST DUP3 DUP3 ADD SWAP1 POP SWAP3 SWAP2 POP POP JUMP JUMPDEST PUSH1 0x0 DUP1 DUP3 SWAP2 POP DUP4 SWAP1 POP JUMPDEST PUSH1 0x1 DUP6 GT ISZERO PUSH2 0x1B8F JUMPI DUP1 DUP7 DIV DUP2 GT ISZERO PUSH2 0x1B6B JUMPI PUSH2 0x1B6A PUSH2 0x1F68 JUMP JUMPDEST JUMPDEST PUSH1 0x1 DUP6 AND ISZERO PUSH2 0x1B7A JUMPI DUP1 DUP3 MUL SWAP2 POP JUMPDEST DUP1 DUP2 MUL SWAP1 POP PUSH2 0x1B88 DUP6 PUSH2 0x2027 JUMP JUMPDEST SWAP5 POP PUSH2 0x1B4F JUMP JUMPDEST SWAP5 POP SWAP5 SWAP3 POP POP POP JUMP JUMPDEST PUSH1 0x0 PUSH2 0x1BA3 DUP3 PUSH2 0x1E56 JUMP JUMPDEST SWAP2 POP PUSH2 0x1BAE DUP4 PUSH2 0x1E56 JUMP JUMPDEST SWAP3 POP PUSH2 0x1BDB PUSH32 0xFFFFFFFFFFFFFFFFFFFFFFFFFFFFFFFFFFFFFFFFFFFFFFFFFFFFFFFFFFFFFFFF DUP5 DUP5 PUSH2 0x1BE3 JUMP JUMPDEST SWAP1 POP SWAP3 SWAP2 POP POP JUMP JUMPDEST PUSH1 0x0 DUP3 PUSH2 0x1BF3 JUMPI PUSH1 0x1 SWAP1 POP PUSH2 0x1CAF JUMP JUMPDEST DUP2 PUSH2 0x1C01 JUMPI PUSH1 0x0 SWAP1 POP PUSH2 0x1CAF JUMP JUMPDEST DUP2 PUSH1 0x1 DUP2 EQ PUSH2 0x1C17 JUMPI PUSH1 0x2 DUP2 EQ PUSH2 0x1C21 JUMPI PUSH2 0x1C50 JUMP JUMPDEST PUSH1 0x1 SWAP2 POP POP PUSH2 0x1CAF JUMP JUMPDEST PUSH1 0xFF DUP5 GT ISZERO PUSH2 0x1C33 JUMPI PUSH2 0x1C32 PUSH2 0x1F68 JUMP JUMPDEST JUMPDEST DUP4 PUSH1 0x2 EXP SWAP2 POP DUP5 DUP3 GT ISZERO PUSH2 0x1C4A JUMPI PUSH2 0x1C49 PUSH2 0x1F68 JUMP JUMPDEST JUMPDEST POP PUSH2 0x1CAF JUMP JUMPDEST POP PUSH1 0x20 DUP4 LT PUSH2 0x133 DUP4 LT AND PUSH1 0x4E DUP5 LT PUSH1 0xB DUP5 LT AND OR ISZERO PUSH2 0x1C85 JUMPI DUP3 DUP3 EXP SWAP1 POP DUP4 DUP2 GT ISZERO PUSH2 0x1C80 JUMPI PUSH2 0x1C7F PUSH2 0x1F68 JUMP JUMPDEST JUMPDEST PUSH2 0x1CAF JUMP JUMPDEST PUSH2 0x1C92 DUP5 DUP5 DUP5 PUSH1 0x1 PUSH2 0x1B45 JUMP JUMPDEST SWAP3 POP SWAP1 POP DUP2 DUP5 DIV DUP2 GT ISZERO PUSH2 0x1CA9 JUMPI PUSH2 0x1CA8 PUSH2 0x1F68 JUMP JUMPDEST JUMPDEST DUP2 DUP2 MUL SWAP1 POP JUMPDEST SWAP4 SWAP3 POP POP POP JUMP JUMPDEST PUSH1 0x0 PUSH2 0x1CC1 DUP3 PUSH2 0x1E56 JUMP JUMPDEST SWAP2 POP PUSH2 0x1CCC DUP4 PUSH2 0x1E56 JUMP JUMPDEST SWAP3 POP DUP2 PUSH32 0xFFFFFFFFFFFFFFFFFFFFFFFFFFFFFFFFFFFFFFFFFFFFFFFFFFFFFFFFFFFFFFFF DIV DUP4 GT DUP3 ISZERO ISZERO AND ISZERO PUSH2 0x1D05 JUMPI PUSH2 0x1D04 PUSH2 0x1F68 JUMP JUMPDEST JUMPDEST DUP3 DUP3 MUL SWAP1 POP SWAP3 SWAP2 POP POP JUMP JUMPDEST PUSH1 0x0 PUSH2 0x1D1B DUP3 PUSH2 0x1E2C JUMP JUMPDEST SWAP2 POP PUSH2 0x1D26 DUP4 PUSH2 0x1E2C JUMP JUMPDEST SWAP3 POP DUP3 PUSH32 0x8000000000000000000000000000000000000000000000000000000000000000 ADD DUP3 SLT PUSH1 0x0 DUP5 SLT ISZERO AND ISZERO PUSH2 0x1D61 JUMPI PUSH2 0x1D60 PUSH2 0x1F68 JUMP JUMPDEST JUMPDEST DUP3 PUSH32 0x7FFFFFFFFFFFFFFFFFFFFFFFFFFFFFFFFFFFFFFFFFFFFFFFFFFFFFFFFFFFFFFF ADD DUP3 SGT PUSH1 0x0 DUP5 SLT AND ISZERO PUSH2 0x1D99 JUMPI PUSH2 0x1D98 PUSH2 0x1F68 JUMP JUMPDEST JUMPDEST DUP3 DUP3 SUB SWAP1 POP SWAP3 SWAP2 POP POP JUMP JUMPDEST PUSH1 0x0 PUSH2 0x1DAF DUP3 PUSH2 0x1E56 JUMP JUMPDEST SWAP2 POP PUSH2 0x1DBA DUP4 PUSH2 0x1E56 JUMP JUMPDEST SWAP3 POP DUP3 DUP3 LT ISZERO PUSH2 0x1DCD JUMPI PUSH2 0x1DCC PUSH2 0x1F68 JUMP JUMPDEST JUMPDEST DUP3 DUP3 SUB SWAP1 POP SWAP3 SWAP2 POP POP JUMP JUMPDEST PUSH1 0x0 PUSH2 0x1DE3 DUP3 PUSH2 0x1E36 JUMP JUMPDEST SWAP1 POP SWAP2 SWAP1 POP JUMP JUMPDEST PUSH1 0x0 DUP2 ISZERO ISZERO SWAP1 POP SWAP2 SWAP1 POP JUMP JUMPDEST PUSH1 0x0 DUP2 SWAP1 POP SWAP2 SWAP1 POP JUMP JUMPDEST PUSH1 0x0 PUSH32 0xFFFFFFFF00000000000000000000000000000000000000000000000000000000 DUP3 AND SWAP1 POP SWAP2 SWAP1 POP JUMP JUMPDEST PUSH1 0x0 DUP2 SWAP1 POP SWAP2 SWAP1 POP JUMP JUMPDEST PUSH1 0x0 PUSH20 0xFFFFFFFFFFFFFFFFFFFFFFFFFFFFFFFFFFFFFFFF DUP3 AND SWAP1 POP SWAP2 SWAP1 POP JUMP JUMPDEST PUSH1 0x0 DUP2 SWAP1 POP SWAP2 SWAP1 POP JUMP JUMPDEST PUSH1 0x0 PUSH2 0x1E6B DUP3 PUSH2 0x1E72 JUMP JUMPDEST SWAP1 POP SWAP2 SWAP1 POP JUMP JUMPDEST PUSH1 0x0 PUSH2 0x1E7D DUP3 PUSH2 0x1E84 JUMP JUMPDEST SWAP1 POP SWAP2 SWAP1 POP JUMP JUMPDEST PUSH1 0x0 PUSH2 0x1E8F DUP3 PUSH2 0x1E36 JUMP JUMPDEST SWAP1 POP SWAP2 SWAP1 POP JUMP JUMPDEST DUP3 DUP2 DUP4 CALLDATACOPY PUSH1 0x0 DUP4 DUP4 ADD MSTORE POP POP POP JUMP JUMPDEST PUSH1 0x0 JUMPDEST DUP4 DUP2 LT ISZERO PUSH2 0x1EC3 JUMPI DUP1 DUP3 ADD MLOAD DUP2 DUP5 ADD MSTORE PUSH1 0x20 DUP2 ADD SWAP1 POP PUSH2 0x1EA8 JUMP JUMPDEST DUP4 DUP2 GT ISZERO PUSH2 0x1ED2 JUMPI PUSH1 0x0 DUP5 DUP5 ADD MSTORE JUMPDEST POP POP POP POP JUMP JUMPDEST PUSH2 0x1EE1 DUP3 PUSH2 0x2009 JUMP JUMPDEST DUP2 ADD DUP2 DUP2 LT PUSH8 0xFFFFFFFFFFFFFFFF DUP3 GT OR ISZERO PUSH2 0x1F00 JUMPI PUSH2 0x1EFF PUSH2 0x1FC6 JUMP JUMPDEST JUMPDEST DUP1 PUSH1 0x40 MSTORE POP POP POP JUMP JUMPDEST PUSH1 0x0 PUSH2 0x1F14 DUP3 PUSH2 0x1F1B JUMP JUMPDEST SWAP1 POP SWAP2 SWAP1 POP JUMP JUMPDEST PUSH1 0x0 PUSH2 0x1F26 DUP3 PUSH2 0x201A JUMP JUMPDEST SWAP1 POP SWAP2 SWAP1 POP JUMP JUMPDEST PUSH1 0x0 DUP2 SWAP1 POP SWAP2 SWAP1 POP JUMP JUMPDEST PUSH1 0x0 PUSH2 0x1F42 DUP3 PUSH2 0x1E56 JUMP JUMPDEST SWAP2 POP PUSH2 0x1F4D DUP4 PUSH2 0x1E56 JUMP JUMPDEST SWAP3 POP DUP3 PUSH2 0x1F5D JUMPI PUSH2 0x1F5C PUSH2 0x1F97 JUMP JUMPDEST JUMPDEST DUP3 DUP3 MOD SWAP1 POP SWAP3 SWAP2 POP POP JUMP JUMPDEST PUSH32 0x4E487B7100000000000000000000000000000000000000000000000000000000 PUSH1 0x0 MSTORE PUSH1 0x11 PUSH1 0x4 MSTORE PUSH1 0x24 PUSH1 0x0 REVERT JUMPDEST PUSH32 0x4E487B7100000000000000000000000000000000000000000000000000000000 PUSH1 0x0 MSTORE PUSH1 0x12 PUSH1 0x4 MSTORE PUSH1 0x24 PUSH1 0x0 REVERT JUMPDEST PUSH32 0x4E487B7100000000000000000000000000000000000000000000000000000000 PUSH1 0x0 MSTORE PUSH1 0x41 PUSH1 0x4 MSTORE PUSH1 0x24 PUSH1 0x0 REVERT JUMPDEST PUSH1 0x0 DUP1 REVERT JUMPDEST PUSH1 0x0 DUP1 REVERT JUMPDEST PUSH1 0x0 DUP1 REVERT JUMPDEST PUSH1 0x0 DUP1 REVERT JUMPDEST PUSH1 0x0 PUSH1 0x1F NOT PUSH1 0x1F DUP4 ADD AND SWAP1 POP SWAP2 SWAP1 POP JUMP JUMPDEST PUSH1 0x0 DUP2 PUSH1 0x60 SHL SWAP1 POP SWAP2 SWAP1 POP JUMP JUMPDEST PUSH1 0x0 DUP2 PUSH1 0x1 SHR SWAP1 POP SWAP2 SWAP1 POP JUMP JUMPDEST PUSH32 0x4D7573742062652070726F706F736564206F776E657200000000000000000000 PUSH1 0x0 DUP3 ADD MSTORE POP JUMP JUMPDEST PUSH32 0x756E61626C6520746F207472616E73666572416E6443616C6C20746F206F7261 PUSH1 0x0 DUP3 ADD MSTORE PUSH32 0x636C650000000000000000000000000000000000000000000000000000000000 PUSH1 0x20 DUP3 ADD MSTORE POP JUMP JUMPDEST PUSH32 0x4F6E6C792063616C6C61626C65206279206F776E657200000000000000000000 PUSH1 0x0 DUP3 ADD MSTORE POP JUMP JUMPDEST PUSH32 0x556E61626C6520746F207472616E736665720000000000000000000000000000 PUSH1 0x0 DUP3 ADD MSTORE POP JUMP JUMPDEST PUSH32 0x43616E6E6F74207472616E7366657220746F2073656C66000000000000000000 PUSH1 0x0 DUP3 ADD MSTORE POP JUMP JUMPDEST PUSH32 0x536F75726365206D75737420626520746865206F7261636C65206F6620746865 PUSH1 0x0 DUP3 ADD MSTORE PUSH32 0x2072657175657374000000000000000000000000000000000000000000000000 PUSH1 0x20 DUP3 ADD MSTORE POP JUMP JUMPDEST PUSH2 0x217F DUP2 PUSH2 0x1DD8 JUMP JUMPDEST DUP2 EQ PUSH2 0x218A JUMPI PUSH1 0x0 DUP1 REVERT JUMPDEST POP JUMP JUMPDEST PUSH2 0x2196 DUP2 PUSH2 0x1DEA JUMP JUMPDEST DUP2 EQ PUSH2 0x21A1 JUMPI PUSH1 0x0 DUP1 REVERT JUMPDEST POP JUMP JUMPDEST PUSH2 0x21AD DUP2 PUSH2 0x1DF6 JUMP JUMPDEST DUP2 EQ PUSH2 0x21B8 JUMPI PUSH1 0x0 DUP1 REVERT JUMPDEST POP JUMP JUMPDEST PUSH2 0x21C4 DUP2 PUSH2 0x1E00 JUMP JUMPDEST DUP2 EQ PUSH2 0x21CF JUMPI PUSH1 0x0 DUP1 REVERT JUMPDEST POP JUMP JUMPDEST PUSH2 0x21DB DUP2 PUSH2 0x1E56 JUMP JUMPDEST DUP2 EQ PUSH2 0x21E6 JUMPI PUSH1 0x0 DUP1 REVERT JUMPDEST POP JUMP INVALID ADDRESS PUSH25 0x30303030303030303030303030303030303030303030303030 ADDRESS ADDRESS ADDRESS ADDRESS ADDRESS ADDRESS ADDRESS ADDRESS ADDRESS ADDRESS ADDRESS ADDRESS ADDRESS ADDRESS ADDRESS LOG2 PUSH5 0x6970667358 0x22 SLT KECCAK256 MSTORE8 EXTCODECOPY 0xA6 PUSH13 0xB564DA9553460B01E9264EC18C GT 0xF8 EXTCODEHASH SWAP15 0x4B 0xCF 0xCF DUP1 0xA9 PUSH7 0x5CCC1453786473 PUSH16 0x6C634300080700330000000000000000 "
        },
        "methodIdentifiers": {
          "acceptOwnership()": "79ba5097",
          "cancelRequest(bytes32,uint256,bytes4,uint256)": "ec65d0f8",
          "fulfillTemplate(bytes32,bytes32)": "63382c3c",
          "getChainlinkToken()": "165d35e1",
          "owner()": "8da5cb5b",
          "testRequest(address,string)": "d0e18258",
          "transferOwnership(address)": "f2fde38b",
          "withdrawLink()": "8dc654a2"
        }
      }
    }
  }
}