{
  "_format": "hh-sol-artifact-1",
  "contractName": "TestRequest2",
  "sourceName": "contracts/oracle/TestRequest2.sol",
  "abi": [
    {
      "inputs": [],
      "stateMutability": "nonpayable",
      "type": "constructor"
    },
    {
      "anonymous": false,
      "inputs": [
        {
          "indexed": true,
          "internalType": "bytes32",
          "name": "id",
          "type": "bytes32"
        }
      ],
      "name": "ChainlinkCancelled",
      "type": "event"
    },
    {
      "anonymous": false,
      "inputs": [
        {
          "indexed": true,
          "internalType": "bytes32",
          "name": "id",
          "type": "bytes32"
        }
      ],
      "name": "ChainlinkFulfilled",
      "type": "event"
    },
    {
      "anonymous": false,
      "inputs": [
        {
          "indexed": true,
          "internalType": "bytes32",
          "name": "id",
          "type": "bytes32"
        }
      ],
      "name": "ChainlinkRequested",
      "type": "event"
    },
    {
      "anonymous": false,
      "inputs": [
        {
          "indexed": true,
          "internalType": "address",
          "name": "from",
          "type": "address"
        },
        {
          "indexed": true,
          "internalType": "address",
          "name": "to",
          "type": "address"
        }
      ],
      "name": "OwnershipTransferRequested",
      "type": "event"
    },
    {
      "anonymous": false,
      "inputs": [
        {
          "indexed": true,
          "internalType": "address",
          "name": "from",
          "type": "address"
        },
        {
          "indexed": true,
          "internalType": "address",
          "name": "to",
          "type": "address"
        }
      ],
      "name": "OwnershipTransferred",
      "type": "event"
    },
    {
      "inputs": [],
      "name": "acceptOwnership",
      "outputs": [],
      "stateMutability": "nonpayable",
      "type": "function"
    },
    {
      "inputs": [
        {
          "internalType": "bytes32",
          "name": "_requestId",
          "type": "bytes32"
        },
        {
          "internalType": "uint256",
          "name": "_payment",
          "type": "uint256"
        },
        {
          "internalType": "bytes4",
          "name": "_callbackFunctionId",
          "type": "bytes4"
        },
        {
          "internalType": "uint256",
          "name": "_expiration",
          "type": "uint256"
        }
      ],
      "name": "cancelRequest",
      "outputs": [],
      "stateMutability": "nonpayable",
      "type": "function"
    },
    {
      "inputs": [
        {
          "internalType": "bytes32",
          "name": "_requestId",
          "type": "bytes32"
        },
        {
          "internalType": "bytes32",
          "name": "_market",
          "type": "bytes32"
        }
      ],
      "name": "fulfillTemplate",
      "outputs": [],
      "stateMutability": "nonpayable",
      "type": "function"
    },
    {
      "inputs": [],
      "name": "getChainlinkToken",
      "outputs": [
        {
          "internalType": "address",
          "name": "",
          "type": "address"
        }
      ],
      "stateMutability": "view",
      "type": "function"
    },
    {
      "inputs": [],
      "name": "owner",
      "outputs": [
        {
          "internalType": "address",
          "name": "",
          "type": "address"
        }
      ],
      "stateMutability": "view",
      "type": "function"
    },
    {
      "inputs": [
        {
          "internalType": "string",
          "name": "jobId",
          "type": "string"
        }
      ],
      "name": "setJobId",
      "outputs": [],
      "stateMutability": "nonpayable",
      "type": "function"
    },
    {
      "inputs": [
        {
          "internalType": "address",
          "name": "oracle",
          "type": "address"
        }
      ],
      "name": "setOracle",
      "outputs": [],
      "stateMutability": "nonpayable",
      "type": "function"
    },
    {
      "inputs": [
        {
          "internalType": "address",
          "name": "user",
          "type": "address"
        }
      ],
      "name": "testRequest",
      "outputs": [],
      "stateMutability": "nonpayable",
      "type": "function"
    },
    {
      "inputs": [
        {
          "internalType": "address",
          "name": "_addr",
          "type": "address"
        }
      ],
      "name": "toStringFromAddress",
      "outputs": [
        {
          "internalType": "string",
          "name": "",
          "type": "string"
        }
      ],
      "stateMutability": "pure",
      "type": "function"
    },
    {
      "inputs": [
        {
          "internalType": "address",
          "name": "to",
          "type": "address"
        }
      ],
      "name": "transferOwnership",
      "outputs": [],
      "stateMutability": "nonpayable",
      "type": "function"
    },
    {
      "inputs": [],
      "name": "withdrawLink",
      "outputs": [],
      "stateMutability": "nonpayable",
      "type": "function"
    }
  ],
  "bytecode": "0x608060405260016004553480156200001657600080fd5b50338060008073ffffffffffffffffffffffffffffffffffffffff168273ffffffffffffffffffffffffffffffffffffffff1614156200008d576040517f08c379a00000000000000000000000000000000000000000000000000000000081526004016200008490620003e3565b60405180910390fd5b81600660006101000a81548173ffffffffffffffffffffffffffffffffffffffff021916908373ffffffffffffffffffffffffffffffffffffffff160217905550600073ffffffffffffffffffffffffffffffffffffffff168173ffffffffffffffffffffffffffffffffffffffff1614620001155762000114816200012e60201b60201c565b5b505050620001286200026060201b60201c565b620004dd565b3373ffffffffffffffffffffffffffffffffffffffff168173ffffffffffffffffffffffffffffffffffffffff161415620001a0576040517f08c379a0000000000000000000000000000000000000000000000000000000008152600401620001979062000405565b60405180910390fd5b80600760006101000a81548173ffffffffffffffffffffffffffffffffffffffff021916908373ffffffffffffffffffffffffffffffffffffffff1602179055508073ffffffffffffffffffffffffffffffffffffffff16600660009054906101000a900473ffffffffffffffffffffffffffffffffffffffff1673ffffffffffffffffffffffffffffffffffffffff167fed8889f560326eb138920d842192f0eb3dd22b4f139c87a2c57538e05bae127860405160405180910390a350565b6200030673c89bd4e1632d3a43cb03aaad5262cbe4038bc57173ffffffffffffffffffffffffffffffffffffffff166338cc48316040518163ffffffff1660e01b815260040160206040518083038186803b158015620002bf57600080fd5b505afa158015620002d4573d6000803e3d6000fd5b505050506040513d601f19601f82011682018060405250810190620002fa919062000363565b6200030860201b60201c565b565b80600260006101000a81548173ffffffffffffffffffffffffffffffffffffffff021916908373ffffffffffffffffffffffffffffffffffffffff16021790555050565b6000815190506200035d81620004c3565b92915050565b6000602082840312156200037c576200037b6200046c565b5b60006200038c848285016200034c565b91505092915050565b6000620003a460188362000427565b9150620003b18262000471565b602082019050919050565b6000620003cb60178362000427565b9150620003d8826200049a565b602082019050919050565b60006020820190508181036000830152620003fe8162000395565b9050919050565b600060208201905081810360008301526200042081620003bc565b9050919050565b600082825260208201905092915050565b600062000445826200044c565b9050919050565b600073ffffffffffffffffffffffffffffffffffffffff82169050919050565b600080fd5b7f43616e6e6f7420736574206f776e657220746f207a65726f0000000000000000600082015250565b7f43616e6e6f74207472616e7366657220746f2073656c66000000000000000000600082015250565b620004ce8162000438565b8114620004da57600080fd5b50565b61288b80620004ed6000396000f3fe608060405234801561001057600080fd5b50600436106100a95760003560e01c80637adbf973116100715780637adbf9731461012a5780638da5cb5b146101465780638dc654a21461016457806395324dd21461016e578063ec65d0f81461019e578063f2fde38b146101ba576100a9565b8063129fc1c0146100ae578063165d35e1146100ca5780631ab063b2146100e857806363382c3c1461010457806379ba509714610120575b600080fd5b6100c860048036038101906100c39190611b5b565b6101d6565b005b6100d26101f8565b6040516100df9190611dab565b60405180910390f35b61010260048036038101906100fd9190611a5a565b610207565b005b61011e60048036038101906101199190611ab4565b610387565b005b610128610491565b005b610144600480360381019061013f9190611a5a565b610628565b005b61014e610674565b60405161015b9190611dab565b60405180910390f35b61016c61069e565b005b61018860048036038101906101839190611a5a565b610809565b6040516101959190611ef7565b60405180910390f35b6101b860048036038101906101b39190611af4565b610b14565b005b6101d460048036038101906101cf9190611a5a565b610b2e565b005b6101de610b42565b80600990805190602001906101f4929190611842565b5050565b6000610202610bd4565b905090565b61020f610b42565b60006102b56102a7600980546102249061246b565b80601f01602080910402602001604051908101604052809291908181526020018280546102509061246b565b801561029d5780601f106102725761010080835404028352916020019161029d565b820191906000526020600020905b81548152906001019060200180831161028057829003601f168201915b5050505050610bfe565b306363382c3c60e01b610c28565b90506103096040518060400160405280600481526020017f75736572000000000000000000000000000000000000000000000000000000008152506102f984610809565b83610c599092919063ffffffff16565b6103546040518060400160405280600881526020017f6f726465724e756d000000000000000000000000000000000000000000000000815250606483610c8c9092919063ffffffff16565b610382600860009054906101000a900473ffffffffffffffffffffffffffffffffffffffff16826001610cbf565b505050565b816005600082815260200190815260200160002060009054906101000a900473ffffffffffffffffffffffffffffffffffffffff1673ffffffffffffffffffffffffffffffffffffffff163373ffffffffffffffffffffffffffffffffffffffff1614610429576040517f08c379a000000000000000000000000000000000000000000000000000000000815260040161042090611fb9565b60405180910390fd5b6005600082815260200190815260200160002060006101000a81549073ffffffffffffffffffffffffffffffffffffffff0219169055807f7cc135e0cebb02c3480ae5d74d377283180a2601f8f644edf7987b009316c63a60405160405180910390a2505050565b600760009054906101000a900473ffffffffffffffffffffffffffffffffffffffff1673ffffffffffffffffffffffffffffffffffffffff163373ffffffffffffffffffffffffffffffffffffffff1614610521576040517f08c379a000000000000000000000000000000000000000000000000000000000815260040161051890611f19565b60405180910390fd5b6000600660009054906101000a900473ffffffffffffffffffffffffffffffffffffffff16905033600660006101000a81548173ffffffffffffffffffffffffffffffffffffffff021916908373ffffffffffffffffffffffffffffffffffffffff1602179055506000600760006101000a81548173ffffffffffffffffffffffffffffffffffffffff021916908373ffffffffffffffffffffffffffffffffffffffff1602179055503373ffffffffffffffffffffffffffffffffffffffff168173ffffffffffffffffffffffffffffffffffffffff167f8be0079c531659141344cd1fd0a4f28419497f9722a3daafe3b4186f6b6457e060405160405180910390a350565b610630610b42565b80600860006101000a81548173ffffffffffffffffffffffffffffffffffffffff021916908373ffffffffffffffffffffffffffffffffffffffff16021790555050565b6000600660009054906101000a900473ffffffffffffffffffffffffffffffffffffffff16905090565b6106a6610b42565b60006106b0610bd4565b90508073ffffffffffffffffffffffffffffffffffffffff1663a9059cbb338373ffffffffffffffffffffffffffffffffffffffff166370a08231306040518263ffffffff1660e01b81526004016107089190611dab565b60206040518083038186803b15801561072057600080fd5b505afa158015610734573d6000803e3d6000fd5b505050506040513d601f19601f820116820180604052508101906107589190611ba4565b6040518363ffffffff1660e01b8152600401610775929190611dc6565b602060405180830381600087803b15801561078f57600080fd5b505af11580156107a3573d6000803e3d6000fd5b505050506040513d601f19601f820116820180604052508101906107c79190611a87565b610806576040517f08c379a00000000000000000000000000000000000000000000000000000000081526004016107fd90611f79565b60405180910390fd5b50565b606060008273ffffffffffffffffffffffffffffffffffffffff1660001b905060006040518060400160405280601081526020017f303132333435363738396162636465660000000000000000000000000000000081525090506000602a67ffffffffffffffff8111156108805761087f612632565b5b6040519080825280601f01601f1916602001820160405280156108b25781602001600182028036833780820191505090505b5090507f3000000000000000000000000000000000000000000000000000000000000000816000815181106108ea576108e9612603565b5b60200101907effffffffffffffffffffffffffffffffffffffffffffffffffffffffffffff1916908160001a9053507f78000000000000000000000000000000000000000000000000000000000000008160018151811061094e5761094d612603565b5b60200101907effffffffffffffffffffffffffffffffffffffffffffffffffffffffffffff1916908160001a90535060005b6014811015610b085782600485600c8461099a9190612082565b602081106109ab576109aa612603565b5b1a60f81b7effffffffffffffffffffffffffffffffffffffffffffffffffffffffffffff1916901c60f81c60ff16815181106109ea576109e9612603565b5b602001015160f81c60f81b82600283610a039190612249565b6002610a0f9190612082565b81518110610a2057610a1f612603565b5b60200101907effffffffffffffffffffffffffffffffffffffffffffffffffffffffffffff1916908160001a90535082600f60f81b85600c84610a639190612082565b60208110610a7457610a73612603565b5b1a60f81b1660f81c60ff1681518110610a9057610a8f612603565b5b602001015160f81c60f81b82600283610aa99190612249565b6003610ab59190612082565b81518110610ac657610ac5612603565b5b60200101907effffffffffffffffffffffffffffffffffffffffffffffffffffffffffffff1916908160001a9053508080610b00906124ce565b915050610980565b50809350505050919050565b610b1c610b42565b610b2884848484610d8b565b50505050565b610b36610b42565b610b3f81610e9e565b50565b600660009054906101000a900473ffffffffffffffffffffffffffffffffffffffff1673ffffffffffffffffffffffffffffffffffffffff163373ffffffffffffffffffffffffffffffffffffffff1614610bd2576040517f08c379a0000000000000000000000000000000000000000000000000000000008152600401610bc990611f59565b60405180910390fd5b565b6000600260009054906101000a900473ffffffffffffffffffffffffffffffffffffffff16905090565b600080829050600081511415610c1a576000801b915050610c23565b60208301519150505b919050565b610c306118c8565b610c386118c8565b610c4f85858584610fcd909392919063ffffffff16565b9150509392505050565b610c7082846080015161107d90919063ffffffff16565b610c8781846080015161107d90919063ffffffff16565b505050565b610ca382846080015161107d90919063ffffffff16565b610cba8184608001516110a290919063ffffffff16565b505050565b6000806004549050600181610cd49190612082565b6004819055506000634042994660e01b60008087600001513089604001518760018c6080015160000151604051602401610d15989796959493929190611def565b604051602081830303815290604052907bffffffffffffffffffffffffffffffffffffffffffffffffffffffff19166020820180517bffffffffffffffffffffffffffffffffffffffffffffffffffffffff83818316178352505050509050610d808683868461114f565b925050509392505050565b60006005600086815260200190815260200160002060009054906101000a900473ffffffffffffffffffffffffffffffffffffffff1690506005600086815260200190815260200160002060006101000a81549073ffffffffffffffffffffffffffffffffffffffff0219169055847fe1fe3afa0f7f761ff0a8b89086790efd5140d2907ebd5b7ff6bfcb5e075fd4c560405160405180910390a28073ffffffffffffffffffffffffffffffffffffffff16636ee4d553868686866040518563ffffffff1660e01b8152600401610e659493929190611eb2565b600060405180830381600087803b158015610e7f57600080fd5b505af1158015610e93573d6000803e3d6000fd5b505050505050505050565b3373ffffffffffffffffffffffffffffffffffffffff168173ffffffffffffffffffffffffffffffffffffffff161415610f0d576040517f08c379a0000000000000000000000000000000000000000000000000000000008152600401610f0490611f99565b60405180910390fd5b80600760006101000a81548173ffffffffffffffffffffffffffffffffffffffff021916908373ffffffffffffffffffffffffffffffffffffffff1602179055508073ffffffffffffffffffffffffffffffffffffffff16600660009054906101000a900473ffffffffffffffffffffffffffffffffffffffff1673ffffffffffffffffffffffffffffffffffffffff167fed8889f560326eb138920d842192f0eb3dd22b4f139c87a2c57538e05bae127860405160405180910390a350565b610fd56118c8565b610fe585608001516101006112f3565b508385600001818152505082856020019073ffffffffffffffffffffffffffffffffffffffff16908173ffffffffffffffffffffffffffffffffffffffff16815250508185604001907bffffffffffffffffffffffffffffffffffffffffffffffffffffffff191690817bffffffffffffffffffffffffffffffffffffffffffffffffffffffff191681525050849050949350505050565b61108a826003835161135d565b61109d81836114e290919063ffffffff16565b505050565b7fffffffffffffffffffffffffffffffffffffffffffffffff00000000000000008112156110d9576110d48282611504565b61114b565b67ffffffffffffffff8113156110f8576110f3828261157b565b61114a565b600081126111115761110c8260008361135d565b611149565b611148826001837fffffffffffffffffffffffffffffffffffffffffffffffffffffffffffffffff61114391906122a3565b61135d565b5b5b5b5050565b60003084604051602001611164929190611d7f565b604051602081830303815290604052805190602001209050846005600083815260200190815260200160002060006101000a81548173ffffffffffffffffffffffffffffffffffffffff021916908373ffffffffffffffffffffffffffffffffffffffff160217905550807fb5e6e01e79f91267dc17b4e6314d5d4d03593d2ceee0fbb452b750bd70ea5af960405160405180910390a2600260009054906101000a900473ffffffffffffffffffffffffffffffffffffffff1673ffffffffffffffffffffffffffffffffffffffff16634000aea08685856040518463ffffffff1660e01b815260040161125a93929190611e74565b602060405180830381600087803b15801561127457600080fd5b505af1158015611288573d6000803e3d6000fd5b505050506040513d601f19601f820116820180604052508101906112ac9190611a87565b6112eb576040517f08c379a00000000000000000000000000000000000000000000000000000000081526004016112e290611f39565b60405180910390fd5b949350505050565b6112fb611935565b600060208361130a9190612545565b146113365760208261131c9190612545565b60206113289190612337565b826113339190612082565b91505b81836020018181525050604051808452600081528281016020016040525082905092915050565b60178167ffffffffffffffff16116113945761138e8160058460ff16901b60ff1617846115c790919063ffffffff16565b506114dd565b60ff8167ffffffffffffffff16116113ea576113c3601860058460ff16901b17846115c790919063ffffffff16565b506113e48167ffffffffffffffff166001856115e79092919063ffffffff16565b506114dc565b61ffff8167ffffffffffffffff16116114415761141a601960058460ff16901b17846115c790919063ffffffff16565b5061143b8167ffffffffffffffff166002856115e79092919063ffffffff16565b506114db565b63ffffffff8167ffffffffffffffff161161149a57611473601a60058460ff16901b17846115c790919063ffffffff16565b506114948167ffffffffffffffff166004856115e79092919063ffffffff16565b506114da565b6114b7601b60058460ff16901b17846115c790919063ffffffff16565b506114d88167ffffffffffffffff166008856115e79092919063ffffffff16565b505b5b5b5b505050565b6114ea611935565b6114fc83846000015151848551611609565b905092915050565b61152260036005600660ff16901b17836115c790919063ffffffff16565b5061157782827fffffffffffffffffffffffffffffffffffffffffffffffffffffffffffffffff61155391906122a3565b6040516020016115639190611fd9565b6040516020818303038152906040526116f8565b5050565b61159960026005600660ff16901b17836115c790919063ffffffff16565b506115c382826040516020016115af9190611fd9565b6040516020818303038152906040526116f8565b5050565b6115cf611935565b6115df838460000151518461171d565b905092915050565b6115ef611935565b611600848560000151518585611774565b90509392505050565b611611611935565b825182111561161f57600080fd5b846020015182856116309190612082565b111561166557611664856002611655886020015188876116509190612082565b611802565b61165f9190612249565b61181e565b5b6000808651805187602083010193508088870111156116845787860182525b60208701925050505b602084106116cb57805182526020826116a69190612082565b91506020816116b59190612082565b90506020846116c49190612337565b935061168d565b60006001856020036101000a03905080198251168184511681811785525050508692505050949350505050565b611705826002835161135d565b61171881836114e290919063ffffffff16565b505050565b611725611935565b8360200151831061174b5761174a84600286602001516117459190612249565b61181e565b5b8351805160208583010184815381861415611767576001820183525b5050508390509392505050565b61177c611935565b8460200151848361178d9190612082565b11156117b5576117b485600286856117a59190612082565b6117af9190612249565b61181e565b5b60006001836101006117c7919061212b565b6117d19190612337565b905085518386820101858319825116178152815185880111156117f45784870182525b505085915050949350505050565b60008183111561181457829050611818565b8190505b92915050565b60008260000151905061183183836112f3565b5061183c83826114e2565b50505050565b82805461184e9061246b565b90600052602060002090601f01602090048101928261187057600085556118b7565b82601f1061188957805160ff19168380011785556118b7565b828001600101855582156118b7579182015b828111156118b657825182559160200191906001019061189b565b5b5090506118c4919061194f565b5090565b6040518060a0016040528060008019168152602001600073ffffffffffffffffffffffffffffffffffffffff16815260200160007bffffffffffffffffffffffffffffffffffffffffffffffffffffffff191681526020016000815260200161192f611935565b81525090565b604051806040016040528060608152602001600081525090565b5b80821115611968576000816000905550600101611950565b5090565b600061197f61197a84612019565b611ff4565b90508281526020810184848401111561199b5761199a612666565b5b6119a6848285612429565b509392505050565b6000813590506119bd816127e2565b92915050565b6000815190506119d2816127f9565b92915050565b6000813590506119e781612810565b92915050565b6000813590506119fc81612827565b92915050565b600082601f830112611a1757611a16612661565b5b8135611a2784826020860161196c565b91505092915050565b600081359050611a3f8161283e565b92915050565b600081519050611a548161283e565b92915050565b600060208284031215611a7057611a6f612670565b5b6000611a7e848285016119ae565b91505092915050565b600060208284031215611a9d57611a9c612670565b5b6000611aab848285016119c3565b91505092915050565b60008060408385031215611acb57611aca612670565b5b6000611ad9858286016119d8565b9250506020611aea858286016119d8565b9150509250929050565b60008060008060808587031215611b0e57611b0d612670565b5b6000611b1c878288016119d8565b9450506020611b2d87828801611a30565b9350506040611b3e878288016119ed565b9250506060611b4f87828801611a30565b91505092959194509250565b600060208284031215611b7157611b70612670565b5b600082013567ffffffffffffffff811115611b8f57611b8e61266b565b5b611b9b84828501611a02565b91505092915050565b600060208284031215611bba57611bb9612670565b5b6000611bc884828501611a45565b91505092915050565b611bda8161236b565b82525050565b611be981612389565b82525050565b611bf881612393565b82525050565b6000611c098261204a565b611c138185612060565b9350611c23818560208601612438565b611c2c81612675565b840191505092915050565b611c48611c43826123f3565b612517565b82525050565b6000611c5982612055565b611c638185612071565b9350611c73818560208601612438565b611c7c81612675565b840191505092915050565b6000611c94601683612071565b9150611c9f826126a0565b602082019050919050565b6000611cb7602383612071565b9150611cc2826126c9565b604082019050919050565b6000611cda601683612071565b9150611ce582612718565b602082019050919050565b6000611cfd601283612071565b9150611d0882612741565b602082019050919050565b6000611d20601783612071565b9150611d2b8261276a565b602082019050919050565b6000611d43602883612071565b9150611d4e82612793565b604082019050919050565b611d62816123e9565b82525050565b611d79611d74826123e9565b61253b565b82525050565b6000611d8b8285611c37565b601482019150611d9b8284611d68565b6020820191508190509392505050565b6000602082019050611dc06000830184611bd1565b92915050565b6000604082019050611ddb6000830185611bd1565b611de86020830184611d59565b9392505050565b600061010082019050611e05600083018b611bd1565b611e12602083018a611d59565b611e1f6040830189611be0565b611e2c6060830188611bd1565b611e396080830187611bef565b611e4660a0830186611d59565b611e5360c0830185611d59565b81810360e0830152611e658184611bfe565b90509998505050505050505050565b6000606082019050611e896000830186611bd1565b611e966020830185611d59565b8181036040830152611ea88184611bfe565b9050949350505050565b6000608082019050611ec76000830187611be0565b611ed46020830186611d59565b611ee16040830185611bef565b611eee6060830184611d59565b95945050505050565b60006020820190508181036000830152611f118184611c4e565b905092915050565b60006020820190508181036000830152611f3281611c87565b9050919050565b60006020820190508181036000830152611f5281611caa565b9050919050565b60006020820190508181036000830152611f7281611ccd565b9050919050565b60006020820190508181036000830152611f9281611cf0565b9050919050565b60006020820190508181036000830152611fb281611d13565b9050919050565b60006020820190508181036000830152611fd281611d36565b9050919050565b6000602082019050611fee6000830184611d59565b92915050565b6000611ffe61200f565b905061200a828261249d565b919050565b6000604051905090565b600067ffffffffffffffff82111561203457612033612632565b5b61203d82612675565b9050602081019050919050565b600081519050919050565b600081519050919050565b600082825260208201905092915050565b600082825260208201905092915050565b600061208d826123e9565b9150612098836123e9565b9250827fffffffffffffffffffffffffffffffffffffffffffffffffffffffffffffffff038211156120cd576120cc612576565b5b828201905092915050565b6000808291508390505b6001851115612122578086048111156120fe576120fd612576565b5b600185161561210d5780820291505b808102905061211b85612693565b94506120e2565b94509492505050565b6000612136826123e9565b9150612141836123e9565b925061216e7fffffffffffffffffffffffffffffffffffffffffffffffffffffffffffffffff8484612176565b905092915050565b6000826121865760019050612242565b816121945760009050612242565b81600181146121aa57600281146121b4576121e3565b6001915050612242565b60ff8411156121c6576121c5612576565b5b8360020a9150848211156121dd576121dc612576565b5b50612242565b5060208310610133831016604e8410600b84101617156122185782820a90508381111561221357612212612576565b5b612242565b61222584848460016120d8565b9250905081840481111561223c5761223b612576565b5b81810290505b9392505050565b6000612254826123e9565b915061225f836123e9565b9250817fffffffffffffffffffffffffffffffffffffffffffffffffffffffffffffffff048311821515161561229857612297612576565b5b828202905092915050565b60006122ae826123bf565b91506122b9836123bf565b9250827f8000000000000000000000000000000000000000000000000000000000000000018212600084121516156122f4576122f3612576565b5b827f7fffffffffffffffffffffffffffffffffffffffffffffffffffffffffffffff01821360008412161561232c5761232b612576565b5b828203905092915050565b6000612342826123e9565b915061234d836123e9565b9250828210156123605761235f612576565b5b828203905092915050565b6000612376826123c9565b9050919050565b60008115159050919050565b6000819050919050565b60007fffffffff0000000000000000000000000000000000000000000000000000000082169050919050565b6000819050919050565b600073ffffffffffffffffffffffffffffffffffffffff82169050919050565b6000819050919050565b60006123fe82612405565b9050919050565b600061241082612417565b9050919050565b6000612422826123c9565b9050919050565b82818337600083830152505050565b60005b8381101561245657808201518184015260208101905061243b565b83811115612465576000848401525b50505050565b6000600282049050600182168061248357607f821691505b60208210811415612497576124966125d4565b5b50919050565b6124a682612675565b810181811067ffffffffffffffff821117156124c5576124c4612632565b5b80604052505050565b60006124d9826123e9565b91507fffffffffffffffffffffffffffffffffffffffffffffffffffffffffffffffff82141561250c5761250b612576565b5b600182019050919050565b600061252282612529565b9050919050565b600061253482612686565b9050919050565b6000819050919050565b6000612550826123e9565b915061255b836123e9565b92508261256b5761256a6125a5565b5b828206905092915050565b7f4e487b7100000000000000000000000000000000000000000000000000000000600052601160045260246000fd5b7f4e487b7100000000000000000000000000000000000000000000000000000000600052601260045260246000fd5b7f4e487b7100000000000000000000000000000000000000000000000000000000600052602260045260246000fd5b7f4e487b7100000000000000000000000000000000000000000000000000000000600052603260045260246000fd5b7f4e487b7100000000000000000000000000000000000000000000000000000000600052604160045260246000fd5b600080fd5b600080fd5b600080fd5b600080fd5b6000601f19601f8301169050919050565b60008160601b9050919050565b60008160011c9050919050565b7f4d7573742062652070726f706f736564206f776e657200000000000000000000600082015250565b7f756e61626c6520746f207472616e73666572416e6443616c6c20746f206f726160008201527f636c650000000000000000000000000000000000000000000000000000000000602082015250565b7f4f6e6c792063616c6c61626c65206279206f776e657200000000000000000000600082015250565b7f556e61626c6520746f207472616e736665720000000000000000000000000000600082015250565b7f43616e6e6f74207472616e7366657220746f2073656c66000000000000000000600082015250565b7f536f75726365206d75737420626520746865206f7261636c65206f662074686560008201527f2072657175657374000000000000000000000000000000000000000000000000602082015250565b6127eb8161236b565b81146127f657600080fd5b50565b6128028161237d565b811461280d57600080fd5b50565b61281981612389565b811461282457600080fd5b50565b61283081612393565b811461283b57600080fd5b50565b612847816123e9565b811461285257600080fd5b5056fea26469706673582212201cc2e532b73d65948b714423887195490b78e8e52d63810bdb472b39acba3ff264736f6c63430008070033",
  "linkReferences": {},
  "deployedLinkReferences": {}
}