{
  "_format": "hh-sol-artifact-1",
  "contractName": "TestRequest",
  "sourceName": "contracts/oracle/TestRequest.sol",
  "abi": [
    {
      "inputs": [],
      "stateMutability": "nonpayable",
      "type": "constructor"
    },
    {
      "anonymous": false,
      "inputs": [
        {
          "indexed": true,
          "internalType": "bytes32",
          "name": "id",
          "type": "bytes32"
        }
      ],
      "name": "ChainlinkCancelled",
      "type": "event"
    },
    {
      "anonymous": false,
      "inputs": [
        {
          "indexed": true,
          "internalType": "bytes32",
          "name": "id",
          "type": "bytes32"
        }
      ],
      "name": "ChainlinkFulfilled",
      "type": "event"
    },
    {
      "anonymous": false,
      "inputs": [
        {
          "indexed": true,
          "internalType": "bytes32",
          "name": "id",
          "type": "bytes32"
        }
      ],
      "name": "ChainlinkRequested",
      "type": "event"
    },
    {
      "anonymous": false,
      "inputs": [
        {
          "indexed": true,
          "internalType": "address",
          "name": "from",
          "type": "address"
        },
        {
          "indexed": true,
          "internalType": "address",
          "name": "to",
          "type": "address"
        }
      ],
      "name": "OwnershipTransferRequested",
      "type": "event"
    },
    {
      "anonymous": false,
      "inputs": [
        {
          "indexed": true,
          "internalType": "address",
          "name": "from",
          "type": "address"
        },
        {
          "indexed": true,
          "internalType": "address",
          "name": "to",
          "type": "address"
        }
      ],
      "name": "OwnershipTransferred",
      "type": "event"
    },
    {
      "inputs": [],
      "name": "acceptOwnership",
      "outputs": [],
      "stateMutability": "nonpayable",
      "type": "function"
    },
    {
      "inputs": [
        {
          "internalType": "bytes32",
          "name": "_requestId",
          "type": "bytes32"
        },
        {
          "internalType": "uint256",
          "name": "_payment",
          "type": "uint256"
        },
        {
          "internalType": "bytes4",
          "name": "_callbackFunctionId",
          "type": "bytes4"
        },
        {
          "internalType": "uint256",
          "name": "_expiration",
          "type": "uint256"
        }
      ],
      "name": "cancelRequest",
      "outputs": [],
      "stateMutability": "nonpayable",
      "type": "function"
    },
    {
      "inputs": [
        {
          "internalType": "bytes32",
          "name": "_requestId",
          "type": "bytes32"
        },
        {
          "internalType": "bytes32",
          "name": "_market",
          "type": "bytes32"
        }
      ],
      "name": "fulfillTemplate",
      "outputs": [],
      "stateMutability": "nonpayable",
      "type": "function"
    },
    {
      "inputs": [],
      "name": "getChainlinkToken",
      "outputs": [
        {
          "internalType": "address",
          "name": "",
          "type": "address"
        }
      ],
      "stateMutability": "view",
      "type": "function"
    },
    {
      "inputs": [],
      "name": "owner",
      "outputs": [
        {
          "internalType": "address",
          "name": "",
          "type": "address"
        }
      ],
      "stateMutability": "view",
      "type": "function"
    },
    {
      "inputs": [
        {
          "internalType": "address",
          "name": "_oracle",
          "type": "address"
        },
        {
          "internalType": "string",
          "name": "_jobId",
          "type": "string"
        }
      ],
      "name": "testRequest",
      "outputs": [],
      "stateMutability": "nonpayable",
      "type": "function"
    },
    {
      "inputs": [
        {
          "internalType": "address",
          "name": "to",
          "type": "address"
        }
      ],
      "name": "transferOwnership",
      "outputs": [],
      "stateMutability": "nonpayable",
      "type": "function"
    },
    {
      "inputs": [],
      "name": "withdrawLink",
      "outputs": [],
      "stateMutability": "nonpayable",
      "type": "function"
    }
  ],
  "bytecode": "0x608060405260016004553480156200001657600080fd5b50338060008073ffffffffffffffffffffffffffffffffffffffff168273ffffffffffffffffffffffffffffffffffffffff1614156200008d576040517f08c379a00000000000000000000000000000000000000000000000000000000081526004016200008490620003e3565b60405180910390fd5b81600660006101000a81548173ffffffffffffffffffffffffffffffffffffffff021916908373ffffffffffffffffffffffffffffffffffffffff160217905550600073ffffffffffffffffffffffffffffffffffffffff168173ffffffffffffffffffffffffffffffffffffffff1614620001155762000114816200012e60201b60201c565b5b505050620001286200026060201b60201c565b620004dd565b3373ffffffffffffffffffffffffffffffffffffffff168173ffffffffffffffffffffffffffffffffffffffff161415620001a0576040517f08c379a0000000000000000000000000000000000000000000000000000000008152600401620001979062000405565b60405180910390fd5b80600760006101000a81548173ffffffffffffffffffffffffffffffffffffffff021916908373ffffffffffffffffffffffffffffffffffffffff1602179055508073ffffffffffffffffffffffffffffffffffffffff16600660009054906101000a900473ffffffffffffffffffffffffffffffffffffffff1673ffffffffffffffffffffffffffffffffffffffff167fed8889f560326eb138920d842192f0eb3dd22b4f139c87a2c57538e05bae127860405160405180910390a350565b6200030673c89bd4e1632d3a43cb03aaad5262cbe4038bc57173ffffffffffffffffffffffffffffffffffffffff166338cc48316040518163ffffffff1660e01b815260040160206040518083038186803b158015620002bf57600080fd5b505afa158015620002d4573d6000803e3d6000fd5b505050506040513d601f19601f82011682018060405250810190620002fa919062000363565b6200030860201b60201c565b565b80600260006101000a81548173ffffffffffffffffffffffffffffffffffffffff021916908373ffffffffffffffffffffffffffffffffffffffff16021790555050565b6000815190506200035d81620004c3565b92915050565b6000602082840312156200037c576200037b6200046c565b5b60006200038c848285016200034c565b91505092915050565b6000620003a460188362000427565b9150620003b18262000471565b602082019050919050565b6000620003cb60178362000427565b9150620003d8826200049a565b602082019050919050565b60006020820190508181036000830152620003fe8162000395565b9050919050565b600060208201905081810360008301526200042081620003bc565b9050919050565b600082825260208201905092915050565b600062000445826200044c565b9050919050565b600073ffffffffffffffffffffffffffffffffffffffff82169050919050565b600080fd5b7f43616e6e6f7420736574206f776e657220746f207a65726f0000000000000000600082015250565b7f43616e6e6f74207472616e7366657220746f2073656c66000000000000000000600082015250565b620004ce8162000438565b8114620004da57600080fd5b50565b61224980620004ed6000396000f3fe608060405234801561001057600080fd5b50600436106100885760003560e01c80638dc654a21161005b5780638dc654a2146100ef578063d0e18258146100f9578063ec65d0f814610115578063f2fde38b1461013157610088565b8063165d35e11461008d57806363382c3c146100ab57806379ba5097146100c75780638da5cb5b146100d1575b600080fd5b61009561014d565b6040516100a29190611845565b60405180910390f35b6100c560048036038101906100c091906115d0565b61015c565b005b6100cf610266565b005b6100d96103fd565b6040516100e69190611845565b60405180910390f35b6100f7610427565b005b610113600480360381019061010e9190611547565b610592565b005b61012f600480360381019061012a9190611610565b610677565b005b61014b6004803603810190610146919061151a565b610691565b005b60006101576106a5565b905090565b816005600082815260200190815260200160002060009054906101000a900473ffffffffffffffffffffffffffffffffffffffff1673ffffffffffffffffffffffffffffffffffffffff163373ffffffffffffffffffffffffffffffffffffffff16146101fe576040517f08c379a00000000000000000000000000000000000000000000000000000000081526004016101f590611a31565b60405180910390fd5b6005600082815260200190815260200160002060006101000a81549073ffffffffffffffffffffffffffffffffffffffff0219169055807f7cc135e0cebb02c3480ae5d74d377283180a2601f8f644edf7987b009316c63a60405160405180910390a2505050565b600760009054906101000a900473ffffffffffffffffffffffffffffffffffffffff1673ffffffffffffffffffffffffffffffffffffffff163373ffffffffffffffffffffffffffffffffffffffff16146102f6576040517f08c379a00000000000000000000000000000000000000000000000000000000081526004016102ed90611991565b60405180910390fd5b6000600660009054906101000a900473ffffffffffffffffffffffffffffffffffffffff16905033600660006101000a81548173ffffffffffffffffffffffffffffffffffffffff021916908373ffffffffffffffffffffffffffffffffffffffff1602179055506000600760006101000a81548173ffffffffffffffffffffffffffffffffffffffff021916908373ffffffffffffffffffffffffffffffffffffffff1602179055503373ffffffffffffffffffffffffffffffffffffffff168173ffffffffffffffffffffffffffffffffffffffff167f8be0079c531659141344cd1fd0a4f28419497f9722a3daafe3b4186f6b6457e060405160405180910390a350565b6000600660009054906101000a900473ffffffffffffffffffffffffffffffffffffffff16905090565b61042f6106cf565b60006104396106a5565b90508073ffffffffffffffffffffffffffffffffffffffff1663a9059cbb338373ffffffffffffffffffffffffffffffffffffffff166370a08231306040518263ffffffff1660e01b81526004016104919190611845565b60206040518083038186803b1580156104a957600080fd5b505afa1580156104bd573d6000803e3d6000fd5b505050506040513d601f19601f820116820180604052508101906104e19190611677565b6040518363ffffffff1660e01b81526004016104fe929190611860565b602060405180830381600087803b15801561051857600080fd5b505af115801561052c573d6000803e3d6000fd5b505050506040513d601f19601f8201168201806040525081019061055091906115a3565b61058f576040517f08c379a0000000000000000000000000000000000000000000000000000000008152600401610586906119f1565b60405180910390fd5b50565b61059a6106cf565b60006105b66105a883610761565b306363382c3c60e01b61078b565b905061061a6040518060400160405280600481526020017f75736572000000000000000000000000000000000000000000000000000000008152506040518060600160405280602a81526020016121ea602a9139836107bc9092919063ffffffff16565b6106656040518060400160405280600881526020017f6f726465724e756d0000000000000000000000000000000000000000000000008152506064836107ef9092919063ffffffff16565b61067183826001610822565b50505050565b61067f6106cf565b61068b848484846108ee565b50505050565b6106996106cf565b6106a281610a01565b50565b6000600260009054906101000a900473ffffffffffffffffffffffffffffffffffffffff16905090565b600660009054906101000a900473ffffffffffffffffffffffffffffffffffffffff1673ffffffffffffffffffffffffffffffffffffffff163373ffffffffffffffffffffffffffffffffffffffff161461075f576040517f08c379a0000000000000000000000000000000000000000000000000000000008152600401610756906119d1565b60405180910390fd5b565b60008082905060008151141561077d576000801b915050610786565b60208301519150505b919050565b6107936113a5565b61079b6113a5565b6107b285858584610b30909392919063ffffffff16565b9150509392505050565b6107d3828460800151610be090919063ffffffff16565b6107ea818460800151610be090919063ffffffff16565b505050565b610806828460800151610be090919063ffffffff16565b61081d818460800151610c0590919063ffffffff16565b505050565b60008060045490506001816108379190611aef565b6004819055506000634042994660e01b60008087600001513089604001518760018c6080015160000151604051602401610878989796959493929190611889565b604051602081830303815290604052907bffffffffffffffffffffffffffffffffffffffffffffffffffffffff19166020820180517bffffffffffffffffffffffffffffffffffffffffffffffffffffffff838183161783525050505090506108e386838684610cb2565b925050509392505050565b60006005600086815260200190815260200160002060009054906101000a900473ffffffffffffffffffffffffffffffffffffffff1690506005600086815260200190815260200160002060006101000a81549073ffffffffffffffffffffffffffffffffffffffff0219169055847fe1fe3afa0f7f761ff0a8b89086790efd5140d2907ebd5b7ff6bfcb5e075fd4c560405160405180910390a28073ffffffffffffffffffffffffffffffffffffffff16636ee4d553868686866040518563ffffffff1660e01b81526004016109c8949392919061194c565b600060405180830381600087803b1580156109e257600080fd5b505af11580156109f6573d6000803e3d6000fd5b505050505050505050565b3373ffffffffffffffffffffffffffffffffffffffff168173ffffffffffffffffffffffffffffffffffffffff161415610a70576040517f08c379a0000000000000000000000000000000000000000000000000000000008152600401610a6790611a11565b60405180910390fd5b80600760006101000a81548173ffffffffffffffffffffffffffffffffffffffff021916908373ffffffffffffffffffffffffffffffffffffffff1602179055508073ffffffffffffffffffffffffffffffffffffffff16600660009054906101000a900473ffffffffffffffffffffffffffffffffffffffff1673ffffffffffffffffffffffffffffffffffffffff167fed8889f560326eb138920d842192f0eb3dd22b4f139c87a2c57538e05bae127860405160405180910390a350565b610b386113a5565b610b488560800151610100610e56565b508385600001818152505082856020019073ffffffffffffffffffffffffffffffffffffffff16908173ffffffffffffffffffffffffffffffffffffffff16815250508185604001907bffffffffffffffffffffffffffffffffffffffffffffffffffffffff191690817bffffffffffffffffffffffffffffffffffffffffffffffffffffffff191681525050849050949350505050565b610bed8260038351610ec0565b610c00818361104590919063ffffffff16565b505050565b7fffffffffffffffffffffffffffffffffffffffffffffffff0000000000000000811215610c3c57610c378282611067565b610cae565b67ffffffffffffffff811315610c5b57610c5682826110de565b610cad565b60008112610c7457610c6f82600083610ec0565b610cac565b610cab826001837fffffffffffffffffffffffffffffffffffffffffffffffffffffffffffffffff610ca69190611d10565b610ec0565b5b5b5b5050565b60003084604051602001610cc7929190611819565b604051602081830303815290604052805190602001209050846005600083815260200190815260200160002060006101000a81548173ffffffffffffffffffffffffffffffffffffffff021916908373ffffffffffffffffffffffffffffffffffffffff160217905550807fb5e6e01e79f91267dc17b4e6314d5d4d03593d2ceee0fbb452b750bd70ea5af960405160405180910390a2600260009054906101000a900473ffffffffffffffffffffffffffffffffffffffff1673ffffffffffffffffffffffffffffffffffffffff16634000aea08685856040518463ffffffff1660e01b8152600401610dbd9392919061190e565b602060405180830381600087803b158015610dd757600080fd5b505af1158015610deb573d6000803e3d6000fd5b505050506040513d601f19601f82011682018060405250810190610e0f91906115a3565b610e4e576040517f08c379a0000000000000000000000000000000000000000000000000000000008152600401610e45906119b1565b60405180910390fd5b949350505050565b610e5e611412565b6000602083610e6d9190611f37565b14610e9957602082610e7f9190611f37565b6020610e8b9190611da4565b82610e969190611aef565b91505b81836020018181525050604051808452600081528281016020016040525082905092915050565b60178167ffffffffffffffff1611610ef757610ef18160058460ff16901b60ff16178461112a90919063ffffffff16565b50611040565b60ff8167ffffffffffffffff1611610f4d57610f26601860058460ff16901b178461112a90919063ffffffff16565b50610f478167ffffffffffffffff1660018561114a9092919063ffffffff16565b5061103f565b61ffff8167ffffffffffffffff1611610fa457610f7d601960058460ff16901b178461112a90919063ffffffff16565b50610f9e8167ffffffffffffffff1660028561114a9092919063ffffffff16565b5061103e565b63ffffffff8167ffffffffffffffff1611610ffd57610fd6601a60058460ff16901b178461112a90919063ffffffff16565b50610ff78167ffffffffffffffff1660048561114a9092919063ffffffff16565b5061103d565b61101a601b60058460ff16901b178461112a90919063ffffffff16565b5061103b8167ffffffffffffffff1660088561114a9092919063ffffffff16565b505b5b5b5b505050565b61104d611412565b61105f8384600001515184855161116c565b905092915050565b61108560036005600660ff16901b178361112a90919063ffffffff16565b506110da82827fffffffffffffffffffffffffffffffffffffffffffffffffffffffffffffffff6110b69190611d10565b6040516020016110c69190611a51565b60405160208183030381529060405261125b565b5050565b6110fc60026005600660ff16901b178361112a90919063ffffffff16565b5061112682826040516020016111129190611a51565b60405160208183030381529060405261125b565b5050565b611132611412565b6111428384600001515184611280565b905092915050565b611152611412565b6111638485600001515185856112d7565b90509392505050565b611174611412565b825182111561118257600080fd5b846020015182856111939190611aef565b11156111c8576111c78560026111b8886020015188876111b39190611aef565b611365565b6111c29190611cb6565b611381565b5b6000808651805187602083010193508088870111156111e75787860182525b60208701925050505b6020841061122e57805182526020826112099190611aef565b91506020816112189190611aef565b90506020846112279190611da4565b93506111f0565b60006001856020036101000a03905080198251168184511681811785525050508692505050949350505050565b6112688260028351610ec0565b61127b818361104590919063ffffffff16565b505050565b611288611412565b836020015183106112ae576112ad84600286602001516112a89190611cb6565b611381565b5b83518051602085830101848153818614156112ca576001820183525b5050508390509392505050565b6112df611412565b846020015184836112f09190611aef565b11156113185761131785600286856113089190611aef565b6113129190611cb6565b611381565b5b600060018361010061132a9190611b98565b6113349190611da4565b905085518386820101858319825116178152815185880111156113575784870182525b505085915050949350505050565b6000818311156113775782905061137b565b8190505b92915050565b6000826000015190506113948383610e56565b5061139f8382611045565b50505050565b6040518060a0016040528060008019168152602001600073ffffffffffffffffffffffffffffffffffffffff16815260200160007bffffffffffffffffffffffffffffffffffffffffffffffffffffffff191681526020016000815260200161140c611412565b81525090565b604051806040016040528060608152602001600081525090565b600061143f61143a84611a91565b611a6c565b90508281526020810184848401111561145b5761145a611ffa565b5b611466848285611e96565b509392505050565b60008135905061147d81612176565b92915050565b6000815190506114928161218d565b92915050565b6000813590506114a7816121a4565b92915050565b6000813590506114bc816121bb565b92915050565b600082601f8301126114d7576114d6611ff5565b5b81356114e784826020860161142c565b91505092915050565b6000813590506114ff816121d2565b92915050565b600081519050611514816121d2565b92915050565b6000602082840312156115305761152f612004565b5b600061153e8482850161146e565b91505092915050565b6000806040838503121561155e5761155d612004565b5b600061156c8582860161146e565b925050602083013567ffffffffffffffff81111561158d5761158c611fff565b5b611599858286016114c2565b9150509250929050565b6000602082840312156115b9576115b8612004565b5b60006115c784828501611483565b91505092915050565b600080604083850312156115e7576115e6612004565b5b60006115f585828601611498565b925050602061160685828601611498565b9150509250929050565b6000806000806080858703121561162a57611629612004565b5b600061163887828801611498565b9450506020611649878288016114f0565b935050604061165a878288016114ad565b925050606061166b878288016114f0565b91505092959194509250565b60006020828403121561168d5761168c612004565b5b600061169b84828501611505565b91505092915050565b6116ad81611dd8565b82525050565b6116bc81611df6565b82525050565b6116cb81611e00565b82525050565b60006116dc82611ac2565b6116e68185611acd565b93506116f6818560208601611ea5565b6116ff81612009565b840191505092915050565b61171b61171682611e60565b611f09565b82525050565b600061172e601683611ade565b915061173982612034565b602082019050919050565b6000611751602383611ade565b915061175c8261205d565b604082019050919050565b6000611774601683611ade565b915061177f826120ac565b602082019050919050565b6000611797601283611ade565b91506117a2826120d5565b602082019050919050565b60006117ba601783611ade565b91506117c5826120fe565b602082019050919050565b60006117dd602883611ade565b91506117e882612127565b604082019050919050565b6117fc81611e56565b82525050565b61181361180e82611e56565b611f2d565b82525050565b6000611825828561170a565b6014820191506118358284611802565b6020820191508190509392505050565b600060208201905061185a60008301846116a4565b92915050565b600060408201905061187560008301856116a4565b61188260208301846117f3565b9392505050565b60006101008201905061189f600083018b6116a4565b6118ac602083018a6117f3565b6118b960408301896116b3565b6118c660608301886116a4565b6118d360808301876116c2565b6118e060a08301866117f3565b6118ed60c08301856117f3565b81810360e08301526118ff81846116d1565b90509998505050505050505050565b600060608201905061192360008301866116a4565b61193060208301856117f3565b818103604083015261194281846116d1565b9050949350505050565b600060808201905061196160008301876116b3565b61196e60208301866117f3565b61197b60408301856116c2565b61198860608301846117f3565b95945050505050565b600060208201905081810360008301526119aa81611721565b9050919050565b600060208201905081810360008301526119ca81611744565b9050919050565b600060208201905081810360008301526119ea81611767565b9050919050565b60006020820190508181036000830152611a0a8161178a565b9050919050565b60006020820190508181036000830152611a2a816117ad565b9050919050565b60006020820190508181036000830152611a4a816117d0565b9050919050565b6000602082019050611a6660008301846117f3565b92915050565b6000611a76611a87565b9050611a828282611ed8565b919050565b6000604051905090565b600067ffffffffffffffff821115611aac57611aab611fc6565b5b611ab582612009565b9050602081019050919050565b600081519050919050565b600082825260208201905092915050565b600082825260208201905092915050565b6000611afa82611e56565b9150611b0583611e56565b9250827fffffffffffffffffffffffffffffffffffffffffffffffffffffffffffffffff03821115611b3a57611b39611f68565b5b828201905092915050565b6000808291508390505b6001851115611b8f57808604811115611b6b57611b6a611f68565b5b6001851615611b7a5780820291505b8081029050611b8885612027565b9450611b4f565b94509492505050565b6000611ba382611e56565b9150611bae83611e56565b9250611bdb7fffffffffffffffffffffffffffffffffffffffffffffffffffffffffffffffff8484611be3565b905092915050565b600082611bf35760019050611caf565b81611c015760009050611caf565b8160018114611c175760028114611c2157611c50565b6001915050611caf565b60ff841115611c3357611c32611f68565b5b8360020a915084821115611c4a57611c49611f68565b5b50611caf565b5060208310610133831016604e8410600b8410161715611c855782820a905083811115611c8057611c7f611f68565b5b611caf565b611c928484846001611b45565b92509050818404811115611ca957611ca8611f68565b5b81810290505b9392505050565b6000611cc182611e56565b9150611ccc83611e56565b9250817fffffffffffffffffffffffffffffffffffffffffffffffffffffffffffffffff0483118215151615611d0557611d04611f68565b5b828202905092915050565b6000611d1b82611e2c565b9150611d2683611e2c565b9250827f800000000000000000000000000000000000000000000000000000000000000001821260008412151615611d6157611d60611f68565b5b827f7fffffffffffffffffffffffffffffffffffffffffffffffffffffffffffffff018213600084121615611d9957611d98611f68565b5b828203905092915050565b6000611daf82611e56565b9150611dba83611e56565b925082821015611dcd57611dcc611f68565b5b828203905092915050565b6000611de382611e36565b9050919050565b60008115159050919050565b6000819050919050565b60007fffffffff0000000000000000000000000000000000000000000000000000000082169050919050565b6000819050919050565b600073ffffffffffffffffffffffffffffffffffffffff82169050919050565b6000819050919050565b6000611e6b82611e72565b9050919050565b6000611e7d82611e84565b9050919050565b6000611e8f82611e36565b9050919050565b82818337600083830152505050565b60005b83811015611ec3578082015181840152602081019050611ea8565b83811115611ed2576000848401525b50505050565b611ee182612009565b810181811067ffffffffffffffff82111715611f0057611eff611fc6565b5b80604052505050565b6000611f1482611f1b565b9050919050565b6000611f268261201a565b9050919050565b6000819050919050565b6000611f4282611e56565b9150611f4d83611e56565b925082611f5d57611f5c611f97565b5b828206905092915050565b7f4e487b7100000000000000000000000000000000000000000000000000000000600052601160045260246000fd5b7f4e487b7100000000000000000000000000000000000000000000000000000000600052601260045260246000fd5b7f4e487b7100000000000000000000000000000000000000000000000000000000600052604160045260246000fd5b600080fd5b600080fd5b600080fd5b600080fd5b6000601f19601f8301169050919050565b60008160601b9050919050565b60008160011c9050919050565b7f4d7573742062652070726f706f736564206f776e657200000000000000000000600082015250565b7f756e61626c6520746f207472616e73666572416e6443616c6c20746f206f726160008201527f636c650000000000000000000000000000000000000000000000000000000000602082015250565b7f4f6e6c792063616c6c61626c65206279206f776e657200000000000000000000600082015250565b7f556e61626c6520746f207472616e736665720000000000000000000000000000600082015250565b7f43616e6e6f74207472616e7366657220746f2073656c66000000000000000000600082015250565b7f536f75726365206d75737420626520746865206f7261636c65206f662074686560008201527f2072657175657374000000000000000000000000000000000000000000000000602082015250565b61217f81611dd8565b811461218a57600080fd5b50565b61219681611dea565b81146121a157600080fd5b50565b6121ad81611df6565b81146121b857600080fd5b50565b6121c481611e00565b81146121cf57600080fd5b50565b6121db81611e56565b81146121e657600080fd5b5056fe307830303030303030303030303030303030303030303030303030303030303030303030303030303030a2646970667358221220533ca66cb564da9553460b01e9264ec18c11f83f9e4bcfcf80a9665ccc14537864736f6c63430008070033",
  "linkReferences": {},
  "deployedLinkReferences": {}
}