{
  "_format": "hh-sol-artifact-1",
  "contractName": "ATestnetConsumer",
  "sourceName": "contracts/oracle/ATestnetConsumer.sol",
  "abi": [
    {
      "inputs": [],
      "stateMutability": "nonpayable",
      "type": "constructor"
    },
    {
      "anonymous": false,
      "inputs": [
        {
          "indexed": true,
          "internalType": "bytes32",
          "name": "id",
          "type": "bytes32"
        }
      ],
      "name": "ChainlinkCancelled",
      "type": "event"
    },
    {
      "anonymous": false,
      "inputs": [
        {
          "indexed": true,
          "internalType": "bytes32",
          "name": "id",
          "type": "bytes32"
        }
      ],
      "name": "ChainlinkFulfilled",
      "type": "event"
    },
    {
      "anonymous": false,
      "inputs": [
        {
          "indexed": true,
          "internalType": "bytes32",
          "name": "id",
          "type": "bytes32"
        }
      ],
      "name": "ChainlinkRequested",
      "type": "event"
    },
    {
      "anonymous": false,
      "inputs": [
        {
          "indexed": true,
          "internalType": "address",
          "name": "from",
          "type": "address"
        },
        {
          "indexed": true,
          "internalType": "address",
          "name": "to",
          "type": "address"
        }
      ],
      "name": "OwnershipTransferRequested",
      "type": "event"
    },
    {
      "anonymous": false,
      "inputs": [
        {
          "indexed": true,
          "internalType": "address",
          "name": "from",
          "type": "address"
        },
        {
          "indexed": true,
          "internalType": "address",
          "name": "to",
          "type": "address"
        }
      ],
      "name": "OwnershipTransferred",
      "type": "event"
    },
    {
      "anonymous": false,
      "inputs": [
        {
          "indexed": true,
          "internalType": "bytes32",
          "name": "requestId",
          "type": "bytes32"
        },
        {
          "indexed": true,
          "internalType": "int256",
          "name": "change",
          "type": "int256"
        }
      ],
      "name": "RequestEthereumChangeFulfilled",
      "type": "event"
    },
    {
      "anonymous": false,
      "inputs": [
        {
          "indexed": true,
          "internalType": "bytes32",
          "name": "requestId",
          "type": "bytes32"
        },
        {
          "indexed": true,
          "internalType": "bytes32",
          "name": "market",
          "type": "bytes32"
        }
      ],
      "name": "RequestEthereumLastMarket",
      "type": "event"
    },
    {
      "anonymous": false,
      "inputs": [
        {
          "indexed": true,
          "internalType": "bytes32",
          "name": "requestId",
          "type": "bytes32"
        },
        {
          "indexed": true,
          "internalType": "uint256",
          "name": "price",
          "type": "uint256"
        }
      ],
      "name": "RequestEthereumPriceFulfilled",
      "type": "event"
    },
    {
      "inputs": [],
      "name": "acceptOwnership",
      "outputs": [],
      "stateMutability": "nonpayable",
      "type": "function"
    },
    {
      "inputs": [
        {
          "internalType": "bytes32",
          "name": "_requestId",
          "type": "bytes32"
        },
        {
          "internalType": "uint256",
          "name": "_payment",
          "type": "uint256"
        },
        {
          "internalType": "bytes4",
          "name": "_callbackFunctionId",
          "type": "bytes4"
        },
        {
          "internalType": "uint256",
          "name": "_expiration",
          "type": "uint256"
        }
      ],
      "name": "cancelRequest",
      "outputs": [],
      "stateMutability": "nonpayable",
      "type": "function"
    },
    {
      "inputs": [],
      "name": "changeDay",
      "outputs": [
        {
          "internalType": "int256",
          "name": "",
          "type": "int256"
        }
      ],
      "stateMutability": "view",
      "type": "function"
    },
    {
      "inputs": [],
      "name": "currentPrice",
      "outputs": [
        {
          "internalType": "uint256",
          "name": "",
          "type": "uint256"
        }
      ],
      "stateMutability": "view",
      "type": "function"
    },
    {
      "inputs": [
        {
          "internalType": "bytes32",
          "name": "_requestId",
          "type": "bytes32"
        },
        {
          "internalType": "int256",
          "name": "_change",
          "type": "int256"
        }
      ],
      "name": "fulfillEthereumChange",
      "outputs": [],
      "stateMutability": "nonpayable",
      "type": "function"
    },
    {
      "inputs": [
        {
          "internalType": "bytes32",
          "name": "_requestId",
          "type": "bytes32"
        },
        {
          "internalType": "bytes32",
          "name": "_market",
          "type": "bytes32"
        }
      ],
      "name": "fulfillEthereumLastMarket",
      "outputs": [],
      "stateMutability": "nonpayable",
      "type": "function"
    },
    {
      "inputs": [
        {
          "internalType": "bytes32",
          "name": "_requestId",
          "type": "bytes32"
        },
        {
          "internalType": "uint256",
          "name": "_price",
          "type": "uint256"
        }
      ],
      "name": "fulfillEthereumPrice",
      "outputs": [],
      "stateMutability": "nonpayable",
      "type": "function"
    },
    {
      "inputs": [],
      "name": "getChainlinkToken",
      "outputs": [
        {
          "internalType": "address",
          "name": "",
          "type": "address"
        }
      ],
      "stateMutability": "view",
      "type": "function"
    },
    {
      "inputs": [],
      "name": "lastMarket",
      "outputs": [
        {
          "internalType": "bytes32",
          "name": "",
          "type": "bytes32"
        }
      ],
      "stateMutability": "view",
      "type": "function"
    },
    {
      "inputs": [],
      "name": "owner",
      "outputs": [
        {
          "internalType": "address",
          "name": "",
          "type": "address"
        }
      ],
      "stateMutability": "view",
      "type": "function"
    },
    {
      "inputs": [
        {
          "internalType": "address",
          "name": "_oracle",
          "type": "address"
        },
        {
          "internalType": "string",
          "name": "_jobId",
          "type": "string"
        }
      ],
      "name": "requestEthereumChange",
      "outputs": [],
      "stateMutability": "nonpayable",
      "type": "function"
    },
    {
      "inputs": [
        {
          "internalType": "address",
          "name": "_oracle",
          "type": "address"
        },
        {
          "internalType": "string",
          "name": "_jobId",
          "type": "string"
        }
      ],
      "name": "requestEthereumLastMarket",
      "outputs": [],
      "stateMutability": "nonpayable",
      "type": "function"
    },
    {
      "inputs": [
        {
          "internalType": "address",
          "name": "_oracle",
          "type": "address"
        },
        {
          "internalType": "string",
          "name": "_jobId",
          "type": "string"
        }
      ],
      "name": "requestEthereumPrice",
      "outputs": [],
      "stateMutability": "nonpayable",
      "type": "function"
    },
    {
      "inputs": [
        {
          "internalType": "address",
          "name": "to",
          "type": "address"
        }
      ],
      "name": "transferOwnership",
      "outputs": [],
      "stateMutability": "nonpayable",
      "type": "function"
    },
    {
      "inputs": [],
      "name": "withdrawLink",
      "outputs": [],
      "stateMutability": "nonpayable",
      "type": "function"
    }
  ],
  "bytecode": "0x608060405260016004553480156200001657600080fd5b50338060008073ffffffffffffffffffffffffffffffffffffffff168273ffffffffffffffffffffffffffffffffffffffff1614156200008d576040517f08c379a00000000000000000000000000000000000000000000000000000000081526004016200008490620003e3565b60405180910390fd5b81600660006101000a81548173ffffffffffffffffffffffffffffffffffffffff021916908373ffffffffffffffffffffffffffffffffffffffff160217905550600073ffffffffffffffffffffffffffffffffffffffff168173ffffffffffffffffffffffffffffffffffffffff1614620001155762000114816200012e60201b60201c565b5b505050620001286200026060201b60201c565b620004dd565b3373ffffffffffffffffffffffffffffffffffffffff168173ffffffffffffffffffffffffffffffffffffffff161415620001a0576040517f08c379a0000000000000000000000000000000000000000000000000000000008152600401620001979062000405565b60405180910390fd5b80600760006101000a81548173ffffffffffffffffffffffffffffffffffffffff021916908373ffffffffffffffffffffffffffffffffffffffff1602179055508073ffffffffffffffffffffffffffffffffffffffff16600660009054906101000a900473ffffffffffffffffffffffffffffffffffffffff1673ffffffffffffffffffffffffffffffffffffffff167fed8889f560326eb138920d842192f0eb3dd22b4f139c87a2c57538e05bae127860405160405180910390a350565b6200030673c89bd4e1632d3a43cb03aaad5262cbe4038bc57173ffffffffffffffffffffffffffffffffffffffff166338cc48316040518163ffffffff1660e01b815260040160206040518083038186803b158015620002bf57600080fd5b505afa158015620002d4573d6000803e3d6000fd5b505050506040513d601f19601f82011682018060405250810190620002fa919062000363565b6200030860201b60201c565b565b80600260006101000a81548173ffffffffffffffffffffffffffffffffffffffff021916908373ffffffffffffffffffffffffffffffffffffffff16021790555050565b6000815190506200035d81620004c3565b92915050565b6000602082840312156200037c576200037b6200046c565b5b60006200038c848285016200034c565b91505092915050565b6000620003a460188362000427565b9150620003b18262000471565b602082019050919050565b6000620003cb60178362000427565b9150620003d8826200049a565b602082019050919050565b60006020820190508181036000830152620003fe8162000395565b9050919050565b600060208201905081810360008301526200042081620003bc565b9050919050565b600082825260208201905092915050565b600062000445826200044c565b9050919050565b600073ffffffffffffffffffffffffffffffffffffffff82169050919050565b600080fd5b7f43616e6e6f7420736574206f776e657220746f207a65726f0000000000000000600082015250565b7f43616e6e6f74207472616e7366657220746f2073656c66000000000000000000600082015250565b620004ce8162000438565b8114620004da57600080fd5b50565b612d7c80620004ed6000396000f3fe608060405234801561001057600080fd5b50600436106100f55760003560e01c806392cdaaf311610097578063e9edbf0311610066578063e9edbf0314610212578063ec65d0f814610230578063f2fde38b1461024c578063f3bdf8ba14610268576100f5565b806392cdaaf3146101a05780639d1b464a146101bc578063a46fbe1a146101da578063ab643c10146101f6576100f5565b8063619cba1a116100d3578063619cba1a1461015257806379ba50971461016e5780638da5cb5b146101785780638dc654a214610196576100f5565b8063165d35e1146100fa5780632183abd11461011857806349556aff14610136575b600080fd5b610102610284565b60405161010f9190612255565b60405180910390f35b610120610293565b60405161012d91906123bc565b60405180910390f35b610150600480360381019061014b9190611f51565b610299565b005b61016c60048036038101906101679190611ec8565b6103d8565b005b610176610552565b005b6101806106e9565b60405161018d9190612255565b60405180910390f35b61019e610713565b005b6101ba60048036038101906101b59190611fd1565b61087e565b005b6101c46109bd565b6040516101d19190612497565b60405180910390f35b6101f460048036038101906101ef9190611f91565b6109c3565b005b610210600480360381019061020b9190611ec8565b610b02565b005b61021a610c79565b604051610227919061235c565b60405180910390f35b61024a60048036038101906102459190612011565b610c7f565b005b61026660048036038101906102619190611e9b565b610c99565b005b610282600480360381019061027d9190611ec8565b610cad565b005b600061028e610f4c565b905090565b60095481565b816005600082815260200190815260200160002060009054906101000a900473ffffffffffffffffffffffffffffffffffffffff1673ffffffffffffffffffffffffffffffffffffffff163373ffffffffffffffffffffffffffffffffffffffff161461033b576040517f08c379a000000000000000000000000000000000000000000000000000000000815260040161033290612477565b60405180910390fd5b6005600082815260200190815260200160002060006101000a81549073ffffffffffffffffffffffffffffffffffffffff0219169055807f7cc135e0cebb02c3480ae5d74d377283180a2601f8f644edf7987b009316c63a60405160405180910390a281837f1a7783cfc5355cd0706abec2229662cda9cefcfc8aeb31fec8b391ba5eb67cbe60405160405180910390a381600a81905550505050565b6103e0610f76565b60006103fc6103ee83611008565b3063a46fbe1a60e01b611032565b90506104606040518060400160405280600381526020017f6765740000000000000000000000000000000000000000000000000000000000815250604051806080016040528060498152602001612cfe60499139836110639092919063ffffffff16565b6104df6040518060400160405280600481526020017f70617468000000000000000000000000000000000000000000000000000000008152506040518060400160405280601881526020017f5241572e4554482e5553442e4348414e47455043544441590000000000000000815250836110639092919063ffffffff16565b61052d6040518060400160405280600581526020017f74696d6573000000000000000000000000000000000000000000000000000000815250633b9aca00836110969092919063ffffffff16565b61054c8382670de0b6b3a7640000600161054791906126fc565b6110c9565b50505050565b600760009054906101000a900473ffffffffffffffffffffffffffffffffffffffff1673ffffffffffffffffffffffffffffffffffffffff163373ffffffffffffffffffffffffffffffffffffffff16146105e2576040517f08c379a00000000000000000000000000000000000000000000000000000000081526004016105d9906123d7565b60405180910390fd5b6000600660009054906101000a900473ffffffffffffffffffffffffffffffffffffffff16905033600660006101000a81548173ffffffffffffffffffffffffffffffffffffffff021916908373ffffffffffffffffffffffffffffffffffffffff1602179055506000600760006101000a81548173ffffffffffffffffffffffffffffffffffffffff021916908373ffffffffffffffffffffffffffffffffffffffff1602179055503373ffffffffffffffffffffffffffffffffffffffff168173ffffffffffffffffffffffffffffffffffffffff167f8be0079c531659141344cd1fd0a4f28419497f9722a3daafe3b4186f6b6457e060405160405180910390a350565b6000600660009054906101000a900473ffffffffffffffffffffffffffffffffffffffff16905090565b61071b610f76565b6000610725610f4c565b90508073ffffffffffffffffffffffffffffffffffffffff1663a9059cbb338373ffffffffffffffffffffffffffffffffffffffff166370a08231306040518263ffffffff1660e01b815260040161077d9190612255565b60206040518083038186803b15801561079557600080fd5b505afa1580156107a9573d6000803e3d6000fd5b505050506040513d601f19601f820116820180604052508101906107cd9190612078565b6040518363ffffffff1660e01b81526004016107ea929190612270565b602060405180830381600087803b15801561080457600080fd5b505af1158015610818573d6000803e3d6000fd5b505050506040513d601f19601f8201168201806040525081019061083c9190611f24565b61087b576040517f08c379a000000000000000000000000000000000000000000000000000000000815260040161087290612437565b60405180910390fd5b50565b816005600082815260200190815260200160002060009054906101000a900473ffffffffffffffffffffffffffffffffffffffff1673ffffffffffffffffffffffffffffffffffffffff163373ffffffffffffffffffffffffffffffffffffffff1614610920576040517f08c379a000000000000000000000000000000000000000000000000000000000815260040161091790612477565b60405180910390fd5b6005600082815260200190815260200160002060006101000a81549073ffffffffffffffffffffffffffffffffffffffff0219169055807f7cc135e0cebb02c3480ae5d74d377283180a2601f8f644edf7987b009316c63a60405160405180910390a281837f794eb9e29f6750ede99e05248d997a9ab9fa23c4a7eaff8afa729080eb7c642860405160405180910390a381600881905550505050565b60085481565b816005600082815260200190815260200160002060009054906101000a900473ffffffffffffffffffffffffffffffffffffffff1673ffffffffffffffffffffffffffffffffffffffff163373ffffffffffffffffffffffffffffffffffffffff1614610a65576040517f08c379a0000000000000000000000000000000000000000000000000000000008152600401610a5c90612477565b60405180910390fd5b6005600082815260200190815260200160002060006101000a81549073ffffffffffffffffffffffffffffffffffffffff0219169055807f7cc135e0cebb02c3480ae5d74d377283180a2601f8f644edf7987b009316c63a60405160405180910390a281837f36f03c766dbeb725bf2a1e6cf2d934a02bf3cd9644b55767c8f41ef2d4af061260405160405180910390a381600981905550505050565b610b0a610f76565b6000610b26610b1883611008565b306392cdaaf360e01b611032565b9050610b8a6040518060400160405280600381526020017f67657400000000000000000000000000000000000000000000000000000000008152506040518060600160405280603f8152602001612cbf603f9139836110639092919063ffffffff16565b610c096040518060400160405280600481526020017f70617468000000000000000000000000000000000000000000000000000000008152506040518060400160405280600381526020017f5553440000000000000000000000000000000000000000000000000000000000815250836110639092919063ffffffff16565b610c546040518060400160405280600581526020017f74696d65730000000000000000000000000000000000000000000000000000008152506064836110969092919063ffffffff16565b610c738382670de0b6b3a76400006001610c6e91906126fc565b6110c9565b50505050565b600a5481565b610c87610f76565b610c9384848484611195565b50505050565b610ca1610f76565b610caa816112a8565b50565b610cb5610f76565b6000610cd1610cc383611008565b306349556aff60e01b611032565b9050610d356040518060400160405280600381526020017f6765740000000000000000000000000000000000000000000000000000000000815250604051806080016040528060498152602001612cfe60499139836110639092919063ffffffff16565b6000600467ffffffffffffffff811115610d5257610d51612a84565b5b604051908082528060200260200182016040528015610d8557816020015b6060815260200190600190039081610d705790505b5090506040518060400160405280600381526020017f524157000000000000000000000000000000000000000000000000000000000081525081600081518110610dd257610dd1612a55565b5b60200260200101819052506040518060400160405280600381526020017f455448000000000000000000000000000000000000000000000000000000000081525081600181518110610e2757610e26612a55565b5b60200260200101819052506040518060400160405280600381526020017f555344000000000000000000000000000000000000000000000000000000000081525081600281518110610e7c57610e7b612a55565b5b60200260200101819052506040518060400160405280600a81526020017f4c4153544d41524b45540000000000000000000000000000000000000000000081525081600381518110610ed157610ed0612a55565b5b6020026020010181905250610f266040518060400160405280600481526020017f706174680000000000000000000000000000000000000000000000000000000081525082846113d79092919063ffffffff16565b610f458483670de0b6b3a76400006001610f4091906126fc565b6110c9565b5050505050565b6000600260009054906101000a900473ffffffffffffffffffffffffffffffffffffffff16905090565b600660009054906101000a900473ffffffffffffffffffffffffffffffffffffffff1673ffffffffffffffffffffffffffffffffffffffff163373ffffffffffffffffffffffffffffffffffffffff1614611006576040517f08c379a0000000000000000000000000000000000000000000000000000000008152600401610ffd90612417565b60405180910390fd5b565b600080829050600081511415611024576000801b91505061102d565b60208301519150505b919050565b61103a611d11565b611042611d11565b6110598585858461145e909392919063ffffffff16565b9150509392505050565b61107a82846080015161150e90919063ffffffff16565b61109181846080015161150e90919063ffffffff16565b505050565b6110ad82846080015161150e90919063ffffffff16565b6110c481846080015161153390919063ffffffff16565b505050565b60008060045490506001816110de9190612535565b6004819055506000634042994660e01b60008087600001513089604001518760018c608001516000015160405160240161111f989796959493929190612299565b604051602081830303815290604052907bffffffffffffffffffffffffffffffffffffffffffffffffffffffff19166020820180517bffffffffffffffffffffffffffffffffffffffffffffffffffffffff8381831617835250505050905061118a868386846115e0565b925050509392505050565b60006005600086815260200190815260200160002060009054906101000a900473ffffffffffffffffffffffffffffffffffffffff1690506005600086815260200190815260200160002060006101000a81549073ffffffffffffffffffffffffffffffffffffffff0219169055847fe1fe3afa0f7f761ff0a8b89086790efd5140d2907ebd5b7ff6bfcb5e075fd4c560405160405180910390a28073ffffffffffffffffffffffffffffffffffffffff16636ee4d553868686866040518563ffffffff1660e01b815260040161126f9493929190612377565b600060405180830381600087803b15801561128957600080fd5b505af115801561129d573d6000803e3d6000fd5b505050505050505050565b3373ffffffffffffffffffffffffffffffffffffffff168173ffffffffffffffffffffffffffffffffffffffff161415611317576040517f08c379a000000000000000000000000000000000000000000000000000000000815260040161130e90612457565b60405180910390fd5b80600760006101000a81548173ffffffffffffffffffffffffffffffffffffffff021916908373ffffffffffffffffffffffffffffffffffffffff1602179055508073ffffffffffffffffffffffffffffffffffffffff16600660009054906101000a900473ffffffffffffffffffffffffffffffffffffffff1673ffffffffffffffffffffffffffffffffffffffff167fed8889f560326eb138920d842192f0eb3dd22b4f139c87a2c57538e05bae127860405160405180910390a350565b6113ee82846080015161150e90919063ffffffff16565b6113fb8360800151611784565b60005b815181101561144b5761143882828151811061141d5761141c612a55565b5b6020026020010151856080015161150e90919063ffffffff16565b80806114439061294f565b9150506113fe565b506114598360800151611792565b505050565b611466611d11565b61147685608001516101006117a0565b508385600001818152505082856020019073ffffffffffffffffffffffffffffffffffffffff16908173ffffffffffffffffffffffffffffffffffffffff16815250508185604001907bffffffffffffffffffffffffffffffffffffffffffffffffffffffff191690817bffffffffffffffffffffffffffffffffffffffffffffffffffffffff191681525050849050949350505050565b61151b826003835161180a565b61152e818361198f90919063ffffffff16565b505050565b7fffffffffffffffffffffffffffffffffffffffffffffffff000000000000000081121561156a5761156582826119b1565b6115dc565b67ffffffffffffffff811315611589576115848282611a28565b6115db565b600081126115a25761159d8260008361180a565b6115da565b6115d9826001837fffffffffffffffffffffffffffffffffffffffffffffffffffffffffffffffff6115d49190612756565b61180a565b5b5b5b5050565b600030846040516020016115f5929190612229565b604051602081830303815290604052805190602001209050846005600083815260200190815260200160002060006101000a81548173ffffffffffffffffffffffffffffffffffffffff021916908373ffffffffffffffffffffffffffffffffffffffff160217905550807fb5e6e01e79f91267dc17b4e6314d5d4d03593d2ceee0fbb452b750bd70ea5af960405160405180910390a2600260009054906101000a900473ffffffffffffffffffffffffffffffffffffffff1673ffffffffffffffffffffffffffffffffffffffff16634000aea08685856040518463ffffffff1660e01b81526004016116eb9392919061231e565b602060405180830381600087803b15801561170557600080fd5b505af1158015611719573d6000803e3d6000fd5b505050506040513d601f19601f8201168201806040525081019061173d9190611f24565b61177c576040517f08c379a0000000000000000000000000000000000000000000000000000000008152600401611773906123f7565b60405180910390fd5b949350505050565b61178f816004611a74565b50565b61179d816007611a74565b50565b6117a8611d7e565b60006020836117b791906129c6565b146117e3576020826117c991906129c6565b60206117d591906127ea565b826117e09190612535565b91505b81836020018181525050604051808452600081528281016020016040525082905092915050565b60178167ffffffffffffffff16116118415761183b8160058460ff16901b60ff161784611a9690919063ffffffff16565b5061198a565b60ff8167ffffffffffffffff161161189757611870601860058460ff16901b1784611a9690919063ffffffff16565b506118918167ffffffffffffffff16600185611ab69092919063ffffffff16565b50611989565b61ffff8167ffffffffffffffff16116118ee576118c7601960058460ff16901b1784611a9690919063ffffffff16565b506118e88167ffffffffffffffff16600285611ab69092919063ffffffff16565b50611988565b63ffffffff8167ffffffffffffffff161161194757611920601a60058460ff16901b1784611a9690919063ffffffff16565b506119418167ffffffffffffffff16600485611ab69092919063ffffffff16565b50611987565b611964601b60058460ff16901b1784611a9690919063ffffffff16565b506119858167ffffffffffffffff16600885611ab69092919063ffffffff16565b505b5b5b5b505050565b611997611d7e565b6119a983846000015151848551611ad8565b905092915050565b6119cf60036005600660ff16901b1783611a9690919063ffffffff16565b50611a2482827fffffffffffffffffffffffffffffffffffffffffffffffffffffffffffffffff611a009190612756565b604051602001611a109190612497565b604051602081830303815290604052611bc7565b5050565b611a4660026005600660ff16901b1783611a9690919063ffffffff16565b50611a708282604051602001611a5c9190612497565b604051602081830303815290604052611bc7565b5050565b611a91601f60058360ff16901b1783611a9690919063ffffffff16565b505050565b611a9e611d7e565b611aae8384600001515184611bec565b905092915050565b611abe611d7e565b611acf848560000151518585611c43565b90509392505050565b611ae0611d7e565b8251821115611aee57600080fd5b84602001518285611aff9190612535565b1115611b3457611b33856002611b2488602001518887611b1f9190612535565b611cd1565b611b2e91906126fc565b611ced565b5b600080865180518760208301019350808887011115611b535787860182525b60208701925050505b60208410611b9a5780518252602082611b759190612535565b9150602081611b849190612535565b9050602084611b9391906127ea565b9350611b5c565b60006001856020036101000a03905080198251168184511681811785525050508692505050949350505050565b611bd4826002835161180a565b611be7818361198f90919063ffffffff16565b505050565b611bf4611d7e565b83602001518310611c1a57611c198460028660200151611c1491906126fc565b611ced565b5b8351805160208583010184815381861415611c36576001820183525b5050508390509392505050565b611c4b611d7e565b84602001518483611c5c9190612535565b1115611c8457611c838560028685611c749190612535565b611c7e91906126fc565b611ced565b5b6000600183610100611c9691906125de565b611ca091906127ea565b90508551838682010185831982511617815281518588011115611cc35784870182525b505085915050949350505050565b600081831115611ce357829050611ce7565b8190505b92915050565b600082600001519050611d0083836117a0565b50611d0b838261198f565b50505050565b6040518060a0016040528060008019168152602001600073ffffffffffffffffffffffffffffffffffffffff16815260200160007bffffffffffffffffffffffffffffffffffffffffffffffffffffffff1916815260200160008152602001611d78611d7e565b81525090565b604051806040016040528060608152602001600081525090565b6000611dab611da6846124d7565b6124b2565b905082815260208101848484011115611dc757611dc6612ab8565b5b611dd28482856128dc565b509392505050565b600081359050611de981612c34565b92915050565b600081519050611dfe81612c4b565b92915050565b600081359050611e1381612c62565b92915050565b600081359050611e2881612c79565b92915050565b600081359050611e3d81612c90565b92915050565b600082601f830112611e5857611e57612ab3565b5b8135611e68848260208601611d98565b91505092915050565b600081359050611e8081612ca7565b92915050565b600081519050611e9581612ca7565b92915050565b600060208284031215611eb157611eb0612ac2565b5b6000611ebf84828501611dda565b91505092915050565b60008060408385031215611edf57611ede612ac2565b5b6000611eed85828601611dda565b925050602083013567ffffffffffffffff811115611f0e57611f0d612abd565b5b611f1a85828601611e43565b9150509250929050565b600060208284031215611f3a57611f39612ac2565b5b6000611f4884828501611def565b91505092915050565b60008060408385031215611f6857611f67612ac2565b5b6000611f7685828601611e04565b9250506020611f8785828601611e04565b9150509250929050565b60008060408385031215611fa857611fa7612ac2565b5b6000611fb685828601611e04565b9250506020611fc785828601611e2e565b9150509250929050565b60008060408385031215611fe857611fe7612ac2565b5b6000611ff685828601611e04565b925050602061200785828601611e71565b9150509250929050565b6000806000806080858703121561202b5761202a612ac2565b5b600061203987828801611e04565b945050602061204a87828801611e71565b935050604061205b87828801611e19565b925050606061206c87828801611e71565b91505092959194509250565b60006020828403121561208e5761208d612ac2565b5b600061209c84828501611e86565b91505092915050565b6120ae8161281e565b82525050565b6120bd8161283c565b82525050565b6120cc81612846565b82525050565b60006120dd82612508565b6120e78185612513565b93506120f78185602086016128eb565b61210081612ac7565b840191505092915050565b61211c612117826128a6565b612998565b82525050565b61212b81612872565b82525050565b600061213e601683612524565b915061214982612af2565b602082019050919050565b6000612161602383612524565b915061216c82612b1b565b604082019050919050565b6000612184601683612524565b915061218f82612b6a565b602082019050919050565b60006121a7601283612524565b91506121b282612b93565b602082019050919050565b60006121ca601783612524565b91506121d582612bbc565b602082019050919050565b60006121ed602883612524565b91506121f882612be5565b604082019050919050565b61220c8161289c565b82525050565b61222361221e8261289c565b6129bc565b82525050565b6000612235828561210b565b6014820191506122458284612212565b6020820191508190509392505050565b600060208201905061226a60008301846120a5565b92915050565b600060408201905061228560008301856120a5565b6122926020830184612203565b9392505050565b6000610100820190506122af600083018b6120a5565b6122bc602083018a612203565b6122c960408301896120b4565b6122d660608301886120a5565b6122e360808301876120c3565b6122f060a0830186612203565b6122fd60c0830185612203565b81810360e083015261230f81846120d2565b90509998505050505050505050565b600060608201905061233360008301866120a5565b6123406020830185612203565b818103604083015261235281846120d2565b9050949350505050565b600060208201905061237160008301846120b4565b92915050565b600060808201905061238c60008301876120b4565b6123996020830186612203565b6123a660408301856120c3565b6123b36060830184612203565b95945050505050565b60006020820190506123d16000830184612122565b92915050565b600060208201905081810360008301526123f081612131565b9050919050565b6000602082019050818103600083015261241081612154565b9050919050565b6000602082019050818103600083015261243081612177565b9050919050565b600060208201905081810360008301526124508161219a565b9050919050565b60006020820190508181036000830152612470816121bd565b9050919050565b60006020820190508181036000830152612490816121e0565b9050919050565b60006020820190506124ac6000830184612203565b92915050565b60006124bc6124cd565b90506124c8828261291e565b919050565b6000604051905090565b600067ffffffffffffffff8211156124f2576124f1612a84565b5b6124fb82612ac7565b9050602081019050919050565b600081519050919050565b600082825260208201905092915050565b600082825260208201905092915050565b60006125408261289c565b915061254b8361289c565b9250827fffffffffffffffffffffffffffffffffffffffffffffffffffffffffffffffff038211156125805761257f6129f7565b5b828201905092915050565b6000808291508390505b60018511156125d5578086048111156125b1576125b06129f7565b5b60018516156125c05780820291505b80810290506125ce85612ae5565b9450612595565b94509492505050565b60006125e98261289c565b91506125f48361289c565b92506126217fffffffffffffffffffffffffffffffffffffffffffffffffffffffffffffffff8484612629565b905092915050565b60008261263957600190506126f5565b8161264757600090506126f5565b816001811461265d576002811461266757612696565b60019150506126f5565b60ff841115612679576126786129f7565b5b8360020a9150848211156126905761268f6129f7565b5b506126f5565b5060208310610133831016604e8410600b84101617156126cb5782820a9050838111156126c6576126c56129f7565b5b6126f5565b6126d8848484600161258b565b925090508184048111156126ef576126ee6129f7565b5b81810290505b9392505050565b60006127078261289c565b91506127128361289c565b9250817fffffffffffffffffffffffffffffffffffffffffffffffffffffffffffffffff048311821515161561274b5761274a6129f7565b5b828202905092915050565b600061276182612872565b915061276c83612872565b9250827f8000000000000000000000000000000000000000000000000000000000000000018212600084121516156127a7576127a66129f7565b5b827f7fffffffffffffffffffffffffffffffffffffffffffffffffffffffffffffff0182136000841216156127df576127de6129f7565b5b828203905092915050565b60006127f58261289c565b91506128008361289c565b925082821015612813576128126129f7565b5b828203905092915050565b60006128298261287c565b9050919050565b60008115159050919050565b6000819050919050565b60007fffffffff0000000000000000000000000000000000000000000000000000000082169050919050565b6000819050919050565b600073ffffffffffffffffffffffffffffffffffffffff82169050919050565b6000819050919050565b60006128b1826128b8565b9050919050565b60006128c3826128ca565b9050919050565b60006128d58261287c565b9050919050565b82818337600083830152505050565b60005b838110156129095780820151818401526020810190506128ee565b83811115612918576000848401525b50505050565b61292782612ac7565b810181811067ffffffffffffffff8211171561294657612945612a84565b5b80604052505050565b600061295a8261289c565b91507fffffffffffffffffffffffffffffffffffffffffffffffffffffffffffffffff82141561298d5761298c6129f7565b5b600182019050919050565b60006129a3826129aa565b9050919050565b60006129b582612ad8565b9050919050565b6000819050919050565b60006129d18261289c565b91506129dc8361289c565b9250826129ec576129eb612a26565b5b828206905092915050565b7f4e487b7100000000000000000000000000000000000000000000000000000000600052601160045260246000fd5b7f4e487b7100000000000000000000000000000000000000000000000000000000600052601260045260246000fd5b7f4e487b7100000000000000000000000000000000000000000000000000000000600052603260045260246000fd5b7f4e487b7100000000000000000000000000000000000000000000000000000000600052604160045260246000fd5b600080fd5b600080fd5b600080fd5b600080fd5b6000601f19601f8301169050919050565b60008160601b9050919050565b60008160011c9050919050565b7f4d7573742062652070726f706f736564206f776e657200000000000000000000600082015250565b7f756e61626c6520746f207472616e73666572416e6443616c6c20746f206f726160008201527f636c650000000000000000000000000000000000000000000000000000000000602082015250565b7f4f6e6c792063616c6c61626c65206279206f776e657200000000000000000000600082015250565b7f556e61626c6520746f207472616e736665720000000000000000000000000000600082015250565b7f43616e6e6f74207472616e7366657220746f2073656c66000000000000000000600082015250565b7f536f75726365206d75737420626520746865206f7261636c65206f662074686560008201527f2072657175657374000000000000000000000000000000000000000000000000602082015250565b612c3d8161281e565b8114612c4857600080fd5b50565b612c5481612830565b8114612c5f57600080fd5b50565b612c6b8161283c565b8114612c7657600080fd5b50565b612c8281612846565b8114612c8d57600080fd5b50565b612c9981612872565b8114612ca457600080fd5b50565b612cb08161289c565b8114612cbb57600080fd5b5056fe68747470733a2f2f6d696e2d6170692e63727970746f636f6d706172652e636f6d2f646174612f70726963653f6673796d3d455448267473796d733d55534468747470733a2f2f6d696e2d6170692e63727970746f636f6d706172652e636f6d2f646174612f70726963656d756c746966756c6c3f6673796d733d455448267473796d733d555344a26469706673582212209faa1d3c546558228157fd2d2bf98cd08a676214c4c68c6bb2e07c0e8bd596e064736f6c63430008070033",
  "linkReferences": {},
  "deployedLinkReferences": {}
}